:100000000C94B9020C94D6020C94D6020C94D6022D
:100010000C94D6020C94D6020C94D6020C94D60200
:100020000C94D6020C94D6020C9462320C944A338F
:100030000C9417320C94D6020C94D6020C94D6026F
:100040000C94D6020C94D6020C94D6020C94D602D0
:100050000C94D6020C943E320C94D6020C94D60228
:100060000C94D6020C94D6020C94D6020C94D602B0
:100070000C94D6020C94D6020C94D6020C94D602A0
:100080000C94D6020C94D6020C94D6020C94D60290
:100090000C94D6020C94D6020C94D6020C94D60280
:1000A0000C94D6020C94D6020C94D60205010902D7
:1000B000A10185020901A1000509190129081500FE
:1000C0002501950875018102050109300931158165
:1000D000257F95027508810609381581257F9501D0
:1000E00075088106050C0A38021581257F95017572
:1000F000088106C0C005010980A101850319012AF4
:10010000B700150126B700950175108100C0050CD8
:100110000901A101850419012AA002150126A002E6
:10012000950175108100C005010906A1018506052C
:100130000719E029E71500250195087501810205D9
:1001400007190029EF1500250195F07501810205B9
:10015000081901290595057501910295017503910D
:1001600001C00660FF0961A1010962150026FF00B8
:100170009520750881020963150026FF00952075FA
:10018000089102C005010906A101050719E029E748
:1001900015002501950875018102950175088101F9
:1001A0000507190029FF150026FF0095067508812F
:1001B000000508190129051500250195057501910E
:1001C00002950175039101C00000000000000000CD
:1001D000000000000000000000000000000000001F
:1001E0000000000000000000000000007E0F00D4AE
:1001F000FFFFFFC7000000780000000000000000C3
:100200002A2B280000000000000000000000000071
:1002100000000029000000002C1E3420212224347C
:100220002627252E362D3738271E1F20212223244E
:1002300025263333362E37381F0405060708090AEA
:100240000B0C0D0E0F101112131415161718191A86
:100250001B1C1D2F3130232D350405060708090A04
:100260000B0C0D0E0F101112131415161718191A66
:100270001B1C1D2F3130354C09025B00030100A00F
:10028000FA09040000010301010009211101000124
:10029000224400070581030800010904010002034C
:1002A000000000092111010001222200070582033C
:1002B00020000107050303200001090402000103D7
:1002C00000000009211101000122B6000705840386
:1002D0002000011201000200000008424604000054
:1002E00001010203011C037600690061006C003A01
:1002F00000660036003400630032006200330063A1
:100300000000001203620075006D005F006400656C
:100310000063006B0000000C0366006C0062007557
:10032000006D000000040309040400050006000736
:10033000001E001F0020002100010001000100013B
:1003400000010001000100010001000100010001A5
:100350000001000100010001000100010001000195
:100360000001000100010001004F005000A900AA97
:100370000001000100010001000100010001000175
:1003800000010001000100010001000100330577B8
:10039000178D170000020002002F0577178D170038
:1003A0000003000100340577178D170000040002D8
:1003B00000190577178D17730605000100350577BD
:1003C000178D170000060002001B0577178D170018
:1003D0000007000200310577178D170000080001A3
:1003E00000360577178D170000090002001D0577FC
:1003F000178D177C060A0002001F0577178D177CE2
:10040000060B000200210577178D177C060C0002F1
:1004100000230577178D177C060D00020025057750
:10042000178D177C060E000200270577178D177CA5
:10043000060F000200290577178D177C06100002B1
:10044000002B0577178D177C06110002002D05770C
:10045000178D177C0612000200370577178D1700DD
:100460000013000200390577178D170000140001F2
:10047000003B0577178D170000150000000000A154
:1004800006BC100000FD377A585A000004E6D6B4C6
:10049000460200210116000000742FE5A3E001369A
:1004A00000AA5D003D8889C65436C3174FE4DC3688
:1004B0009735F521FD66D545CF3657CF0A7ACA1A4A
:1004C0004F90437BB23F3B7A0810FDCA64DC214168
:1004D0000024B0FE1286D4F0C35DF0D985ABAF40E6
:1004E000392D09B328968F6F44A571DAF78FE0CDC7
:1004F0004515984201997D864BA810438901407D9E
:1005000051D6C1D2F4B986F815003FABAC5F5AECB6
:100510008DDBADA2008410E6C9024E02EB13FD6331
:10052000DD1146C4F68703B49A1B9303761DB9D92F
:100530008CF097746006257B1211626C3CBB27C15E
:10054000182B9386D5AC52A530CD929B7F0000002E
:1005500000445400D339F3655B0001C601B70200C3
:100560000089A2A5BAB1C467FB02000000000459CB
:100570005A0011241FBECFEFDAE0DEBFCDBF11E07D
:10058000A0E0B1E0EAE1FAE602C005900D92AA3BD4
:10059000B107D9F725E0AAEBB1E001C01D92A23462
:1005A000B207E1F70E948B290C9491340C9400005F
:1005B0009C019A9581159F4118F5F32FF270EE2753
:1005C000832F8170732F74706627532F58704427C0
:1005D00034FF0CC08295807FEF2B09F08062672B7F
:1005E00009F08064452B69F080680895EF2B09F0CD
:1005F0008260672B09F08460452B19F088600895AC
:1006000080E00895CF93DF93EB010E94D802FE01B2
:100610000995DF91CF910895282F92959F7096307C
:1006200099F060F4925F9F70923030F4203FB1F007
:1006300038F481E0283E38F080E008959A5FF3CFE7
:1006400081E0243FC9F7089591E0813F09F090E0EF
:1006500081E0283E08F080E0892B089581E008952C
:1006600080931705089580931805089521E030E0E0
:1006700001C0220F8A95EAF780911805822B0E940B
:100680003303089521E030E0A90102C0440F551F53
:100690008A95E2F7CA0180959091180589230E94F6
:1006A000330308959B01677091E001C0990F6A952B
:1006B000EAF763E0369527956A95E1F7B901660F89
:1006C000771F260F371FFA01E20FF31F40E050E0BB
:1006D000682F70E08191DF019B01042E02C03695E6
:1006E00027950A94E2F721702195282729232827A6
:1006F0002E934F5F5F4F4330510561F708959C0182
:10070000A82FA77083E0369527958A95E1F7C90150
:10071000880F991F820F931FFB01E80FF91F40E01C
:1007200050E080E0219130E00A2E02C036952795F6
:100730000A94E2F721703327042E01C0220F0A9495
:10074000EAF7822B4F5F5F4F4330510559F7089509
:10075000282F862F903F71F0923068F4243050F4A7
:1007600034E0939FB0011124620F711D4FE253E0FA
:100770000E94520308959C5F9230E0F7622F70E070
:100780004CE253E0F5CF282F903FB1F0923068F45F
:10079000843090F434E0939FC00111246FE273E041
:1007A000820F911D0E947F0308959C5F923020F478
:1007B0006CE273E090E0F6CF80E008959091180528
:1007C00021E030E0F90101C0EE0F8A95EAF7D90186
:1007D00002C0AA0FBB1F6A95E2F7EA2B01C0220FE5
:1007E0004A95EAF7892F8E23E81305C0892F822BBB
:1007F0000E94330308952095822F8923F9CF809199
:10080000DA029091D902981301C008958F5F877022
:10081000FACF909165048095892380936504282FF1
:100820002770211111C0891779F090913E0592FF30
:100830000BC08695869586950E94420310926504AA
:100840001092670410926604089590916104982BA9
:10085000909361040895982F909580916104892365
:1008600080936104089580915F04811531F01092A6
:100870005F0410925E0410925D0408959C01803E16
:10088000910509F448C0D8F48133910509F47DC07D
:1008900048F48932910509F46DC08A9709F47CC047
:1008A000C90108958933910551F18238910539F1D3
:1008B000C597B1F780913D0585FFF2CF29C0843EF1
:1008C000910509F447C048F4823E910599F1833EB1
:1008D0009105A9F121EE30E0E3CF863E910509F4C0
:1008E00044C0873E9105E1F680913D0583FD61C0DE
:1008F00090913E0591FF2BC024EE30E0D1CF809146
:100900003D058370811152C080913E0583FFC8CFA1
:1009100029E230E0C5CF80913D0580FD33C0909144
:100920003E0590FFBDCF23EE30E084FFB9CF20E03D
:1009300030E0B6CF80913D0582FDF5CFB1CF8091FB
:100940003D0582FD30C090913E0590FD2FC084FF93
:10095000A7CFEDCF80913E0581FFA2CF80913D05CD
:1009600027EE30E084FDE3CF9BCF80913D0583FDF2
:10097000F7CF96CF80913D0585FD1EC080913E0545
:1009800083FF8ECF29E330E08BCF80913D0586FF3A
:1009900087CF2AE230E084CF80913D0586FF80CF6B
:1009A00021E330E07DCF22EE30E07ACF20EE30E060
:1009B00077CF26EE30E074CF25E330E071CF909111
:1009C0003D0592FF10C041E0282F2471243009F02A
:1009D00040E031E0282F2871283009F030E043173B
:1009E00011F02CE0822793FF10C041E0282F2471E2
:1009F000243109F040E031E0282F2871283109F036
:100A000030E0431711F02CE0822730913E0530FF93
:100A100010C051E0282F2171213009F050E041E051
:100A2000282F2871283009F040E0541711F029E0F0
:100A3000822731FF10C041E0282F2171213109F0B8
:100A400040E031E0282F2871283109F030E04317C9
:100A500011F029E0822794FD877E08951F93CF939C
:100A6000DF930E943E04EC01811522E5920708F015
:100A700055C0811540E5940708F0D1C0803E91052E
:100A800020F58D3C910508F0A4C0883A910570F4DA
:100A9000853A910508F09AC081309105D1F104970B
:100AA000813A9105B0F1C0E0D0E033C0885A910995
:100AB0004B97C8F7C85AD0E0CC0FDD1FC35BDE4FA1
:100AC0000990D881C02DD46424C0811550E49507C5
:100AD000C0F4C11580E2D80708F0B7C0C83ED10500
:100AE000C0F0CE019A9581159F41E8F68D2F0E94A6
:100AF000DF04182FCE0199270E943E04EC01D12B70
:100B000008C099270E943E04CC27DF70C82BD92B40
:100B1000D06ACE01DF91CF911F910895803842E5D0
:100B20009407C8F5803652E5950708F05BC0C034DD
:100B300082E5D807D0F4C03292E5D90708F04BC05F
:100B40008C2F8695869520E2829FC0011124C37068
:100B500021E030E0A90102C0440F551FCA95E2F719
:100B6000EA01C82BD92BDD68D4CF8C2F86958695CA
:100B7000877050E2859FC0011124C37021E030E0EE
:100B8000A90102C0440F551FCA95E2F7EA01C82B1C
:100B9000D92BDC68BECF803C52E5950758F48F71A5
:100BA000C03AD245A0F590E0982F8827EC01C46F99
:100BB000D06AAFCF805C9245809708F074CFDC2F6D
:100BC000CC27CC27DF71C06FD06AA3CFA497D064A5
:100BD000A0CFD0659ECFCF71D0E0DC2FCC27C16FE6
:100BE000D06A97CF86958695877020E2829FC00154
:100BF0001124C37021E030E0A90102C0440F551F49
:100C0000CA95E2F7EA01C82BD92BDA6882CF0E9495
:100C1000DF04C82FD0E0DC2FCC27D0627ACF8F71D1
:100C20000E94DF0493E0CC0FDD1F9A95E1F7CC27FB
:100C3000DF70282F30E084FF04C050E1859F9001D1
:100C40001124C22BD32BD06964CF8D2F8F710E94BA
:100C5000DF04182FCE0199270E943E04EC01D12B0E
:100C6000DCCF80E00895F894E82FE295EF70F0E093
:100C700041A18F7021E030E0B90102C0660F771FFB
:100C80008A95E2F7CB01962F9095942391A392A198
:100C9000892B82A3789408959C0121158CE738074D
:100CA00041F48091A6029091A702892B11F420E0D3
:100CB00030E0C9010895EAECF3E080E090E06CE9EF
:100CC00078E242EC58E227E339E277836683518782
:100CD000408733872287978786870196709688306A
:100CE000910599F708958091190590911A059093AF
:100CF0000F0180930E010895E9E1F5E0848195816B
:100D00002AE030E0B9010E94953360931201868198
:100D1000809313018285809303018485809302016F
:100D200086859785B9010E9495336093100180896B
:100D3000809311018289809301018489809300014D
:100D40000895EF92FF920F931F93CF93DF93FB01D0
:100D50008FEF9FEF4430510508F45FC040913D058F
:100D600041FB882780F990E0880F991F42FB0027FC
:100D700000F910E0000F111F000F111F802B912BA5
:100D800040FBEE24E0F8F12C8E299F2943FB22271B
:100D900020F9C22F50E0D52F53E0CC0FDD1F5A951C
:100DA000E1F78C2B9D2B44FB222720F950E1259F56
:100DB00090011124822B932B45FB222720F950E22E
:100DC000259F90011124822B932B46FB222720F98B
:100DD00050E4259F90011124822B932B47FB22275F
:100DE00020F940E8249F90011124822B932B20911D
:100DF0003E05322F3170932B26952170B22FBB0FF9
:100E0000A0E08A2B9B2B092E000CAA0BBB0B808326
:100E10009183A283B38380E090E0CDB7DEB7E6E0B4
:100E20000C94F23390E06115E9F08B5C9E4FFC016D
:100E300080818F3FB1F0E82FE295EF70F0E041A1A3
:100E40008F7021E030E0B90102C0660F771F8A95EC
:100E5000E2F7CB01962F9095942391A392A1892B31
:100E600082A308958D5C9E4FE2CF90E06115A9F0BA
:100E70008B5C9E4FFC0120812F3F91F0E22FE29589
:100E8000EF70E05EF0E0808190E02F7002C09595F9
:100E900087952A95E2F7817008958D5C9E4FEACF81
:100EA00080E008959C0143E0969587954A95E1F787
:100EB0008E719927FC01EB5FFD4F40815181F90153
:100EC000EF70FF2721E030E002C0220F331FEA95C8
:100ED000E2F7611541F0422B532B8B5F9D4FFC01D4
:100EE0005183408308952095309542235323F5CFB5
:100EF0001092A9041092A804E8E6F4E0858181111B
:100F000002C014821682379684E0E03AF807B1F7FF
:100F10000895AC013091AB046091AA04232F6213B1
:100F200001C00895822F90E0FC01EE0FFF1FE056F4
:100F3000FB4F0190F081E02DE417F50791F467E095
:100F4000649FF001659FF00D1124E859FB4F41E0CB
:100F500044832313E6CF0196837099278093AB04D3
:100F600008950196282F2370DACFFC01848186230F
:100F700081110AC082818115B9F06823908593FFA1
:100F800005C081E061110FC080E00895282F2295EF
:100F90002F708F70282B962F92959F706F70962BC5
:100FA00081E02913F1CF089581E00895282F35EBD2
:100FB0002303C001112497FF04C080589109892F91
:100FC000089580589F4FFBCF809134036091210595
:100FD0007091220580FF14C020910301269FC0015B
:100FE000279F900D1124BC0176956795769567959E
:100FF00060387105F0F561157105E9F1862F0895E6
:1010000081FF0BC020910301269FC001279F900DF7
:101010001124BC0176956795EBCF82FF09C08091C2
:1010200003019B01829FB001839F700D1124E0CFCB
:10103000809133038115E1F2909102012091030127
:10104000891738F0CB01289FB001299F700D11241A
:10105000CFCF289F90011124269FA001279F500DDC
:10106000369F500D1124692F70E0CA010E949533FC
:10107000BFCF8FE7089581E008958091340380FF0A
:101080000CC06091010170E0759567957595679545
:101090006115710549F1862F089581FF06C06091A1
:1010A000010170E075956795F3CF6091010182FDB4
:1010B0000BC0909132039115A1F0609100018091D5
:1010C0000101961738F0682F70E06038710500F361
:1010D0008FE70895899FC001112470E00E94A93311
:1010E000F4CF61E070E0D7CF81E00895FA01309746
:1010F00009F009950895E091CF02F091D002309760
:1011000029F00190F081E02D0995089580E008957F
:10111000A3E0B0E0EEE8F8E00C94DA339C018091B3
:1011200002029091030282179307A1F03093030209
:1011300020930202E091CF02F091D002309751F05B
:1011400083E089833B832A830084F185E02DCE01EF
:10115000019609952396E2E00C94F633A3E0B0E003
:10116000E4EBF8E00C94DA339C018091000290915A
:10117000010282179307A1F030930102209300022D
:10118000E091CF02F091D002309751F084E0898352
:101190003B832A830084F185E02DCE0101960995D9
:1011A0002396E2E00C94F63390911601913091F081
:1011B000AEEBB1E0EFEF90E02D91821751F0EF3FF1
:1011C00019F4211101C0E92F9F5F9630A9F7EF3F75
:1011D000C9F4089590913D0597FFEACFE82FE69571
:1011E000E695E695803FA8F7F0E0EC53FE4F877058
:1011F00021E030E001C0220F8A95EAF78281822B3C
:10120000828308950E2E000CFF0BE454FE4FF8CF9E
:1012100090911601913021F490913D0597FD0CC0FD
:10122000EEEBF1E09191891302C0DF011E9251E0D3
:10123000E43CF507B9F70895E82FE695E695E695BD
:10124000803FC8F7F0E0EC53FE4F877021E030E0BC
:10125000A90102C0440F551F8A95E2F7CA01809583
:1012600092818923828308958091150108952FB773
:10127000F8948091FC019091FD01A091FE01B09144
:10128000FF012FBF089580911B0590911C05892BAC
:1012900091F00E94370920915D0430915E04AC0109
:1012A000421B530B9A0181E040911B0550911C0594
:1012B0002417350708F480E00895CF93DF93C09199
:1012C000610480916404C82B80915F048115F9F05A
:1012D00080911B0590911C05892B29F00E944309E0
:1012E00081110E943304D0915F04809116018130F6
:1012F00021F480913D0587FD14C086E02EEB31E09E
:1013000090E0815090F491110E943304CD2B809194
:10131000460380958C2390914503892BDF91CF91D3
:1013200008958EE126EC31E0EBCFF90141919F0168
:10133000411539F39F5FE5CF962F20913E0522FF9F
:1013400010C0682F660F660F660F692B60936504E7
:101350000E9436030E9437099093670480936604C5
:1013600008950E943603089590915F04292F282341
:10137000211561F08095892380935F04811539F0F0
:101380000E94370980935D0490935E04089580E085
:1013900090E0F8CFCF93C82F80913E0582FF0CC01C
:1013A00080915F048C1741F00E94370990935E048E
:1013B00080935D04C0935F04CF9108950E94370924
:1013C0002091370330913803232B211521F080938E
:1013D0009D0290939E022091390330913A03232B72
:1013E000211521F080939B0290939C02E091CF0203
:1013F000F091D002309749F082E080933503068067
:10140000F781E02D85E393E009950895611509F4CE
:101410004BC0E3E3E80FE33150F4F0E0ED56FB4C52
:101420000C94BD330E94E4078195809338030E9499
:10143000DE0908950E94E407F8CF0E94E407819531
:1014400080933703F4CF0E94E407FACF0E943D084F
:1014500080933903ECCF0E943D088195F9CF0E941B
:101460003D08819580933A03E2CF0E943D08FACF70
:10147000815D990B21E030E001C0220F8A95EAF7E7
:1014800080913603822B80933603D1CF8091340331
:10149000816080933403CBCF809134038260F9CF95
:1014A000809134038460F5CF409137038D3C59F42B
:1014B0008091380387FF0DC010923803411559F40D
:1014C0001092330308C08E3C81F4809138031816C3
:1014D0009CF3411581F08091390390913A03892B57
:1014E0008111A5CF10923203A2CF8F3C41F447FF68
:1014F000F0CF10923703809138038115E0CF803D03
:1015000019F41416B4F3E5CF90913903893D29F409
:101510001916FCF610923903DCCF8A3D19F497FFB7
:10152000D8CFF8CF90913A038B3D29F497FFD1CFD4
:1015300010923A03CECF8C3D19F41916CCF3C9CFD3
:101540009FE2980F983090F4815D990B21E030E094
:10155000B90102C0660F771F8A95E2F7CB0180952B
:1015600090913603892380933603B3CF8D3D31F4B8
:10157000809134038E7F80933403ABCF8E3D21F472
:10158000809134038D7FF7CF8F3D09F0A2CF8091FA
:1015900034038B7FF0CF2FB7F8946091FC017091EA
:1015A000FD018091FE019091FF012FBF0895CF9220
:1015B000DF92EF92FF92CF93DF93D82FC92FC09085
:1015C000C403D090C503E090C603F090C7030E9407
:1015D000CB0A6C197D098E099F09643F7140810512
:1015E000910518F10E94CB0A6B017C0182E390E027
:1015F000A0E0B0E0C0928902D0928A02E0928B0211
:10160000F0928C028093850290938602A0938702C9
:10161000B0938802D093C203C093C303DF91CF91EC
:10162000FF90EF90DF90CF90089584EF91E0A0E0DD
:10163000B0E0E0CF87E797E7909301088093000838
:1016400088E19AE00FB6F894A895809360000FBEE9
:1016500090936000FFCFFC019B018091F20190917B
:10166000F3018617970740F0672B29F48091E80073
:101670008E778093E800C90140E0009741F4411162
:1016800006C08091E80082FF2FC080E0089520917D
:10169000A8022115A9F12530A9F12091E80023FD28
:1016A0002DC02091E80022FDECCF2091E80020FF22
:1016B000E4CF3091F3002091F200009719F0283028
:1016C000310558F041E02830310509F040E0209123
:1016D000E8002E772093E800D0CF41914093F100AD
:1016E00001972F5F3F4FE9CF8091A802811541F00C
:1016F000853041F08091E80083FFC3CF81E00895F9
:1017000082E0089583E008958091EC0187FF13C083
:101710008091E80082FF06C08091E8008B7780937B
:10172000E80008958091A8028111F2CF0895809178
:10173000A8028115D9F38091E80080FFF8CF80914D
:10174000E8008E77ECCF2091E4003091E50095E63B
:10175000A9012091EC00822F817020FF06C08091AA
:10176000E80080FF06C080E008952091E80022FD97
:101770001AC08091A802811589F0853089F0809186
:10178000EB0085FD0FC02091E4003091E500421789
:101790005307F9F29A95E1F684E0089582E00895FE
:1017A00083E0089581E00895E8EDF0E080818E7F88
:1017B00080831092E2001092DA001092E100A0EE15
:1017C000B0E08C9181608C9380818F77808319BC8D
:1017D000A7EDB0E08C918E7F8C9380818F7E80838B
:1017E0001092EB010895982F9093E900891771F0FA
:1017F0007091EC002091ED005091F00021FD09C0A6
:101800009F5F973089F78093E9000895762F242F02
:1018100050E03091EB003E7F3093EB003091ED00D3
:101820003D7F3093ED003091EB0031603093EB0061
:101830007093EC002093ED005093F0002091EE00A7
:1018400027FDDECF0895A0E0B0E0E9E2FCE00C94D3
:10185000D433C8EDD0E088818F7E8883E7EDF0E057
:1018600080818160808384E082BF81E08093EB018E
:1018700088818E7F888302EE10E0F801108210923A
:10188000DA0081EEC82ED12CF601108288818F7784
:10189000888388818068888388818F7D888319BC4C
:1018A0001092A8021092EA01109281021092E901AE
:1018B00090EEE92EF12CF70180818B7F8083888167
:1018C0008160888342E060E080E00E94F30BF601D3
:1018D00080818E7F8083F801808181608083808118
:1018E00088608083F70180818E7F8083888180611A
:1018F0008883CDB7DEB7E8E00C94F0339C01211566
:10190000310509F408958FE99FE00197F1F700C0D0
:10191000000021503109F3CF0F931F93CF93DF9332
:101920008B01EA019091A802943059F58093E90067
:101930008FEF9091E80095FD06C095ED9A95F1F72F
:1019400000008A95B1F78091E80085FF1AC00E94D7
:10195000A30B811111C08091E80085FD06C0809124
:10196000E8008E778093E800F2CFF80181918F0133
:101970008093F100219779F78091E8008E7780932A
:10198000E800DF91CF911F910F910895CF93DF93DE
:10199000D82FC92F48E050E0682F792F81E00E94AE
:1019A0008C0C88E0ED2FFC2FA4EFB1E001900D929C
:1019B0008A95E1F7DF91CF910895BC0140E250E0B4
:1019C00084E00E948C0C0895BC0146E050E084E065
:1019D0000E948C0C0895BC0143E050E084E00E941A
:1019E0008C0C089590913E0592FB222720F9281730
:1019F00079F080FB92F990933E0560913D057091DE
:101A00003E0584E090E00E94733482E00E94090465
:101A100008951F93CF93DF93C62F122F632F982F14
:101A2000942B9430C8F4C230B8F428E0C29FE0018F
:101A30001124C40FD11DC40FD11D20E1829FC0010C
:101A40001124C80FD91FCE0188960E945534612FEA
:101A5000CE0189960E945534DF91CF911F91089550
:101A60000F931F93CF93DF93962F142F022F632F83
:101A7000843018F5923008F528E0829FE0011124A7
:101A800034E0939FC0011124C80FD91FC859DF4FFC
:101A900081E084279E01280F311D280F311DC901C7
:101AA0000E94553481E090E0111102C083E090E083
:101AB000602F8C0F9D1F0E945534DF91CF911F9195
:101AC0000F910895CF93DF93CCE9D1E060E0CE0190
:101AD0000E9455342196C11584E0D807B9F7DF91EB
:101AE000CF910895CF93C82F62E0811101C06FEFAD
:101AF00084E290E00E94553461EFC11101C06FEFA4
:101B000085E290E00E9455346BE8C11101C06FEF8F
:101B100086E290E00E945534CF9108950F931F9371
:101B2000CF93DF9309E115E0C8E8D0E0CE010E9431
:101B30003734F80161918F01681719F0CE010E94C6
:101B400055342196CC3AD10589F7DF91CF911F9179
:101B50000F9108950F931F93CF93DF9309E115E041
:101B6000C8E8D0E0CE010E943734F80181938F019C
:101B70002196CC3AD105B1F7C3E9D3E0FE018591B6
:101B80009491009711F0FC0109952C96F4E0CF3860
:101B9000DF07A1F7DF91CF911F910F9108950F9368
:101BA0001F93CF93DF93982F942B943020F56230BE
:101BB00010F528E0629FE0011124C40FD11DC40F6D
:101BC000D11D30E1839FC0011124C80FD91FCE0160
:101BD00088960E943734082F10E0102F0027CE017E
:101BE00089960E9437349801282BC901DF91CF9143
:101BF0001F910F91089580E090E0F8CFFF920F932E
:101C00001F93CF93DF93F42E843070F5623060F52C
:101C100028E0829FE001112434E0639FB001112489
:101C2000C60FD71FC859DF4F81E084279E01280FB8
:101C3000311D280F311DC9010E943734082F10E0D3
:101C4000102F002781E090E0F11002C083E090E0C7
:101C50008C0F9D1F0E9437349801282BC901CDB7E6
:101C6000DEB7E5E00C94F33380E090E0F8CF20910C
:101C7000AB023091AC02232BD9F4703F39F4603FB2
:101C8000B9F48091A9029091AA020895723048F4A3
:101C9000982F962B943060F4462F672F0E94CF0D1B
:101CA00008957D3F41F4623018F441E0843050F0F3
:101CB00080E090E008957C3FD9F76230C8F7843027
:101CC000B8F740E00E94FE0D0895A0E0B0E0EBE61A
:101CD000FEE00C94D5337C01009118058091170526
:101CE000082BC3E0D0E010E0C8010C2E02C095958F
:101CF00087950A94E2F780FD09C02197A8F7D12CB7
:101D00008D2DCDB7DEB7E7E00C94F133DC2EB701B3
:101D10008C2F0E94370E0E942E05019771F3F0CF91
:101D2000CF93DF93D82FC92F0E94650E6D2F7C2F84
:101D30000E94370E0E942E05DF91CF910895FC017D
:101D40008481811571F087819085009729F00E9428
:101D50002E050E940C030895808191810E94900EAF
:101D6000F8CF80E008951F93CF93DF93182FD92FDA
:101D7000611599F0411589F00E94650EC82F682FF2
:101D8000812F9D2F0E94A803612F7D2F8C2F0E94F1
:101D9000370EDF91CF911F9108950E94C303C82F82
:101DA000F3CFCF93DF93FC01462FC781D0852097D7
:101DB00031F46581808191810E94B30EEC01CE01E6
:101DC000DF91CF91089584E290E00E943734823011
:101DD00089F485E290E00E943734813F59F486E22D
:101DE00090E00E94373491E08B3809F090E0892F21
:101DF0008170089580E0FCCF80911601813059F503
:101E000080913D0587FF27C00E945D098093C50131
:101E100040E250E06FEA72E084EC91E00E940A3404
:101E2000892BC1F080E2E4ECF1E0AFEAB2E001908E
:101E30000D928A95E1F7E091CF02F091D0023097B0
:101E400049F086E08093C4010480F581E02D84ECA4
:101E500091E0099508950E945D098093BC0148E0D6
:101E600050E061ED72E08CEB91E00E940A34892B26
:101E700089F388E0ECEBF1E0A1EDB2E001900D9286
:101E80008A95E1F7E091CF02F091D002309711F3FB
:101E90000280F381E02D8CEB91E0DBCF811521F006
:101EA0000E9425040E94FC0E0895811539F090913E
:101EB0006404892B809364040E94FC0E08958115AC
:101EC00021F00E942B040E94FC0E0895811541F020
:101ED0008095909164048923809364040E94FC0E91
:101EE0000895CF93C82F8115D1F08CEF8C0F813AD4
:101EF000A0F580911601813021F480913D0587FD88
:101F000010C0EEEBF1E08191C81709F121E0E43C4B
:101F1000F207C9F78C2F0E94D4080E94FC0ECF91C3
:101F20000895EC2FE695E695E695F0E0EC53FE4F2C
:101F3000828190E04C2F477021E030E002C0220FF8
:101F4000331F4A95E2F782239323892B19F38C2FB1
:101F50000E9408090E94FC0EDDCF80E28C0F8830C1
:101F600048F4C77081E001C0880FCA95EAF70E9463
:101F70002504D3CF8BE58C0F833038F42C2F2452DB
:101F8000330BC9010E948808CACFE8E5EC0FEB319A
:101F900050F4F0E0EE0FFF1FED57FE4F808191816E
:101FA0000E94AE08BCCF83E38C0F833108F0B7CF1B
:101FB00061E08C2F0E94060AB2CFCF93DF93EC0131
:101FC000805E9109089720F065E57FE0209711F485
:101FD0006EE47FE0CE010E9402038C2F0E94710FFD
:101FE000DF91CF9108959C01611529F080916404DF
:101FF000826080936404C90190528115904308F473
:102000003327C9010E94DD0F0895811581F19CEFEE
:10201000980F913A28F40E9408090E94FC0E089536
:1020200090E2980F983050F4877091E001C0990FBA
:102030008A95EAF7892F0E942B04EFCF9BE5980F32
:10204000933028F480E090E00E948808089598E595
:10205000980F9B3128F480E090E00E94AE0808952C
:1020600093E3980F933118F460E00E94060A0895F4
:10207000CF93DF93EC010E940510CE01805E9109A1
:10208000089720F066E67FE0209711F46FE57FE087
:10209000CE010E940203DF91CF9108950F931F9309
:1020A000CF93C82F8B010E94710F0115110539F4D0
:1020B0008C2F0E940510CF911F910F9108958FE9E9
:1020C0009FE00197F1F700C0000001501109EDCF2A
:1020D0006091390570913A05893321F06091370597
:1020E000709138050E944E100895109261048091FD
:1020F0001601813039F580913D0587FF23C0E6EC5C
:10210000F1E08EE1DF011D928A95E9F780E090E031
:102110000E94880880E090E00E94AE08109264045B
:102120000E94FC0E86E0E5E3F3E0DF011D928A9554
:10213000E9F71092330310923203109234030E9495
:10214000DE090895EEEBF1E086E0DCCF0E94751029
:102150002FEF84E39CE0215080409040E1F700C0E5
:10216000000088E19AE00FB6F894A895809360008B
:102170000FBE90936000FFCFCF93DF93FB018FEFF3
:102180009FEF44305105B8F0D081C1810E94751095
:10219000D0933D05C37080913E058C7FC82BC093C2
:1021A0003E0560913D0570913E0584E090E00E94FF
:1021B000733480E090E0DF91CF910895E9E1F5E09C
:1021C000128E138E8FEA90E09183808325E0248F16
:1021D00088E893E1938382838AE090E09583848307
:1021E00044E150E05783468348E050E05187408700
:1021F000938782876EE170E075876487978786870B
:1022000080E590E0918B808B538B428B48E250E0CD
:10221000558B448B42E350E0578B468B48EC50E0A3
:10222000518F408F158E178E168E91A380A322A3F7
:102230000E948E0D0E94751010923E0510923D0571
:1022400080E0846080933E0560E074E084E090E08C
:102250000E9473340E94AA0D0895AAE2B0E0E3E35D
:10226000F1E10C94D9338CEE91E0FC0101962091C0
:10227000F100208321E0843F9207B9F78091ED01BE
:10228000893009F45AC0C8F4823009F4B7C08330E9
:1022900009F486C0813091F18091E80083FFEBC0A2
:1022A0008091EC019091ED019A3008F0E4C0E92FA3
:1022B000F0E0EA55FB4C0C94BD338A3009F48DC034
:1022C0008B3051F78091EC01813231F78091F00130
:1022D0009091F101892B01F78091E800877F80932D
:1022E000E8000E94840B81E09091EE01911101C001
:1022F00080E0809316010E947510CECF8091EC0192
:10230000813A51F68091E800877F8093E8008091C0
:10231000F0019091F101892B61F060E080E090E0A4
:1023200070E00E942B0B8091E8008B778093E8008F
:10233000B3CF68E084EF91E0F3CF8091EC0181327C
:1023400009F0AACF8091F0019091F1018D7F892B46
:1023500009F0A2CF8091E800877F8093E800809108
:10236000E80082FF18C09091F3008091F20002977C
:1023700031F48091F100813011F0863021F48091A8
:10238000F100809315018091E8008B778093E8003D
:102390000E94840B81CF8091A8028111E0CF7CCF75
:1023A0008091EC01813A09F077CF8091F001909112
:1023B000F101892B09F070CF8091E800877F80932D
:1023C000E8008091E80080FFFCCF809116018093A7
:1023D000F1008091E8008E77D9CF8091EC018132B5
:1023E00009F05ACF8091E800877F8093E8000E942F
:1023F000840B8091EF01809314014ECF8091EC010A
:10240000813A09F049CF8091E800877F8093E80006
:102410008091E80080FFFCCF80911401D8CF8038F4
:1024200089F0823841F58091F0018F70873018F57E
:102430008093E9008091EB0085FB882780F910925A
:10244000E90006C080918102880F9091E901892BF3
:102450009091E800977F9093E8008093F1001092AC
:10246000F1008091E8008E7723C0811116C0809121
:10247000EE01813011F18091E80083FF0AC0809164
:10248000E800877F8093E8008091EB008062809372
:10249000EB00AA96E3E00C94F533823061F780916B
:1024A000EE01811589F01092E9008091E800877FA4
:1024B0008093E8000E94840BDECF81E0933009F026
:1024C00080E080938102EFCF8091F0018F702FEF39
:1024D000280F263080F68093E9002091EB0020FF42
:1024E000E2CF933031F48091EB0080628093EB0077
:1024F000DACF9091EB0090619093EB0021E030E017
:10250000A90102C0440F551F8A95E2F74093EA00E3
:102510001092EA008091EB008860E8CF8111ABCF88
:102520001091EE011F778091E3008078812B8093DA
:10253000E3008091E800877F8093E8000E94840B8D
:102540008091E80080FFFCCF8091E3008068809359
:10255000E30083E0111101C082E08093A8028BCFD9
:102560008058823008F087CF8091EE019091EF0182
:102570008C3D53E0950799F583E08A838AE289834D
:102580004FB7F894DE01139620E03EE051E2E32FCE
:10259000F0E050935700849120FF03C082958F7024
:1025A0003F5F8F708A30C8F0895C90E08D939D9377
:1025B0002F5F243161F74FBF8091E800877F8093C0
:1025C000E8006AE270E0CE0101960E942B0B809138
:1025D000E8008B778093E8004ECF805DE6CF292F0F
:1025E00033272330310509F44EC078F52130310509
:1025F00009F488C08BE590E0E8E7F2E0223031058D
:1026000009F039CF2091E800277F2093E80020913E
:10261000F2013091F3018217930708F49C0140E026
:102620002115310509F073C0411171C08091E80096
:1026300082FDCDCF8091A802811549F2853039F213
:102640008091E80083FFF2CFC2CF8091F00190919A
:10265000F1012132310509F446C02232310509F079
:102660000ACF8330910508F006CFFC01EE0FFF1F63
:10267000E95DFE4F0190F081E02D8C5D9E4FDC0105
:102680008C9190E010C09C013327823021F12330DF
:10269000310568F4232BB9F4E5E2F3E0E4918E2FE1
:1026A00090E0E5E2F3E0009709F4E5CEABCF23300C
:1026B000310509F0E0CEE5EEF2E0E4918E2F90E0F6
:1026C000E5EEF2E0F0CFE7E1F3E0E4918E2F90E069
:1026D000E7E1F3E0E8CFE3E0F3E0E4918E2F90E070
:1026E000E3E0F3E0E0CF8330910508F0C4CEFC01D5
:1026F000EE0FFF1FE35DFE4F0190F081E02D89E0BA
:1027000090E080CF82E190E0E3EDF2E07BCF80913A
:10271000A802811509F45BCF853009F458CF809168
:10272000E80083FD54CF8091E80082FD7FCF809147
:10273000E80080FF75CF9091F3008091F2002115A1
:10274000310519F08830910550F041E0089709F003
:1027500040E08091E8008E778093E80061CF44915B
:102760004093F1003196215031090196E8CF80382D
:1027700009F081CE8091E800877F8093E800809106
:10278000EA018093F1006DCE811175CE1091EE01BA
:10279000123008F070CE8091E800877F8093E800C7
:1027A0001093EA010E94840B1115F9F084E08093E4
:1027B000A80242E061EC81E00E94F30B42E261EC8E
:1027C00084E00E94F30B42E261EC82E00E94F30B92
:1027D00042E260EC83E00E94F30B8091A802843017
:1027E00051F482E08093170146CE8091E30087FD8B
:1027F000DDCF81E0DCCF81E0F5CF80911901877FCB
:1028000080931901909164049D7F9093640484FFE8
:1028100006C08F7E8093190182E00E94250480917A
:10282000190185FF06C08F7D8093190180E20E9407
:1028300025040E94FC0E0895CF92DF92FF920F9321
:102840001F93CF93DF93EC018B01F42E809119013C
:1028500082FF65C0C0905004D0905104CC16DD06B4
:1028600019F0209709F05BC0809119018B7F80934C
:102870001901C1E081FD10C080914E0490914F0478
:102880009801281B390BC1E080910E0190910F0136
:102890002817390708F4C0E080911901C0FB81F9BD
:1028A000809319016C2FC6010E9452078091610428
:1028B00081FF08C08091190180618093190182E035
:1028C0000E942B048091610485FF08C0809119014A
:1028D00080628093190180E20E942B046C2FC60154
:1028E0000E94F30FF11431F08091340585FF02C08E
:1028F00086FF29C080913705909138050E947E0C93
:1029000080915004909151049C0130522115304324
:1029100008F499270E9438100E94FD1310C0CE01C0
:10292000905281159043B8F4CE0199270E94381037
:102930008091500490915104C817D90769F31093FE
:102940004F0400934E04DF91CF911F910F91FF90A0
:10295000DF90CF900895CE01E9CFCF93DF93EC01C4
:102960004A855B856E857F850E9476089B81909560
:10297000809164048923809364048C810E942B04D9
:102980000E94FC0E86E0FE0111928A95E9F7DF9124
:10299000CF910895CF93DF93EC018D8181FD14C019
:1029A00082608D83809164049B81892B8093640471
:1029B0008C810E9425040E94FC0E488559856E85F5
:1029C0007F85CE010E94760810924B0410924A0433
:1029D0008D8180FD03C0CE010E94AD14DF91CF91A7
:1029E00008951F93CF93DF93182FA091C003B09148
:1029F000C103109709F44AC01092C3031092C20396
:102A000010924603109245031696CD91DC911797CC
:102A1000CE019A9581159F4108F4D07ED1E0C11175
:102A200001C0D0E01996ED91FC911A97309731F0E2
:102A30001B966D917C9180E00995D823D11539F0D2
:102A40008CEF8C0F813A30F58C2F0E9408091115FC
:102A5000A9F0E091C003F091C103808584FD0EC010
:102A60008091BF03811551F0808191819C0121509B
:102A700031092F333E4710F40E94D70A0E94FC0E02
:102A80001092C1031092C0031092BF03DF91CF9147
:102A90001F9108950E94FC0E8C2F0E940510D7CF25
:102AA000AEE1B0E0E6E5F5E10C94CC336090A6022F
:102AB0007090A70281E090E09093A7028093A60215
:102AC00039E6E32E33E0F32E812C912C00E010E068
:102AD0005401412C18C0F60125913491452D642DE7
:102AE000802F0E94090D22E0C20ED11C539434E0C5
:102AF0005312F1CF84E0A80EB11C81E0840D442470
:102B00004394823049F0C501880F991FDC01A75D0D
:102B1000BC4F6D01512CDFCFF7012591349141E07D
:102B200060E0802F0E94300DF7013296259134919C
:102B300040E060E0802F0E94300DF701349625912F
:102B4000349141E061E0802F0E94300DF70136960C
:102B50002591349140E061E0802F0E94300D0F5F9D
:102B60001F4FB8E0EB0EF11C28E0820E911C0430E0
:102B7000110509F0ADCF0E94DE101A8219821C8265
:102B80001B821E821D8218861F8288EC90E09A8725
:102B900089870CEA10E04AE050E0B801CE010196C6
:102BA0000E947934065F1F4F0C3F1105A1F7FE010B
:102BB0003B968AE0DF011D928A95E9F77F014AE0A2
:102BC00050E0B801C7010E947934065F1F4F0C34F2
:102BD000B1E01B07A1F7FE01759689E0DF011D92A8
:102BE0008A95E9F78FEF9FEF9A8F898F87E08E8F15
:102BF0007F014AE050E0B801C7010E947934065FC6
:102C00001F4F0C39B1E01B07A1F77092A702609229
:102C1000A6026E96E0E10C94E83380E00E94720D0B
:102C200060E087E290E00E9455340E9450150E94B7
:102C3000620D81E00E94720D0895AAE0B0E0E3E227
:102C4000F6E10C94D433E6E2F2E080E5DF011D9278
:102C50008A95E9F7E8E6F4E088E3DF011D928A95BA
:102C6000E9F786E2C82E82E0D82E7F010CEF10E053
:102C7000F701D182C0824AE050E0B801CE0101964E
:102C80000E94273488E0FE013196D60101900D9212
:102C90008A95E1F789859A85D70113969C938E933F
:102CA0001297BAE0CB0ED11CE7E0EE0EF11C065FE6
:102CB0001F4F0C34F1E01F07D9F62A96E8E00C9478
:102CC000F033AAE0B0E0E7E6F6E10C94D23307E493
:102CD00013E08CE4E82EFF24F39497E0B92E25E26C
:102CE000C22E22E0D22EAA24A3944AE050E0B701DB
:102CF000CE0101960E942734F8013896DF018B2D12
:102D00001D928A95E9F789819A81D80111969C9341
:102D10008E938F8112968C9312978D8113968C933C
:102D20001397888514968C931497898515968C93A0
:102D300015978B819C8117969C938E9316978A8505
:102D400087FD04C01E96DC92CE921D9780FF02C0C4
:102D5000F801A08681FF07C0D80118969C911897AA
:102D6000926018969C9382FF04C0F801908594604D
:102D7000908783FF07C0D80118969C911897986098
:102D800018969C9384FF04C0F80190859061908709
:102D900085FF07C0D80118968C9118978062189605
:102DA0008C93BAE0EB0EF11C015F1F4FECE9EE16BD
:102DB000E1E0FE0609F099CF2A96EAE00C94EE33A2
:102DC000282FCB01283070F44AE0249F9001112471
:102DD000B90164557F4F4AE050E00E94273480E0FB
:102DE00090E008958FEF9FEF0895AAE0B0E0EBEF39
:102DF000F6E10C94DA339C0197558115914070F4FB
:102E0000BE016F5F7F4F822F0E94E016892B31F445
:102E100089859A852A96E2E00C94F63380913105F3
:102E200090913205F7CFA0E0B0E0E9E1F7E10C9432
:102E3000D533162FD72FC42FD22E8115A9F040934A
:102E40005B040E9437099093E8018093E701C77003
:102E500081E001C0880FCA95EAF70E944E0FCDB7F6
:102E6000DEB7E7E00C94F13390915B04491338C06E
:102E7000E090E701F090E8010E9437099C012E19CB
:102E80003F097901812F9D2F0E94F516E816F9065A
:102E900038F5D0E2DD0DCD15A1F0C77011E0812F1E
:102EA00001C0880FCA95EAF70E945F0FD83048F436
:102EB0008D2D877001C0110F8A95EAF7812F0E942E
:102EC0004E0F802F0E946810D83048F62D2D2770A5
:102ED00081E001C0880F2A95EAF70E945F0FBFCFFB
:102EE000C77081E001C0880FCA95EAF7F6CF9C0150
:102EF000CB01DA01F901329645915491A417B50737
:102F000048F0F9013496659174910E94173480E07D
:102F100090E008958FEF9FEF08959C01DA010296EB
:102F2000FC0145915491FC0185919491A817B90732
:102F300058F0F9013496859194910E9417340E94BB
:102F40008E0D80E090E008958FEF9FEF0895A2E04E
:102F5000B0E0EDEAF7E10C94D1331A82198287E3ED
:102F6000C82E81E0D82E8E010F5F1F4F99E3E92E06
:102F700091E0F92E5801F60121916F012F3F09F4DC
:102F80003FC0F894E22FE295EF70F0E031A12F708E
:102F900081E090E001C0880F2A95EAF7932F982BE3
:102FA00091A392A18095892382A3789400C0E9E33C
:102FB000F1E04DE351E031E0912C21912F3F79F088
:102FC000A22FA295AF70A05EB0E08C9190E02F7020
:102FD00002C0959587952A95E2F780FF33C080E07F
:102FE000982A330F4E175F0741F7F60182918F3F02
:102FF00011F00E943306F0EAFA95F1F7F801908299
:103000000F5F1F4FEC14FD0409F0B5CF42E050E014
:10301000B5018EE792E00E940A34892BA9F08981DC
:103020009A8190937F0280937E0281E08093E601F3
:103030000E9437099093E5018093E4012296EBE02A
:103040000C94ED33832FCCCF8091E6018115B1F341
:103050000091E4011091E5010E943709801B910B5A
:10306000059760F342E050E06EE772E084EA92E098
:103070000E940A34892B41F080917E0290917F0258
:103080009093A5028093A4021092E601D7CFA0E00E
:10309000B0E0EDE4F8E10C94D333EC0188818115C4
:1030A000F1F0813009F042C08981813029F48A81B0
:1030B00023960E946810F2CF823029F48A812396E9
:1030C0000E94710FEBCF833029F48A8123960E94EE
:1030D0000510E4CF843041F022968111DFCFCDB7C7
:1030E000DEB7E9E00C94EF338A81239620E030E0EC
:1030F0009AE0682F6053770BAB016A30710560F07E
:103100002115310551F3EFE9FFE03197F1F700C0E8
:10311000000021503109F4CF929FB001939F700DB0
:1031200011249A01260F371F8991E3CFE82FF0E091
:10313000E850FE4FB490282F26952695269530E02E
:10314000F901E851FE4FE4908770F12C082E02C07F
:10315000F594E7940A94E2F7E0FAEE24FF24E0F80D
:10316000F901E852FE4FC490D12C082E02C0D5942C
:10317000C7940A94E2F7C0FACC24DD24C0F8F90120
:10318000E853FE4F049110E002C0159507958A950B
:10319000E2F701701127E114F10419F081EE0E94A9
:1031A000710FC114D10419F086EE0E94710F60E016
:1031B00070E08B2D0E944E10C114D10419F086EEE0
:1031C0000E940510E114F10419F081EE0E9405102F
:1031D0000115110519F08CE20E94681021965ECF4E
:1031E000AFE0B0E0E6EFF8E10C94CA337C01DC011B
:1031F00014968C91811509F468C161E0C7010E94A1
:10320000D10E8C01F7018581811531F180914A043D
:1032100090914B04009701F108171907E9F0FC01A0
:10322000FF27887F9927892B09F067C064E0EE0F9C
:10323000FF1F6A95E1F7E653FC4F85818460858323
:1032400011830083CF010E94CA141092640461E0CC
:10325000C7010E94D10E8C01D70115968C91811562
:1032600009F4BEC0C80197578038910508F0EAC03C
:10327000D02EB0E10B1708F017C18FEF93E00E943A
:103280003734811111C10CE911E0D11039C054E07B
:10329000652E9E012F5F3F4F5901D501E62D1D92EE
:1032A000EA95E9F74801FFEF8F1A9F0AC8010E94CB
:1032B00037348983811509F4F7C0813009F08AC059
:1032C000680122E0C20ED11CC4010E943734782E5E
:1032D0008A83811509F4E8C08FEF870D8330F0F4FD
:1032E000C6010E9437348B83811519F0C5010E94F5
:1032F00047180D5F1F4F680171C0E0E0F0E09DCFFF
:103300000115E4E01E0709F4CFC0C8010E9437345C
:103310000F5F1F4F8111F4CFDA94B7CF8BEF870D7A
:10332000833060F5480143E0840E911CC6010E9481
:1033300037348B83811509F450C00C5F1F4F68012F
:10334000C4010E9437348C83811509F447C08B81F6
:103350009C818130AFEF9A0710F0982F8827B6E054
:103360007B1631F0E7E07E1631F00E94892836C0E6
:103370000E94412833C00E94652830C0F4E07F12CB
:103380002DC0C6010E943734982E680124E0C20E79
:10339000D11CC80103960E943734282F911409F4D8
:1033A00083C0811509F480C02150330B4FEF429F39
:1033B000C001439F900D1124492D4150550B840F9E
:1033C000951F019758F0AFE9BFE01197F1F700C0E2
:1033D0000000F7CFC5010E944718640186015DCF48
:1033E0006801E7E5DE1AC114F1E0DF0658F56BE38A
:1033F00073E08C2D0E94E016892B21F5C60134E084
:10340000880F991F3A95E1F7FC01E653FC4F2281A2
:103410002130A1F520913B0330913C03232B91F007
:1034200020913D0330913E03232B61F020913F0317
:10343000309140034091410350914203242B352B9E
:10344000232B21F1D70115962C90211409F441C0AA
:103450000E35BCE71B0729F10F35ECE71E0741F0DD
:103460000D35FCE71F07A9F5809118018115C9F0FA
:103470001092180180E00E94F11416C0223011F75A
:1034800020913F0330914003232BE1F2FC01E153F3
:10349000FC4F20812E7F208386539C4F0E94CA14AC
:1034A000D1CF81E0809318018091650487708115E8
:1034B00061F0D70115968C91811539F080913E0508
:1034C00082FF03C082E00E9409042F96E2E10C947F
:1034D000E63380911801811148C0C80197558115C4
:1034E000914008F0DEC05801F8EFAF22BB24A114D0
:1034F000B104D1F6F801FF2794E0EE0FFF1F9A9573
:10350000E1F79F0126533C4F6901D70115968C9135
:10351000E153FC4F908180FB90F99083811509F471
:10352000FEC10E94370990934D0480934C04F6012C
:1035300082818F5F82838091640490916104892BE2
:10354000838380915F048483468157816685778574
:10355000C6010E947608D60115968C9181FF58010C
:10356000B0924B04A0924A049CC0280130EE431A4A
:1035700051083090600480916104382A80915F0482
:10358000382A48E04416510408F05EC098012770BC
:10359000332781E090E001C0880F2A95EAF72114D3
:1035A00009F44FC0382AD7018D919C910E94C30322
:1035B00021E030E0F90102C0EE0FFF1F8A95E2F72B
:1035C000FF87EE872091C0033091C1033987288798
:1035D0004091C8035091C9035D874C8727E4C22EF0
:1035E00023E0D22EA12CB12C311005C0D6011296A9
:1035F0008C9181111BC0F601838190E02E853F855F
:1036000082239323892B91F08085982F97709111B5
:1036100001C087E038E04316510408F0A8C0211427
:1036200009F4A1C0869581708111A6C0EFEFAE1A92
:10363000BE0AFFE0CF0ED11C28E0A216B104A1F60D
:103640001CC080953822AFCF21107AC08091C8036A
:103650009091C9030817190781F41092C9031092B9
:10366000C8031092C4031092C5031092C6031092AF
:10367000C7031092C3031092C2038091C0039091BC
:10368000C103009709F429CF38E04316510408F02C
:1036900030C1632D0E94B507811103C081E00E94F3
:1036A000F1148091340580FFAAC10E9437093C01C2
:1036B000F7018581811509F4B4C18091190182FF58
:1036C00006C040E0B30180E090E00E941C14043189
:1036D000FCE71F0709F4A1C105312CE7120709F423
:1036E0003BC103313CE7130709F47CC1C801905288
:1036F0008115904308F03AC1109251041092500481
:10370000F7019581911509F40DC310925B0498019E
:1037100030572332310508F005C384E090E00E9461
:103720003F3490933E0580933D05F801E150F0470A
:10373000E232F10508F03CC2E055FB4C0C94BD337D
:103740001093C9030093C8030E94CB0A6093C4037B
:103750007093C5038093C6039093C7031092C3036D
:103760001092C20320CF82FB882780F95DCF2114FD
:1037700009F45CCF80FF5ACFD6018D909C9008153C
:10378000190519F4211409F451CFE885F985EC15D0
:10379000FD0509F44BCFD6011D96ED91FC913097B4
:1037A00021F08081811509F441CF632DC6010E946B
:1037B000B507811509F43ACF81E00815190509F01C
:1037C00080E082218F838114910441F0811106C031
:1037D000EC85FD858E169F0609F028CF80E00E94BB
:1037E000F114D092C103C092C00381E08093BF0363
:1037F0008FE08A9DF0018B9DF00D1124E95BFC4F59
:103800008581809346032F8121110EC0811491047C
:1038100059F0808191819C0124503109213A310570
:1038200008F049C00E9408098FE08A9DF0018B9D35
:10383000F00D1124E95BFC4FC680D780C6019A9534
:1038400081159F4110F440EED42299249394C6012F
:1038500001978F339E4708F0912C8FE08A9DD0010D
:103860008B9DB00D1124A95BBC4F1996ED91FC9175
:103870001A97309731F01B966D917C9181E00995F4
:1038800098229114A9F08FE08A9DF0018B9DF00D94
:103890001124E95BFC4F868197810E94D8028093B6
:1038A000450388E04816510448F4C6010E94D70A2F
:1038B0000E94FC0E0BC00E940510B6CFC6010497F3
:1038C000813A910550F48C2D0E94D408BF81B11526
:1038D00009F403CE0E94FC0EE7CD0E94FC0EAFE37C
:1038E000BCE91197F1F700C000008C2D0E94710F08
:1038F000EDCFDC012D913C910217130741F421100B
:1039000009C01092BF0380E00E94F114E6CD21149B
:1039100009F4E3CDFC01808585FDDFCDF4CFF9010D
:103920004485558566857785C9010E947608D6014C
:1039300015968C9181FFB5CEC6010E94AD14809181
:103940004A0490914B040817190709F0AACE109267
:103950004B0410924A04A5CE90911901892F8E7FB5
:1039600090FF8160809319010E94FD1380911901DD
:1039700080FF45C00832110508F069C00E311105FD
:1039800008F076C0C80104974A9788F580913405FD
:1039900084FD2DC0D70115968C91811509F4D6C0F0
:1039A00080915F0490916104892B8D7F811509F4CA
:1039B00064C010925104109250048091340581FD2E
:1039C0005CC060E0C8010E94520760E0C8010E942C
:1039D000F30F80915F048D7F0E94CA0982E00E94EC
:1039E000090462CD80911901816080931901F7016A
:1039F0008581811521F01092510410925004D70155
:103A000015968C91F801E851FC47E730F10508F074
:103A100077CEEE52FB4C0C94BD33809119018E7F12
:103A2000A1CF809119018F7E013E110531F0053E35
:103A3000110531F4809119018F7D8093190196CF82
:103A4000C80190528115904308F090CF59CE0933A8
:103A5000110558F40D32110518F40B32110539F621
:103A60008091340582FDC3CF95CF04361105F7CF81
:103A70008091340583FDBBCF8DCF89E0F701A2E5AE
:103A8000B4E001900D928A95E1F7109255041092DE
:103A90005404809150049091510408171907C9F5F6
:103AA0002091340525FF35C03091190131FF02C046
:103AB00026FF2FC020914E0430914F046301C21A9B
:103AC000D30A0E94F516C816D90618F5809161042C
:103AD00081FF08C08091190180618093190182E003
:103AE0000E942B048091610485FF08C08091190118
:103AF00080628093190180E20E942B046091190179
:103B00006695617080915004909151040E94F30F6A
:103B1000CBCC80915F04D0906104D82AD1FADD2407
:103B2000D0F88D7F0E94CA0910935104009350046D
:103B300070924F0460924E04DD0C6894D2F890911C
:103B40001901997FD92AD092190148CF40E0B301D9
:103B5000C8010E941C14A8CC06E221EE41EE6AE1E5
:103B60007CE70E941317A0CC07E225EE45EE6BE13F
:103B70007CE7F7CF06E221EE40EE68E17CE7F1CF8B
:103B800007E225EE44EE69E17CE7EBCF06E221EEA9
:103B900042EE6CE17CE7E5CF07E225EE46EE6DE113
:103BA0007CE7DFCF08E221E045EE6EE17CE7D9CF8C
:103BB00080913D05816080933D0560913D05709148
:103BC0003E0584E090E00E9473340E9475106CCC36
:103BD00080913E05886080933E05EFCF80913D0542
:103BE0008260E9CF80913D058460E5CF80913D05FD
:103BF0008860E1CF80913E058160EDCF80913E05E8
:103C00008260E9CF80913D058061D5CF80913D05EF
:103C10008062D1CF80913D058064CDCF0E94751028
:103C200080913D058068C7CF80913D058C60C3CFF2
:103C300080913E058360CFCF80913D058E7FBBCFC5
:103C400080913E05877FC7CF80913D058D7FB3CFA3
:103C500080913D058B7FAFCF80913D05877FABCFB6
:103C600080913E058E7FB7CF80913E058D7FB3CF8B
:103C700080913D058F7E9FCF80913D058F7D9BCFAD
:103C800080913D058F7B97CF0E94751080913D05F7
:103C90008F7791CF80913D05837F8DCF80913E05B9
:103CA0008C7F99CF80913D05992782FF939590FB5A
:103CB00082F990FB83F97FCF80913E05982F9095F4
:103CC00090FB80F990FB81F986CF90913D05892F7B
:103CD0008F7B96FF80646FCF0E94751090913D0599
:103CE000892F97FB87F9805866CF61E08EE090E0DE
:103CF0000E94553462CF60E0F9CF90913D05892F45
:103D00008F7E94FF806157CF90913D05892F8E7FE4
:103D100090FF816050CF90913E05892F877F93FF60
:103D2000886059CF0631FCE71F07C1F58091610417
:103D30003091330530FF04C0282F2474211122C094
:103D4000282F2A7A31FF04C0482F4171411120E009
:103D500032FF04C0482F4878411120E033FF03C0F0
:103D60008272811120E0911579F081E0211101C06A
:103D700080E080935C0485E3211101C089E20E9408
:103D8000D408A8CD20E0DECF80915C04811521F01D
:103D900085E30E9408099ECD89E2FBCF07372CE717
:103DA0001207F9F008373CE7130731F19801205E5C
:103DB00032452032310528F591113BC00F7181E069
:103DC00090E0AC0102C0440F551F0A95E2F78A014A
:103DD000642F83E090E00E945534802F0E943003CE
:103DE00063CB81E0911551F00E94360343E062E01D
:103DF00081E00E94DE0358CB82E0F4CF0E944203B0
:103E0000F5CF9115B1F00A355CE7150709F483C0C9
:103E100008F05AC001309CE7190709F47AC0033052
:103E2000ACE71A0709F46FC00115BCE71B0709F4DA
:103E30005DC0F70187819085009709F470C00E94EA
:103E40002E05182FD92E86E0F701DE01119601907C
:103E50000D928A95E1F7F701C580968092948FE0E4
:103E60009822809165048770811501F18C2CC11412
:103E7000F1F0892F807F803461F080E2810F8830FB
:103E8000A8F0892F807E803221F4123078F09114CE
:103E900069F080913E0582FF09C082E00E9409041A
:103EA000809165048770882483948111812C8D2DE5
:103EB00082958F70A82EB12C8C3008F061C0F5016E
:103EC000E752FB4C0C94BD330B35ECE71E0729F190
:103ED00080913E05002482FF0394802D0C35FCE781
:103EE0001F0709F0A6CF0E94F20CA3CF0E94751005
:103EF0002FEF34E34CE0215030404040E1F700C068
:103F000000000E941A0B6FEF7FEF80E090E00E94AC
:103F100073340E94A61081E0E6CF80E0E4CF858173
:103F2000C080D180811569F0C6010E94650E182FEE
:103F3000682FC6010E94A803B601812F0E94370E88
:103F40007ECFC6010E94C303182FF6CF0D2D0F7030
:103F5000F0E1DF1610F00295007FC11409F44AC0A9
:103F6000011559F080E2810F883010F011113CC02A
:103F7000802F0E9425040E94FC0E812F0E94710F49
:103F800028E0A21AB10834E0A316B10418F40E9484
:103F90007B08812C812F9D2D0E940C03811541F0FF
:103FA000C11409F411C2911409F405C2109241051B
:103FB0008114A9F08091650480FD11C0F70115827C
:103FC0008695869586950E943603C7010E94F01853
:103FD000809165048695869586950E94420360E0EF
:103FE000C7010E94D10E71CA80916404802B809316
:103FF0006404C1CF812F0E940510011509F280E2EF
:10400000810F883010F0111104C0802F0E942B0402
:1040100006C00095809164048023809364040E940C
:10402000FC0EAECF0D2D0F708D2D807F803211F0E4
:104030000295007F111549F0113009F473C0C114C5
:1040400009F47FC09114D9F098CF80913E0582FD8C
:1040500012C0C11449F0011529F0802F0E942504D7
:104060000E94FC0E80E08ACF80E00E9405100115BE
:1040700009F486CFCACFC11491F1911004C0802FEA
:104080000E944E0F7DCF41E0941211C070905F04EA
:10409000802F8721081709F473CF0E943709909366
:1040A0005E0480935D04702A70925F0469CF8091F2
:1040B0003505823008F464CF981262CF802F0E94B9
:1040C0004E0F802F0E94B40980916004902F982396
:1040D000091709F455CF802B8093600451CF9110BC
:1040E00012C0802F0E945F0F802F0E94B409809120
:1040F0006004902F9823911509F442CF009508236E
:10410000009360043DCF80913505823008F438CFAC
:1041100051E0951235CF809161048023811509F417
:104120002FCFDFCF80913B05C11421F0891508F412
:1041300027CFA5CF981608F023CF802F0E945F0FBE
:104140001FCF9114D1F38091390590913A0519331D
:1041500021F080913705909138050E947E0C812FC7
:104160000E9405100DCF8D2D869586958370811543
:1041700069F0813009F004CF812F9D2D9370C1101B
:1041800002C080E090E00E94AE08FACE812F9D2D03
:104190009370C11002C080E090E00E948808F0CEC9
:1041A0006C2D812F0E94060AEBCE8D2D837081111C
:1041B00033C0C110E5CE412F429546954770440F5C
:1041C000440F812F8F70042E01C0880F0A94EAF7E4
:1041D000212F207114FF07C02FE030E001C0220F13
:1041E0004A95EAF720953D2D369536953370323055
:1041F00071F0333051F040911705313029F0822BA6
:1042000084230E943003BCCE842B822BFACF822BD6
:10421000909117058927F5CFC11459F1D0FEB0CE82
:10422000412F429546954770440F440F812F8F7060
:10423000042E01C0880F0A94EAF7212F207114FF81
:1042400007C02FE030E001C0220F4A95EAF7209521
:104250003D2D369536953370323089F0333069F024
:1042600040911805313041F0822B84230E943303A2
:1042700087CE8230A8F684CE842B822BF7CF822B78
:10428000909118058927F2CF0D2D0F70C11429F0D8
:10429000802F0E943603812FF3CE812F0E945F0F63
:1042A000802F0E9442036CCE123F71F160F4103FE8
:1042B000B9F0113F81F0C11409F478C091105DCEBE
:1042C0008D2D8F7125C0133F31F1143FA1F78091DF
:1042D0003E0582FD2CC08D2D8F71C11411F318C0C5
:1042E00080913B05C11461F0981608F049CE2D2D40
:1042F0002F7181E090E001C0880F2A95EAF7C0CFC6
:10430000891508F43DCEF3CF8D2D8F71C110C9CF23
:104310000E94360335CE80E0C11409F4A7CF81E0B6
:104320009D2D9F7101C0880F9A95EAF79FCF8091CC
:104330003505823048F1C114C9F090916504977039
:10434000943059F410926504109267041092660438
:104350008D2D8F710E9442031ACE63E0981608F0EB
:1043600016CE8D2D8F710E949C0911CE981640F0AB
:1043700010926504109267041092660464E0F1CF15
:1043800081E00E94090403CEC11431F063E08D2D59
:104390008F710E949C09F4CD81E00E94090482E0A3
:1043A000981608F4EDCD0E940904EACD9110CBCE09
:1043B0008D2D8F7176CF80916304809362048091FC
:1043C000610480936304F4CD40E060E089819A81C8
:1043D0000E94B30E8A879B8700916104911429F093
:1043E0001092410500936304E3CD80913F059091C5
:1043F0004005AA85BB85A817B907A1F780913605A6
:1044000083FFEECF80914105811551F380916204C5
:104410000E944E0F812F0E946810809162040E94BA
:104420005F0FDECFA0E0B0E0E8E1F2E20C94D5331C
:1044300080912903803108F049C0809128038115BB
:1044400009F444C0C091DA0289E0D82E8091D902E3
:104450008C17E1F1EC2EF12CDC9EE0011124FE0121
:10446000E552FD4F84818115B1F191818091240342
:10447000981331C090818091230398132CC08581BB
:10448000811129C002811381809125039091260317
:10449000081B190B60E083E293E00E94D10E0E949A
:1044A000F51608171907B8F4809129038F708061F9
:1044B00080932903CF51DD4F88818F70806188837D
:1044C00083E293E00E94F0180E94FF03CDB7DEB7AD
:1044D000E7E00C94F133E7012196C770B7CFAFE066
:1044E000B0E0E5E7F2E20C94CD338C0186E0F80110
:1044F000DE011A9601900D928A95E1F7D801159682
:104500006C90159714965C9083E2A82E83E0B82EE9
:1045100080912703811118C0511499F0611409F496
:10452000CBC1C8010E949F0E811509F4C5C189E065
:10453000F801A3E2B3E001900D928A95E1F70E94A1
:104540001222FF24F39451C0F801C0807180E280F0
:10455000F38060E083E293E00E94D10ED0902803C4
:1045600080912503909126034701881A990A60E0FB
:1045700083E293E0D11409F444C10E94D10E0E9459
:10458000F5168816990608F0F7C05114D1F28091FB
:104590002403D80111969C91B0902903B0E1BB1679
:1045A00008F0A1C0F62C981325C090912303F801C0
:1045B000808198131FC020912A0330912B0387819B
:1045C000908528173907B1F4611078C08B2D8F7052
:1045D00080618093290383E293E00E94F018809128
:1045E0002903D80116968C93F12C8F2D2F96EFE08E
:1045F0000C94E933611062C0E091DA028091D90233
:10460000AE2F99E0A81302C099E02AC02A2F30E00B
:104610009A9FD0011124A552BD4F11964C9111972C
:10462000741207C04C91C41204C015964C914111EC
:104630004DC1D9011196A770E5CF2E2F30E09E9F76
:10464000F0011124E552FD4F4181741206C04081F2
:10465000C41203C045814111C7CFF9013196E770FB
:104660008E13EBCF8A859B850E94900E292F229571
:104670002F70903448F02A5F2F702230C8F0C801A4
:104680000E94F018FD2CB1CF9F70223038F09115A8
:1046900051F0F8019681903130F4A7CF911519F0BF
:1046A000811509F4A2CF805E883008F49ECFE7CF51
:1046B000803F08F49ACF815F8330F7CF8091290340
:1046C0008160809329038091360581FD8DCF83E23F
:1046D00093E00E94F01889E0E3E2F3E0DF011D922D
:1046E0008A95E9F781CF981321C090912303D801CF
:1046F0008C9198131BC020912A0330912B0317969D
:104700008D919C9118972817390781F461100EC07C
:104710001696BC92C8010E94F01889E0F801A3E245
:10472000B3E001900D928A95E1F70BCFC8010E948A
:104730009F0E811509F4C0C0611409F4BDC08091B9
:104740002903803208F4F3CE80912303909124034F
:104750009A838983FC82EB82809127038D831E825A
:10476000BF8280912A0390912B0399878887CE017D
:1047700001960E94F018DBCED0902903B0E1DB1641
:1047800008F4A5CF511409F4DCCE90912403F8016C
:10479000818198131AC0909123038081981315C0CA
:1047A00020912A0330912B038781908528173907A0
:1047B00061F461100AC0D682C8010E94F01889E035
:1047C000D5011D928A95E9F7BCCEC8010E949F0EC3
:1047D000811509F471C0611409F46EC08091290338
:1047E000803208F4A4CE80912303909124039A830D
:1047F0008983FC82EB82809127038D831E82DF8276
:10480000B0CF0E94D10E0E94F5168816990608F0C6
:1048100057C0511409F495CE611409F44DC090911C
:104820002403F801818198133DC090912303808176
:10483000981338C020912A0330912B0387819085EB
:104840002817390779F5C0902503D090260360E03A
:1048500083E293E00E94D10E8091360582FD5DCF08
:10486000EC18FD088091310590913205E816F906A3
:1048700008F053CF8091290380FD4FCF803108F499
:104880004CCFD80116968C931697982F907F903F17
:1048900009F440CF982F907F905F8F70892B1696E8
:1048A0008C9338CFC8010E949F0E811140CE809119
:1048B0002903816080932903C8010E94F01841CE2A
:1048C00089E0F50111928A95E9F78ECE909136052F
:1048D00090FF9ACEFCCEA2E1B0E0E1E7F4E20C94C6
:1048E000D8330A871B872C873D874E875F87688B65
:1048F000798B8A8BCE010A960E946F22811128C083
:104900002091D9023091DA0289E0FE013A96DE0167
:10491000119601900D928A95E1F78E858115C1F06F
:10492000822F90E001968770992738171906D9F0E1
:1049300099E0929FD0011124A552BD4FFE013196FE
:1049400001900D929A95E1F78093D9020E94FF039E
:1049500019E08091DA029091D902891312C062960F
:10496000E4E00C94F4330E9475101092D902109276
:10497000DA0289E0E3E2F3E0DF011D928A95E9F7CC
:10498000E7CF189FC001112485529D4F0E946F22CE
:10499000811529F38091DA0290E0019687709927BA
:1049A0008093DA02D6CFEF92FF920F931F93CF93AB
:1049B000DF9380911405E0910402CDE0811131C0B4
:1049C000CDB7DEB7E6E00C94F233D1E0DE0FD09342
:1049D0000402EE2EF12CCE9FF0011124E455FB4F82
:1049E00084818115E9F087819085892B21F4818567
:1049F0009285019659F4008111812281338144818D
:104A000055816681778180850E946B24CE9DF0015F
:104A1000CF9DF00D1124E455FB4F148210926404D5
:104A2000ED2F80911405E81780F210921405109272
:104A30000402C6CFA4E0B0E0E0E2F5E20C94CB3390
:104A40002091AB04298397E0992EEE24E394F12C76
:104A50003DE0332E44E0542E662463948091AA04F2
:104A60009981891308C00E94D3240E947807249654
:104A7000E1E10C94E7337981672F70E07C836B83ED
:104A8000FB01EE0FFF1FE056FB4F80819181989E46
:104A9000D001999EB00D1124FD01E859FB4FFA8316
:104AA000E983248121115BC070901405ECEAF4E0E5
:104AB00040E050E0812C471508F04FC0A384B48437
:104AC000A981BA81CD90DC900FEF1FEF412C242DEE
:104AD00030E0B601640D711D640D711DDB016D9137
:104AE0007C916115710539F0A616B70609F0980199
:104AF00043948901ECCF0F3F1007D1F1B701002E8D
:104B000001C0660F0A94EAF7862AB701042C02C096
:104B1000660F771F0A94E2F79B0121503109821634
:104B2000130629F5349EF001359EF00D1124E4554D
:104B3000FB4F989ED001999EB00D1124A859BB4FF0
:104B400012962D913C9113973087278354821082BF
:104B500011829287818715966C920E9489078B81BA
:104B60009C8101969A8389838370898377CF14828D
:104B70004F5F5F4F3D969FCF10921605109215051F
:104B800010921A018091AA048093AB040E947807C6
:104B90000E94D3240895AEE1B0E0E1EDF5E20C947B
:104BA000CA334B8B5C8B6D8B7E8B8F8B692F988F71
:104BB000192F811509F475C040E08B899C890E94EA
:104BC000B30E7C01111549F01092410590934005F8
:104BD00080933F05109264040AC080913F05909134
:104BE00040058E159F0519F481E080934105188AD0
:104BF000198A1A8A86E0FE017396DE011A960190E0
:104C00000D928A95E1F780913E0582FF21C0809147
:104C10001B0590911C05892BD9F00E943709209122
:104C2000660430916704821B930B20911B05309121
:104C30001C058217930738F08091650482FD03C03C
:104C400082E00E9409040E94430981110E943304FA
:104C50008E858115D1F061E0CE010A960E94D10EB9
:104C600061E0CE010A960E94D10E61E0CE010A9663
:104C70000E94D10E6C0180352CE79207B1F48F852C
:104C8000811541F181E080931A010A851B852C85ED
:104C90003D854E855F85688979898A890E946B2464
:104CA000D6C0911509F4A3CF95CF81354CE7940771
:104CB00031F48F85811571F00E94BC25E6CF8235D5
:104CC0009C4741F48F85811529F080911A0181114B
:104CD000F3CFD8CFE8E6EE2EE4E0FE2E512CA12C47
:104CE000B12C4F84D7016D917C9122242A943324D6
:104CF0003A9480E0282F30E0FB01E80FF11DE80F27
:104D0000F11D408151814115510539F0C416D50678
:104D100009F091018F5F1901EDCF10E0BFEF2B1665
:104D20003B0609F452C0F701448110911A01411168
:104D300010E0D70115967C90159716962C91169732
:104D4000411409F409C1111509F406C180902F0519
:104D500090903005711015C041E050E0022C01C068
:104D6000440F0A94EAF7242B16962C932091A8045A
:104D70003091A9042815390520F49092A904809255
:104D8000A80421E030E0F90102C0EE0FFF1F8A9570
:104D9000E2F7CF010197D70116962C912817190633
:104DA000A1F460901505709016056114710409F462
:104DB00052C00E943709861997098816990608F08B
:104DC0004AC081E0F701848311E0512AFFEFAF1A56
:104DD000BF0A27E0E20EF11C48E0A416B10409F076
:104DE00080CF411409F414C1511409F411C10E9477
:104DF0003709909316058093150580911405883026
:104E000030F591E0980F9093140599E0FE013A96E1
:104E1000DE01119601900D929A95E1F75DE0859F74
:104E2000C001112484559B4F29E0FE013196DC011D
:104E300001900D922A95E1F72FEF3FEFDC011A96D2
:104E40003C932E9319971C96DC92CE921B976E96EC
:104E5000E2E10C94E6332091AB048091AA04922FF6
:104E6000E0E0F0E037E061E0281709F448C0422FA5
:104E700050E0DA01AA0FBB1FA056BB4F8D909C904B
:104E80009A8E898E389DD001399DB00D1124A85974
:104E9000BB4F8D909C909E8E8D8E812C70E0912CBE
:104EA000AD8DBE8DA90DB11DA90DB11D6D907C906C
:104EB00061147104E1F0D7010D90BC91A02DBC8F5D
:104EC000AB8F70E007C001E06A167B0609F000E0D6
:104ED000802A7F5FAB8DBC8DA70FB11DA70FB11DC1
:104EE0000D90BC91A02D109771F79394D9CF811498
:104EF00081F17915C0F421E0F7012483F701909343
:104F0000AB04EE15FF0509F460CF90E0FC01EE0F55
:104F1000FF1FE056FB4FB182A08201968370992754
:104F20008093AA0452CF898C9A8C389DF001399DC8
:104F3000F00D1124E859FB4F6483EE15FF05F1F2E3
:104F4000291302C09F5F93704F5F5F4F242F237020
:104F50008BCFE0E0F0E0F8CF30E0711021C061E0ED
:104F600070E002C0660F771F8A95E2F7CB010197C8
:104F70002817390779F010E081E090E0022C01C099
:104F8000880F0A94EAF7982F9095F7018681892374
:104F900086831BCF411581F3C5010E948907EBCFA2
:104FA000A901022C02C0559547950A94E2F7C90160
:104FB000019782239323892B41F540FF26C0D70117
:104FC00012968D919C91892BD9F087E0FE01319644
:104FD000DF011D928A95E9F70E9437099C018B83B6
:104FE0009C8384E08D83F70192818381792F988758
:104FF000898709811A8144E05E816F810E946B2458
:10500000D70115961C92172DB7CF142F1170B4CF5E
:105010009091AB048091AA04981739F00E941A2548
:10502000B1E05B1609F413CF30CE0E94D324109266
:105030001605109215050E947807F2CFA6E0B0E0A1
:10504000E4E2F8E20C94D8330E9437098C01809195
:10505000AD029091AE028017910779F019821A8201
:105060000E943709BC0149815A8180E090E00E948A
:10507000CB251093AE020093AD022696E4E00C948B
:10508000F433A6E0B0E0E7E4F8E20C94DA339C01F4
:105090009093AA028093A902211580E2380738F480
:1050A000C9010E94DD0F2696E2E00C94F63380EFF2
:1050B00089838A830E9437098160BC0149815A81B2
:1050C00081E091E00E94CB25EECFA6E0B0E0EBE6D8
:1050D000F8E20C94DA339C019093AA028093A9021F
:1050E000211580E2380738F4C9010E94381026964D
:1050F000E2E00C94F63380EF89838A830E943709BB
:105100008160BC0149815A8181E090E00E94CB25F9
:10511000EECFCF93DF93D82FC92F0E9441288091E3
:105120003705909138050E947E0C8D2F9C2F0E9490
:105130006528DF91CF9108950F931F93CF93DF934D
:105140008C01862F6BE373E00E94E016892BA9F493
:10515000C0913B03D0913C03209779F0F801828104
:10516000833051F4CE010E948928CE010E94892803
:10517000CE010E94892801C0D8F7DF91CF911F91FD
:105180000F9108950F931F93CF93DF938C01EB0141
:105190006BE373E08C2F0E94E016892B09F05AC054
:1051A000FE01FF27D80112968C911297EA58FD4F05
:1051B0008130A9F415968C9182FD51C080FF4FC0BB
:1051C00082E0808380913D0390913E030097B9F483
:1051D00080913B0390913C030097E1F110C0823035
:1051E000B9F515968C9182FD28C080FD0BC083E037
:1051F000808380913F0390914003009701F10E94CA
:10520000412828C084E0808380914103909142032B
:105210000097A9F780913B0390913C03009711F10F
:105220000E94892880913D0390913E03009739F7B1
:1052300080913B0390913C03E2CF85E08083809195
:105240003B0390913C03009729F00E948928F0CFFE
:1052500086E08083DF91CF911F910F91089581E0C7
:105260008083B6CF80913D0390913E03B5CF0F93DD
:105270001F93CF93DF938C01EB016BE373E08C2FD3
:105280000E94E016892BA1F4809137059091380592
:105290000E947E0CDD27CA58DD4F8881F8011282FA
:1052A00018828330F1F048F4813059F0823081F077
:1052B000DF91CF911F910F9108958430B9F085301F
:1052C000B9F780913B0390913C03009789F306C0A6
:1052D00080913D0390913E03009799F30E946528C9
:1052E000E7CF80913F0390914003F6CF8091410337
:1052F00090914203009791F720913B0330913C033A
:1053000080913D0390913E0321153105F1F2009704
:1053100029F7C901E3CFCDB7DEB7E6970FB6F8940A
:10532000DEBF0FBECDBF85B7806885BF85B78068FB
:1053300085BF84B7877F84BF0FB6F894A895809106
:105340006000886180936000109260000FBE80E86A
:1053500090E00FB6F89480936100909361000FBEC7
:1053600081E08093170181E396E09093BB018093E5
:10537000BA010E945B060E941D160E9461160E94DF
:10538000AA0D0E94D40B0E94230C8091E20084603D
:105390008093E20078948091A802811599F0809121
:1053A000E9001091EC008F70179511271795182BB5
:1053B0001092E9008091E80083FD0E942D111F707A
:1053C0001093E90082E084BD93E095BD9AEF97BD0C
:1053D00080936E000E94E30E811102C00E940D16A0
:1053E000E2E9F2E088E0DF011D928A95E9F782E0C8
:1053F0008093910260E080E00E94120761E080E00B
:105400000E94120760E081E00E94120761E081E0E3
:105410000E941207EFE8F1E03197F1F700C00000B9
:1054200010E080919102181708F4AFC087E90E943C
:10543000330686EC0E94330681E90E94330680E938
:105440000E94330684E90E94330686E60E943306F2
:105450001092A5021092A40210927F0210927E0276
:1054600080E090E00E943F34853E9E4F21F40E94F0
:10547000E30E811163C065EE7EEF80E090E00E9454
:10548000733460E082E090E00E94553481E08093C4
:10549000170561E083E090E00E94553460E074E11C
:1054A00084E090E00E94733460E086E090E00E9427
:1054B000553460E087E090E00E94553440E050E0D1
:1054C000BA0188E090E00E94673460E083E290E0F7
:1054D0000E94553460E08CE090E00E94553460E01A
:1054E0008DE090E00E94553419821A821B821C8242
:1054F0001D821E821F82188648E050E067E170E03E
:10550000CE0101960E94453440E050E0BA018FE19F
:1055100090E00E94673480E00E94720D0E940D1698
:1055200040E050E0BA018FE090E00E94673440E034
:1055300050E0BA0183E190E00E94673482E090E09D
:105540000E9437348093820284E090E00E943F34CE
:1055500090933E0580933D050E94A7172FEF36E7F5
:1055600041E0215030404040E1F700C000000E947F
:10557000A7178091A40280FF1AC06FEF7FEF80E031
:1055800090E00E9473340E941A0B60E0812F0E9409
:105590003507082F61E0812F0E943507E12FF0E0E9
:1055A000E157FD4F880F802B80831F5F3ACF83E048
:1055B00090E00E9437340E94300384E091E09093A1
:1055C000D0028093CF028091A802853049F4809167
:1055D000A802853009F4D3C00E9475100E947B0890
:1055E0000E94A7179091A40280918302981316C17C
:1055F0009091A50280918402981310C10E941E28E8
:105600000091C2031091C3030115110591F180901F
:10561000890290908A02A0908B02B0908C020E9426
:10562000CB0A681979098A099B09809085029090B4
:105630008602A0908702B0908802681579058A05D5
:105640009B05B8F0C8010E94DD0F1092C3031092B1
:10565000C2031092890210928A0210928B02109259
:105660008C0210928502109286021092870210928C
:105670008802E0904A04F0904B04E114F10439F1FF
:10568000A0904C04B0904D040E9437098C010A1977
:105690001B09C7010E94F51680179107C0F42091DD
:1056A0004A0430914B04C9019927287F3327232BC3
:1056B00009F0F2C074E0880F991F7A95E1F78653DC
:1056C0009C4FDC0115962C9122FF0E94CA148091F8
:1056D0001A01811519F10091150510911605011592
:1056E0001105E1F00E943709801B910B2091A8045D
:1056F0003091A9042817390788F49091AB04809160
:10570000AA04981709F4CBC00E941A251092A90484
:105710001092A80410921605109215058091340578
:1057200080FF1DC08091190182FF19C00E943709B6
:105730002C0180914E0490914F049201281B390B4B
:1057400080910E0190910F012817390740F041E038
:10575000B20180915004909151040E941C148091D8
:105760009A02811551F08091940210929A028093CE
:105770009502809192028093930200E0E4C08091B0
:10578000A802843021F11092800288E190E0A0E428
:105790000FB6F894A895809360000FBEA0936000A8
:1057A00083B7817F846083BF83B7816083BF789430
:1057B000889583B78E7F83BF0FB6F894A8958091A4
:1057C0006000886180936000109260000FBE0E94AC
:1057D000A7178091A5029091A402892B811509F445
:1057E000F6CE80918102811509F4F1CEB0E1B9BD08
:1057F000E2E1E9BD09B400FEFDCF8091D8008F7DC4
:105800008093D8008091E00082608093E0008091D6
:10581000E00081FDFCCF0E947510D9CEE4EAEE2EA7
:10582000E2E0FE2E03E812E0812CD701BD907D015D
:10583000F80181918F018B1531F1782E7B24A12CF9
:1058400099249394872D89218115B1F0A9828A82A8
:105850000E9437099C838B83F1E0FD8391E08B2DBF
:105860008921811101C090E09E8349815A816B8119
:105870007C818D810E94CB25A394990C24E0A212F7
:10588000E1CFF801B29281E0880D882483948230C0
:1058900061F60E94CB0AB4CE80E090E012CF0E9465
:1058A000D32410921605109215050E94780736CF62
:1058B00061E0802F0E943507F82E60E0802F0E9463
:1058C0003507FF0CF82A202F30E0D901A157BD4F32
:1058D000EC918E2F8370F816A9F1EE0FEE0FEF29E1
:1058E000EC93EF70F0E0E35CFE4F23573D4F808177
:1058F000F9019081890F808384300CF454C0412FCA
:1059000050E0BA016F5F7F4F63707727E616170686
:1059100081F04E565D4F902F9F77DA0114969C933D
:105920001F5F137010939402909192029F5F909367
:105930009202082E000C990B64E070E00E94A933DB
:10594000D9018C930F5FE0909502109194028091A1
:105950009102081708F4ACCF90E05CEFF52E6DEFE4
:10596000E62E8091950220919402281709F455C0E3
:10597000E82FF0E0EA56FD4F908197FBBB24B0F88A
:10598000092F0F778F5F8370809395028091930228
:105990008F5F8093930297FD1AC00BA7FCA60E940D
:1059A000370913E019C08D3F24F6412F50E0BA01AA
:1059B0006F5F7F4F63707727E616170609F4B9CF3C
:1059C0004E565D4F902F9068FA019483A9CF0BA794
:1059D000ECA60E94370912E0BC018DA79EA71FA765
:1059E000B1E0B8AB4BA55CA5812F91E00E94CB251F
:1059F00009ABB11481F0EAAA0E943709BC018BAB54
:105A00009CAB1DAB1EAA49A95AA9812F90E00E9408
:105A1000CB2591E0A6CFFAAAEFCF91110E94CB0A35
:105A200086E0E5E3F3E0DE01119601900D928A95A0
:105A3000E1F790903603B0903703E0903803A090E0
:105A40003903F0903A031092370310923803109202
:105A5000390310923A038B2D8E29811509F44CC01D
:105A600000919D0210919E020E9437099C01201B0B
:105A7000310B909133039115B1F18091130182178D
:105A80001306D0F59F3F19F09F5F90933303B11435
:105A900059F00E94E40791E01B140CF09FEF899FDE
:105AA000802D112480933703E11459F00E94E407FC
:105AB00091E01E140CF09FEF899F802D112480939C
:105AC0003803809137038115B9F01091380311150F
:105AD00099F00E94D60780933703812F0E94D60742
