:1000000033C200004EC200004CC200004AC20000D1
:1000100048C2000046C2000044C2000042C20000C4
:1000200040C200003EC200000C9487200C946F2157
:100030000C94A60D36C2000034C2000032C200008B
:1000400030C200002EC200002CC200002AC20000F4
:1000500028C200000C94632024C2000022C20000C9
:1000600020C200001EC200001CC200001AC2000014
:1000700018C2000016C2000014C2000012C2000024
:1000800010C200000EC200000CC200000AC2000034
:100090000C94602306C2000004C2000002C20000EB
:1000A00000C20000FEC10000FCC100000501090201
:1000B000A10185020901A1000509190129081500FE
:1000C0002501950875018102050109300931158165
:1000D000257F95027508810609381581257F9501D0
:1000E00075088106050C0A38021581257F95017572
:1000F000088106C0C005010980A101850319012AF4
:10010000B700150126B700950175108100C0050CD8
:100110000901A101850419012AA002150126A002E6
:10012000950175108100C005010906A1018506052C
:100130000719E029E71500250195087501810205D9
:1001400007190029EF1500250195F07501810205B9
:10015000081901290595057501910295017503910D
:1001600001C00660FF0961A1010962150026FF00B8
:100170009520750881020963150026FF00952075FA
:10018000089102C005010906A101050719E029E748
:1001900015002501950875018102950175088101F9
:1001A0000507190029FF150026FF0095067508812F
:1001B000000508190129051500250195057501910E
:1001C00002950175039101C009025B00030100A0C3
:1001D000FA090400000103010100092111010001D5
:1001E00022440007058103080001090401000203FD
:1001F00000000009211101000122220007058203ED
:100200002000010705030320000109040200010387
:1002100000000009211101000122B6000705840336
:100220002000011201000200000008424606000002
:1002300001010200010E03620075006D005F0033D2
:1002400000360000000C0366006C00620075006D53
:100250000000000403090414001A00080015001728
:100260000004001600070009000A001D001B00061C
:10027000001900050000002900E30021522C001C99
:100280000018000C00120013000B000D000E000FF0
:10029000003300110010003600370038002800221B
:1002A000522A004C0000001E001F002000210022E6
:1002B000002B000000520000004B00E100500051F4
:1002C000004F004E00000001000100010029002342
:1002D0000024002500260027004A00500051004F4E
:1002E000004D00000000000000000000004C000174
:1002F000000100010000001E021F02200221022254
:10030000023A003B003C003D003E003F00400041FF
:10031000004200430000000100010001002B002307
:100320000224022502260227022D002E002F003073
:100330000031002D022E022F02300231022C00016A
:1003400000010001000000007C000000000000002F
:10035000000000000000000000000000000000009D
:100360000000000000000001000100010001000089
:100370000000000000000000000000AC00AE00AB78
:100380000000000000AA00A800A900000001000170
:1003900000010001000000D900DA00A900AA004F06
:1003A000005000AB00AC0052005100BD00BE004F39
:1003B000005000A900AA000000000000000000009A
:1003C000000000000000000000000000000000002D
:1003D00000000000000000000000007E0F00D4FFBD
:1003E000FFFFC70000007800000000000000002AA6
:1003F0002B280000000000000000000000000000AA
:10040000000029000000002C1E3420212224342664
:1004100027252E362D3738271E1F2021222324255D
:10042000263333362E37381F0405060708090A0B12
:100430000C0D0E0F101112131415161718191A1B84
:100440001C1D2F3130232D350405060708090A0B22
:100450000C0D0E0F101112131415161718191A1B64
:100460001C1D2F3130354C0011241FBECFEFDAE0B8
:10047000DEBFCDBF23E0A8EEB1E001C01D92A433E2
:10048000B207E1F711E0A0E0B1E0EEE6FAE402C065
:1004900005900D92A83EB107D9F70E946A1B0C94F3
:1004A000CE24AECD8093D7020895982F96709630C3
:1004B00021F488608093D8020895877FFBCF21E0E4
:1004C00001C0220F8A95EAF78091D802822BEDCFE6
:1004D00021E001C0220F8A95EAF7822F8095909142
:1004E000D8028923E2CFCF93C1E061FDC4E060FD73
:1004F000CC0F62FDC29593E0769567959A95E1F7EA
:100500009B01220F331F260F371F420F531FFA0183
:1005100040E050E090E06191DF019C01042E02C0B8
:10052000369527950A94E2F72695220B26272C2349
:1005300026272E934F5F5F4F4330510561F7CF91D0
:100540000895A82FA77023E0969587952A95E1F73F
:100550009C01220F331F820F931F680F791FFB012D
:1005600040E050E080E0219130E00A2E02C0369554
:1005700027950A94E2F72170042E01C0220F0A94F5
:10058000EAF7822B4F5F5F4F4330510561F70895C3
:10059000282F862F983068F4253050F4622F70E0B1
:1005A00025E0929F600D711D11244AEB52E09BCF14
:1005B00008959C5F9230E0F7622F70E047EB52E0C5
:1005C000F6CF292F983058F4853080F490E06AEB0C
:1005D00072E035E0239F800D911D1124B2CF2C5F76
:1005E000223020F467EB72E090E0F8CF80E00895CD
:1005F0009091D80221E030E0F90101C0EE0F8A9518
:10060000EAF7D90101C0AA0F6A95EAF7EA2B01C0FF
:10061000220F4A95EAF7892F8E23E81303C0892F0A
:10062000822B43CF2095822F8923FBCFE091DE02DE
:100630009091DD02E91302C080E008959F0157E028
:10064000E59FF0011124E152FD4F5181561306C080
:100650005081581303C05581541305C02F5F3F4F7D
:10066000F901E770E7CF81E008958091DE022091E3
:10067000DD02281301C0089501968770FACF90918A
:10068000D902809589238093D902282F277061F49D
:10069000891751F09091DB0292FF06C086958695EE
:1006A000869516DF1092D90208958091D402909118
:1006B000DC02892B9091D5029115C9F0892B90917C
:1006C0005201913021F49091DA0297FD11C096E029
:1006D0002CEE31E040E09150F90150812F5F3F4F07
:1006E00051114F5F9111F7CF41111092D50208952A
:1006F0009EE124EF31E0EECF8095982F8091D402D7
:1007000089238093D4020895803E9105D1F1C8F4E5
:100710008133910509F481C048F48932910509F4C7
:1007200071C08A32910509F47FC00895893391051B
:10073000E1F082389105C9F08533910509F45DC077
:100740000895843E9105D1F148F4823E910531F13E
:10075000833E910541F181EE90E00895863E91053A
:10076000C1F1873E9105F1F108952091DA022370DD
:1007700009F064C02091DB0223FF14C089E290E0FD
:1007800008952091DA0220FD45C03091DB0230FF50
:1007900009C024FD24C083EE90E008952091DA0280
:1007A00022FDF7CF08952091DA0222FD44C0309156
:1007B000DB0230FD43C024FFF5CF11C02091DB02E6
:1007C00021FFF0CF8091DA0284FD09C087EE90E02E
:1007D00008952091DA0223FFE5CF24FFF7CF80E0D0
:1007E00090E008952091DA0223FD2BC03091DB02C6
:1007F00031FFE1CF84EE90E008952091DA0225FFE9
:10080000D1CFBCCF2091DA0225FD1EC02091DB02A2
:1008100023FFC8CF89E390E008952091DA0226FFF4
:10082000C1CF8AE290E008952091DA0226FFBACF84
:1008300081E390E0089582EE90E0089580EE90E0EC
:10084000089586EE90E0089585E390E008959091F4
:10085000DA0292FF10C041E0282F2471243009F001
:1008600040E031E0282F2871283009F030E04317AC
:1008700011F02CE0822793FF10C041E0282F247153
:10088000243109F040E031E0282F2871283109F0A7
:1008900030E0431711F02CE082273091DB0230FF6B
:1008A00010C051E0282F2171213009F050E041E0C3
:1008B000282F2871283009F040E0541711F029E062
:1008C000822731FF10C041E0282F2171213109F02A
:1008D00040E031E0282F2871283109F030E043173B
:1008E00011F029E0822794FF02C083FD877E0895DE
:1008F0000F931F93CF93DF9307DFEC01D23508F0FE
:100900004DC0D03508F0C3C0C03ED10530F5CD3C58
:10091000D10508F09AC0C83AD10578F4C53AD10596
:1009200008F090C0C130D10599F1CE010497813A09
:10093000910570F1C0E0D0E02BC0CE01885A91093A
:100940004B97C0F7C85AD0E0CC0FDD1FC558DE4F1B
:100950000990D881C02DD4641BC0D03490F4D0321B
:1009600008F0A8C0C83ED10598F0CE0191509F3143
:1009700008F78D2F6CDF082F8C2F90E0C5DE902BB1
:1009800054C08C2F90E0C0DEDF70C82FD92BD06A06
:10099000CE01DF91CF911F910F910895C03882E56C
:1009A000D807B8F5C03682E5D80708F056C0C0347D
:1009B00082E5D807C8F4C03282E5D80708F047C0FE
:1009C0008C2F8695869520E2829FC0011124C370EA
:1009D00021E030E002C0220F331FCA95E2F7E9019F
:1009E000C82BD92BDD68D4CF8C2F86958695877040
:1009F00020E2829FC0011124C37021E030E002C0D8
:100A0000220F331FCA95E2F7E901C82BD92BDC6806
:100A1000BFCFC03C82E5D80750F48C2F8F71C03A0D
:100A2000D24580F5982F84EF906AEC01B1CFCE01CA
:100A3000805C9245809708F07DCFDC2FDF71C0EF9E
:100A4000D06AA6CFA497D064A3CFD065A1CF8C2FB6
:100A50008F71D82FC1EFD06A9BCF8C2F869586954A
:100A6000877020E2829FC0011124C37021E030E032
:100A700002C0220F331FCA95E2F7E901C82BD92B18
:100A8000DA6886CFE4DEC0E0D82FD06281CF8C2F29
:100A90008F71DDDE93E0CC0FDD1F9A95E1F7DF70FB
:100AA000282F84FF04C090E1899F90011124C22F58
:100AB000D0696ECF8D2F8F71CADE082F8C2F90E0FA
:100AC00023DE902BEC01E1CF80E00895F894E82F2D
:100AD000E295EF70F0E041A18F7021E001C0220F9C
:100AE0008A95EAF7922F9095942391A392A1822F51
:100AF000892B82A37894089581E08093520208950F
:100B000090916602292F30E070916702A901439508
:100B1000437050E07417150689F02C593D4F60FB67
:100B200087F9F90184839F5F9370909366028091A7
:100B300064028F5F8093640281E0089580E00895ED
:100B400090E06115D1F08F5F9E4FFC0180818F3F57
:100B500099F0E82FE295EF70F0E041A18F7021E06D
:100B600001C0220F8A95EAF7922F9095942391A3C2
:100B700092A1822F892B82A308958E5F9E4FE5CF8D
:100B800090E06115A9F08F5F9E4FFC0120812F3FFF
:100B900091F0E22FE295EF70E05EF0E0808190E06E
:100BA0002F7002C0959587952A95E2F78170089578
:100BB0008E5F9E4FEACF80E00895FC01680F791F99
:100BC0008FEF41E39191892728E030E0982F990F2A
:100BD00087FF09C0892F842721503040B9F7E617D5
:100BE000F70781F70895892FF7CF382F25EB3203C8
:100BF000C001112497FF04C080589109892F0895DE
:100C000080589F4FFBCF8091CB0280FD14C081FDA7
:100C100014C082FD16C08091CA02811581F08E3108
:100C200080F420E5829FC00111246EE170E00E94F3
:100C30004E24862F089584E1089588E2089588E07F
:100C4000089580E508958091CB0280FD17C081FD55
:100C500017C082FD19C08091C902811599F08832B0
:100C600098F428E0829FC001112468E270E00E949D
:100C70004E246115710551F0862F089562E0FCCF76
:100C800064E0FACF61E0F8CF68E0F6CF81E0089544
:100C900080918502811571F0E091AD02F091AE0274
:100CA000309739F00190F081E02D309711F00995DF
:100CB000089580E00895A3E0B0E0E1E6F6E00C944A
:100CC000272420912B0230912C0228173907B1F0EC
:100CD00080932B0290932C02E091AD02F091AE0232
:100CE000309761F00084F185E02D309739F023E0F2
:100CF00029838A839B83CE01019609952396E2E09E
:100D00000C944324A3E0B0E0E8E8F6E00C94272438
:100D10002091290230912A0228173907B1F08093D7
:100D2000290290932A02E091AD02F091AE02309731
:100D300061F00084F185E02D309739F024E02983BB
:100D40008A839B83CE01019609952396E2E00C9459
:100D5000432490915201913099F0ACEEB1E0EFEF65
:100D600090E02C91821759F01196EF3F19F4211160
:100D700001C0E92F9F5F9630A1F7EF3FC1F40895BE
:100D80009091DA0297FFE9CFE82FE695E695E69590
:100D9000803FA8F7F0E0EE50FE4F877021E001C0E1
:100DA000220F8A95EAF78281822B82830895FE2F93
:100DB000FF0FFF0BE651FE4FF8CF9091520191309B
:100DC00021F49091DA0297FD0CC0ECEEF1E09191E4
:100DD000891302C0DF011E9291E0E23FF907B9F7E3
:100DE0000895E82FE695E695E695803FC8F7F0E090
:100DF000EE50FE4F9DEF81FD97EF80FF959582FDB0
:100E0000929582818923828308958091510108956A
:100E10002FB7F894609125027091260280912702E5
:100E2000909128022FBF089580918502811539F095
:100E3000EFDF462F572FBC01CB01BA010895E8DF41
:100E4000DC01CB01409187025091880260918902B8
:100E500070918A02480F591F6A1F7B1FEDCF87E7E9
:100E600097E7809300089093010888E19AE00FB615
:100E7000F894A895809360000FBE90936000FFCF18
:100E8000FC0120911B0230911C022617370748F005
:100E90006115710529F49091E8009E779093E80020
:100EA0009B0190E02115310541F4911106C080911C
:100EB000E80082FF32C080E0089580914D028115E4
:100EC000C1F18530C1F18091E80083FD30C080918F
:100ED000E80082FDECCF8091E80080FFE3CF8091B5
:100EE000F3004091F200582F2115310519F04830D8
:100EF000510558F091E04830510509F090E04091DB
:100F0000E8004E774093E800CDCF81918093F100C7
:100F1000215031094F5F5F4FE7CF80914D0281151E
:100F200041F0853041F08091E80083FFC0CF81E03F
:100F3000089582E0089583E00895982F9093E90042
:100F4000891771F07091EC002091ED005091F00044
:100F500021FD09C09F5F973089F78093E9000895CC
:100F6000762F242F50E03091EB003E7F3093EB0042
:100F70003091ED003D7F3093ED003091EB0031601A
:100F80003093EB007093EC002093ED005093F00051
:100F90002091EE0027FDDECF08958091150287FF96
:100FA00013C08091E80082FF06C08091E8008B7733
:100FB0008093E800089580914D028111F2CF089549
:100FC00080914D028115D9F38091E80080FFF8CF20
:100FD0008091E8008E77ECCF2091E4003091E5001D
:100FE00095E6A9012091EC00822F817020FF06C0B8
:100FF0008091E80080FF06C080E008952091E8001D
:1010000022FD1AC080914D02811589F0853089F04A
:101010008091EB0085FD0FC02091E4003091E50048
:1010200042175307F9F29150E1F684E0089582E007
:10103000089583E0089581E00895CF93DF93C8ED8C
:10104000D0E088818F7E8883E7EDF0E08081816049
:10105000808384E082BF81E08093140288818E7F48
:101060008883E2EE10821092DA00A1EEB0E01C92CA
:1010700088818F77888388818068888388818F7D45
:10108000888319BC10924D02109213021092300204
:1010900010921202A0EE8C918B7F8C9388818160DC
:1010A000888342E060E080E048DFA1EEB0E08C9110
:1010B0008E7F8C93E2EEF0E080818160808380817E
:1010C00088608083E0EE80818E7F8083888180616C
:1010D0008883DF91CF910895E8EDF0E080818E7FE5
:1010E00080831092E2001092DA001092E100A0EEEC
:1010F000B0E08C9181608C9380818F77808319BC64
:10110000A7ED8C918E7F8C9380818F7E808310924F
:1011100014020895A0E0B0E0E0E9F8E00C941F2488
:101120007C016B015A0180916C020AE010E08A3068
:1011300010F001E010E0C1E0D0E0B601C701F50118
:101140000995811115C021960C171D078CF0CC9FB5
:101150009001CD9F300D300D112480E090E045E3EB
:101160004A95F1F70000019682179307C1F7E5CF82
:10117000CDB7DEB7EAE00C943B240F931F93CF93D7
:10118000DF93EB018A0190914D02943059F58093E1
:10119000E9008FEF9091E80095FD06C095ED9A95D6
:1011A000F1F700008150B1F78091E80085FF1AC087
:1011B00013DF811112C08091E80085FD06C0809187
:1011C000E8008E778093E800F3CF88818093F10068
:1011D0000150104011F02196EECF8091E8008E77FB
:1011E0008093E800DF91CF911F910F9108956032B5
:1011F00029F440E250E0BC0182E0BFCF0895CF93D4
:10120000DF93EC0148E050E0BC0181E0B6DF88E00C
:10121000FE01ADE1B2E001900D928A95E1F7DF9118
:10122000CF91089540E250E0BC0184E0A6CF46E0B3
:1012300050E0BC0184E0A1CF43E050E0BC0184E079
:101240009CCF9091DB0292FB222720F9281771F0A6
:1012500080FB92F99093DB026091DA027091DB02DD
:1012600084E090E00E94A42482E009CA08951F93BC
:10127000CF93DF93122F8430E0F46830D0F4453000
:10128000C0F4C42FD0E0CC0FDD1F2AE0629FC00D58
:10129000D11D112490E5899FC00DD11D1124632F0C
:1012A000CE0189960E948A24612FCE018A960E94DF
:1012B0008A24DF91CF911F9108950F931F93CF93AD
:1012C000DF93142F022F843020F5623010F598E060
:1012D000899FE001112424E0629FB0011124C60F10
:1012E000D71FC759DE4F81E08427632F9E01280F47
:1012F000311D280F311DC9010E948A2481E090E030
:10130000111102C083E090E0602F8C0F9D1F0E949E
:101310008A24DF91CF911F910F910895A0E0B0E052
:10132000E4E9F9E00C941C2497E9C92E93E0D92E46
:101330007D0187014701B12C702E13C0FE0125915C
:1013400035914A2D6B2D872D92DF2296A3948A2DFD
:101350008530A1F785E0880E911CB3948B2D8830E1
:1013600039F0E401CC0FDD1FC95ADD4FA12CE6CFC7
:10137000E601B12CFE012591359141E06B2D872DC1
:101380009CDFFE0132962591359140E06B2D872D33
:1013900094DF24968B2DBB24B394813059F70F5FD3
:1013A0001F4F88E0C80ED11C88E2E80EF11C043003
:1013B000110509F0BFCFCDB7DEB7EDE00C943824AE
:1013C00080915201813061F58091DA0287FF28C057
:1013D0006CD98093F30140E250E06DE872E082EF57
:1013E00091E00E94B824892BD1F080E2E2EFF1E095
:1013F000ADE8B2E001900D928A95E1F7E091AD027F
:10140000F091AE02309759F00480F581E02D3097CD
:1014100031F086E08093F20182EF91E00995089522
:1014200044D98093EA0148E050E06FEA72E08AEE26
:1014300091E00E94B824892B91F388E0EAEEF1E074
:10144000AFEAB2E001900D928A95E1F7E091AD022A
:10145000F091AE02309719F30280F381E02D3097BE
:10146000F1F28AEE91E0DACF811531F09091D40259
:10147000982B9093D402A4CF0895811511F03CD9F4
:101480009FCF08954F925F927F928F929F92AF92DB
:10149000BF92CF92DF92EF92FF920F931F93CF9361
:1014A000DF93782E29017801982F88E09802E001D7
:1014B0001124452B71F5FE01E15FFE4F8681978176
:1014C000892B09F057C0E114F10409F1FE01E15F35
:1014D000FE4F8381C82ED12CE816F10408F4670171
:1014E000C15FDE4F6C817D81AB014F5D5C4F04E6D7
:1014F00010E0960182E30E94CA2297FD2AC06C8107
:101500007D816F5D7C4FA601C2010E94C52481E0F0
:1015100021C0FE01E15FFE4F8081C82ED12C8530B5
:1015200010F084E0C82EFE01E15FFE4FA180B28082
:10153000C5018F5D9C4F4C01A6010E94C52404E6A5
:1015400010E09601A4016A2D82E30E947C2297FF9D
:10155000B2CF80E0DF91CF911F910F91FF90EF907C
:10156000DF90CF90BF90AF909F908F907F905F90D3
:101570004F900895709221036091100170911101B4
:1015800020910F0130E0AB014F5D5C4F04E610E0AD
:1015900082E30E947C2297FF96CFDBCFA4E0B0E0ED
:1015A000E4EDFAE00C942324E0904E02F0904F0218
:1015B00000915002109151022BDCDC01CB018E19FD
:1015C0009F09A00BB10B11E084369105A105B1056F
:1015D00000F12ADCDC01CB010296A11DB11D89833B
:1015E0009A83AB83BC8300E010E0980144E050E0B4
:1015F000BE016F5F7F4F86E045DF182F811549F0F0
:1016000007DC60934E0270934F02809350029093D8
:101610005102812F2496E6E00C943F24A1E0B0E033
:10162000E4E1FBE00C941724662E2A0119016801FD
:101630008D019E012F5F3F4F40E050E0BA0122DF55
:10164000182F811591F1F20180809180A280B380E2
:10165000DFDB7980681979098A099B09643671058D
:101660008105910528F4B701C601A7DA8715E9F0CD
:101670008701910140E050E0BA01862D03DF082F79
:10168000B701C6019ADA10E087110AC0102F117055
:1016900000FF06C0BDDBF201608371838283938308
:1016A000812F2196E2E10C943324A701B601C101F8
:1016B0000E94C524F5CFA4E0B0E0E1E6FBE00C9485
:1016C00021246B017D0103E213E09E012F5F3F4F58
:1016D0004CE552E062E081E0A1DF811561F04981D3
:1016E0005A816B817C8140935802509359026093D8
:1016F0005A0270935B0240915802509159026091D6
:101700005A0270915B02F6014083518362837383B6
:101710002496E8E00C943D24A8E0B0E0E2E9FBE088
:101720000C9423247D0108E213E09E012F5F3F4FBC
:1017300044E552E064E083E071DF182F811599F1F0
:101740009091270380915302981769F190912B0390
:1017500080912A03891709F1E92FF0E0EB5DFC4F36
:10176000678167FB662760F987819F5F937090931D
:101770002B03909129039F5F909329038F77C0D902
:10178000F82E8111E3CF00E010E09801A801B80124
:1017900085E078DEF8221F2D02C0F110F4CF809191
:1017A000270380935302812F2896E6E00C943F2470
:1017B0000F931F93CF93DF93843008F56830F8F4CC
:1017C0004530E8F4C42FD0E0CC0FDD1F9AE0699FCC
:1017D000C00DD11D112490E5899FC00DD11D11248C
:1017E000CE0189960E946E24082FCE018A960E940F
:1017F0006E24902FDF91CF911F910F91089580E07B
:1018000090E0F8CFFF920F931F93CF93DF93F42EC6
:10181000843048F5623038F598E0899FE001112462
:1018200084E0689FB0011124C60FD71FC759DE4F4F
:1018300081E084279E01280F311D280F311DC90129
:101840000E946E24082F81E090E0F11002C083E036
:1018500090E08C0F9D1F0E946E24902FCDB7DEB7B5
:10186000E5E00C94402480E090E0F8CF783038F444
:10187000653060F4843050F4462F672F99CF7D3F58
:1018800041F4623018F441E0843050F080E090E0A0
:1018900008957C3FD9F76230C8F78430B8F740E04C
:1018A000B1CFCF92DF92FF920F931F93CF93DF932D
:1018B0006C010091D8028091D702082BC3E0D0E0E0
:1018C00010E0C8010C2E02C0959587950A94E2F7A6
:1018D00080FD0CC02197A8F7F12C8F2DDF91CF91BF
:1018E0001F910F91FF90DF90CF900895FC2EB601CD
:1018F0008C2FBCDF0E947804019761F3EECF1F9319
:10190000CF93DF93FC012581C081D181CE012115C8
:1019100079F0611569F0C5DF182F682FCE010E949C
:10192000C802BE01812FA2DFDF91CF911F910895E0
:101930000E94E102182FF5CFCF93DF93EC01B1DFC6
:10194000BE0194DF0E947804DF91CF910895FC01DD
:101950002481211599F080819181EEDF282F9295C5
:101960009F70963099F060F4925F9F70923030F4DF
:10197000203FB1F038F481E0283E38F080E008954F
:101980009A5FF3CF81E0243FC9F7089591E0213FAA
:1019900009F090E081E0283E08F080E0892B08956E
:1019A00081E00895673722E072078105910528F4E8
:1019B000CB0187579E4F0C946E2480E00895CF9200
:1019C000DF92EF92FF92CF93DF93EC01C880D98032
:1019D000EA80FB80B601C701E5DF9FEFC91AD90A8B
:1019E000E90AF90AC882D982EA82FB82DF91CF91A3
:1019F000FF90EF90DF90CF90089585E290E00E94F5
:101A00006E24863269F486E290E00E946E24833070
:101A100039F487E290E00E946E2491E0893109F068
:101A200090E0892F8170089580E090E00E947624F4
:101A3000833E9E4F09F4E1CF80E00895A0E1B0E03D
:101A4000E4E2FDE00C941924FE013196DF0180E10F
:101A50001D928A95E9F708E210E099E8A92E91E035
:101A6000B92E612C712C2501539441949E2E8F2EFA
:101A70006201730181E148165104610471041CF094
:101A800080E1C82ED12CA601B501892D982D0E9488
:101A90007B24AC0CBD1C0D2C000C00084C185D0800
:101AA000600870080150104019F76096E0E10C944E
:101AB00035246FEF85E290E00E948A246FEF86E282
:101AC00090E00E948A246FEF87E290E00E948A24CF
:101AD00060E088E290E00E948A2420DCAFDF66E2CA
:101AE00085E290E00E948A2463E086E290E00E9412
:101AF0008A2469E187E290E00C948A2463EE7EEF09
:101B000080E090E00E94A42460E082E090E00E94E7
:101B10008A2481E08093D70261E083E090E00E9414
:101B20008A2460E074E184E090E00E94A424C1DF94
:101B300060E070E0AB018FE090E00E949C2460E0E8
:101B400070E0AB0183E190E00C949C241F921FB6DF
:101B50001F9211248F939F93AF93BF9380912F0275
:101B6000811113C08091250290912602A091270235
:101B7000B09128024196A11DB11D8093250290933A
:101B80002602A0932702B0932802BF91AF919F91A4
:101B90008F911F901FBE1F9018952FB7F8948091BA
:101BA000250290912602A0912702B09128022FBF12
:101BB0000895CF93DF93EC01F0DF8C1B9D0BDF9139
:101BC000CF910895ACE0B0E0E8EEFDE00C941E2467
:101BD000FE013196DF0188E01D928A95E9F787E4DE
:101BE000C82E81E0D82E7F01AE2E9F2C00E511E09B
:101BF000F60181916F018F3F09F43DC0F894E82F01
:101C0000E295EF70F0E021A18F7041E001C0440F38
:101C10008A95EAF7922F942B91A392A1842F809515
:101C2000892382A3789400C0EBE4F1E031E0B12C89
:101C300021912F3F79F0A22FA295AF70A05EB0E066
:101C40008C9190E02F7002C0959587952A95E2F7C8
:101C500080FF7EC080E0B82A330F0E171F0741F7C0
:101C6000F60182918F3F11F00E94660580EA8A9505
:101C7000F1F7F701B0828FEFE81AF80A8BE491E0F0
:101C80008C159D0509F0B4CF48E050E06A2D792D00
:101C90008DE792E00E94B824009749F028E0EA2DF1
:101CA000F92DADE7B2E001900D922A95E1F7009190
:101CB0007C0210E00C581D4F892B09F44BC081E0C9
:101CC000809373026ADF8093710290937202809115
:101CD0008502811509F496C07E0189E0E80EF11CA9
:101CE000F70184E011928A95E9F780916C028A30BD
:101CF00008F053C04BE55BE0B701C8010BDA811572
:101D000009F46FC04CE85BE0B701C80103DA811544
:101D100009F467C04EEC5AE0B701C801FBD9811540
:101D200009F45FC010926C028091700290E044E070
:101D300050E0B7018C589D4F0E94B82421E02093B9
:101D40006F02892B09F03FC02C96EBE00C943A24EB
:101D5000832F81CF80917302811509F4B8CFE09071
:101D60007102F090720219DF8E199F09059708F42D
:101D7000AECF44E050E06DE772E0C8010E94B824A5
:101D8000892B41F084E0EDE7F2E0D80101900D925B
:101D90008A95E1F7109273029ACFC0906D02D090AD
:101DA0006E02FBDE8C199D09843F914008F0A2CFA2
:101DB00080916F02811541F2F70184E011928A95BA
:101DC000E9F710926F02E0917002F0E0EC58FD4FDD
:101DD00089859A85AB85BC8580839183A283B383F3
:101DE000B3CF80916C028F3F31F4D7DE80936D02C8
:101DF00090936E02DDCF8F5F80936C028A3008F47F
:101E000093CFF3CFF80180819181A281B381809338
:101E1000230390932403A0932503B093260364E047
:101E200070E083E293E00E94DD058093220388E066
:101E3000E4E6F2E0A8E2B3E001900D928A95E1F7C2
:101E400068E070E088E293E00E94DD05809327035C
:101E5000C0903003D0903103E0903203F090330310
:101E60008091600290916102A0916202B091630240
:101E7000C816D906EA06FB0609F466CFC0926002CE
:101E8000D0926102E0926202F09263020E9408071F
:101E9000C61AD70AE80AF90AC0928702D0928802C5
:101EA000E0928902F0928A024FCF77DE9C019091F6
:101EB000CE028091CF02982B21F020934A023093DA
:101EC0004B029091D0028091D102982B21F0209367
:101ED000480230934902E091AD02F091AE02309792
:101EE00059F00680F781E02D309731F082E0809341
:101EF000CC028CEC92E009950895611509F448C074
:101F0000E82FED5CE33150F4F0E0E053FB4D0C942E
:101F100061240E94030681958093CF02C6CF0E9460
:101F20000306FACF0E94030681958093CE02F6CF76
:101F30000E940306FACF0E9423068093D002EECFC0
:101F40000E9423068195F9CF0E94230681958093F4
:101F5000D102E4CF0E942306FACF815D990B21E0E4
:101F600001C0220F8A95EAF78091CD02822B8093DF
:101F7000CD02D4CF8091CB0281608093CB02CECFB3
:101F80008091CB028260F9CF8091CB028460F5CF43
:101F90004091CE028D3C59F48091CF0287FF0DC055
:101FA0001092CF02411559F41092CA0208C08E3C1B
:101FB00081F48091CF0218169CF3411581F0809135
:101FC000D0029091D102892B09F0A8CF1092C902BA
:101FD000A5CF8F3C41F447FFF0CF1092CE02809105
:101FE000CF028115E0CF803D19F41416B4F3E5CF8C
:101FF0009091D002893D29F41916FCF61092D00276
:10200000DCCF8A3D19F497FFD8CFF8CF9091D10259
:102010008B3D29F497FFD1CF1092D102CECF8C3DCA
:1020200019F41916CCF3C9CF982F915D983078F434
:10203000815D990B21E001C0220F8A95EAF7822F7A
:1020400080959091CD0289238093CD02B6CF8D3DAE
:1020500031F48091CB028E7F8093CB02AECF8E3D48
:1020600021F48091CB028D7FF7CF8F3D09F0A5CF72
:102070008091CB028B7FF0CFCF93C82F8115C9F011
:102080008450813A80F580915201813021F4809111
:10209000DA0287FD10C0ECEEF1E08081C817F1F0A4
:1020A000319681E0E23FF807C1F78C2F0E94A90624
:1020B00087D9CF910895EC2FE695E695E695F0E067
:1020C000EE50FE4F828190E04C2F477021E001C01E
:1020D000220F4A95EAF78223892B39F38C2F0E942D
:1020E000DD066ED9E2CF8C2F805E883060F4C77039
:1020F00081E001C0880FCA95EAF7C091D402C82BCD
:10210000C093D402D5CF8C2F855A833030F48C2FD6
:102110008452990B0E945B06CCCFEC2FE85AEB312E
:1021200050F4F0E0EE0FFF1FEF54FE4F80819181DD
:102130000E948206BECF8C2F8D5C833108F0B9CF10
:1021400061E08C2FDADEB5CF811561F1982F9450C4
:10215000913A18F40E94DD0633C9982F905E9830AA
:1021600058F4982F81E091FD84E090FD880F92FD56
:1021700082950E947C03F0CF982F955A933020F4DB
:1021800080E090E00C945B06982F985A9B3120F4E5
:1021900080E090E00C948206982F9D5C933110F4BF
:1021A00060E0ABCE08951F93CF93DF93182FEB0120
:1021B00063DF209731F4812FC7DFDF91CF911F912B
:1021C00008958FE99FE00197F1F700C00000219783
:1021D000F0CF1092D40280915201813011F580919C
:1021E000DA0287FF1EC0E4EFF1E08EE111928A95DA
:1021F000E9F780E090E00E945B0680E090E00E94BA
:1022000082061092DC02DCD8ECECF2E086E011925F
:102210008A95E9F71092CA021092C9021092CB0275
:1022200044CEECEEF1E086E0E1CFD3DF88E19AE046
:102230000FB6F894A895809360000FBE909360004D
:10224000FFCFAAE2B0E0E7E2F1E10C94262485E1B9
:1022500092E0FC0101962091F100208322E08D3173
:102260009207B9F780911602893009F459C0C8F471
:10227000823009F4B7C0833009F486C0813089F117
:102280008091E80083FFEBC08091150290911602C7
:102290009A3008F0E4C0E92FF0E0ED51FB4D0C94CA
:1022A00061248A3009F48DC08B3051F7809115027A
:1022B000813231F78091190290911A02892B01F72E
:1022C0008091E800877F8093E8000E94CD0781E03D
:1022D00090911702911101C080E08093520179DF43
:1022E000CFCF80911502813A59F68091E800877F1F
:1022F0008093E8008091190290911A02892B61F075
:1023000060E080E090E070E00E9440078091E8008B
:102310008B778093E800B4CF68E08DE192E0F3CF53
:1023200080911502813209F0ABCF80911902909112
:102330001A028D7F892B09F0A3CF8091E800877F57
:102340008093E8008091E80082FF19C02091F3009B
:102350008091F200922F029731F48091F100813048
:1023600011F0863021F48091F10080935101809129
:10237000E8008B778093E8000E94CD0781CF8091A1
:102380004D028111DFCF7CCF80911502813A09F097
:1023900077CF8091190290911A02892B09F070CFA2
:1023A0008091E800877F8093E8008091E80080FFBB
:1023B000FCCF809152018093F1008091E8008E77EC
:1023C000D9CF80911502813209F05ACF8091E8006F
:1023D000877F8093E8000E94CD0780911802809348
:1023E00050014ECF80911502813A09F049CF80917A
:1023F000E800877F8093E8008091E80080FFFCCFB1
:1024000080915001D8CF803889F0823841F5809191
:1024100019028F70873018F58093E9008091EB00E6
:1024200085FB882780F91092E90006C08091300270
:10243000880F90911202892B9091E800977F9093DA
:10244000E8008093F1001092F1008091E8008E770F
:1024500023C0811116C080911702813011F1809143
:10246000E80083FF0AC08091E800877F8093E8003E
:102470008091EB0080628093EB00AA96E3E00C94DD
:102480004224823061F780911702811581F0109209
:10249000E9008091E800877F8093E8000E94CD07E3
:1024A000DECF933009F080E080933002F0CF80914E
:1024B00019028F70282F2150263088F68093E9006A
:1024C0002091EB0020FFE3CF933031F48091EB00BB
:1024D00080628093EB00DBCF9091EB009061909352
:1024E000EB0021E001C0220F8A95EAF72093EA0071
:1024F0001092EA008091EB008860EBCF8111AFCFA2
:10250000809117028F77182F8091E3008078812BBC
:102510008093E3008091E800877F8093E8000E9429
:10252000CD078091E80080FFFCCF8091E3008068B8
:102530008093E30083E0111101C082E080934D029B
:102540008ECF8058823008F08ACF80911702909108
:1025500018028C3D23E0920791F583E08A838AE29A
:1025600089834FB7F894DE01139620E03EE051E2F4
:10257000E32FF0E050935700849120FF03C0829531
:102580008F703F5F8F708A30C0F0895C8D931D9291
:102590002F5F243169F74FBF8091E800877F8093D8
:1025A000E8006AE270E0CE0101960E944007809147
:1025B000E8008B778093E80052CF805DE7CF292F2A
:1025C00030E02330310509F44DC078F52130310574
:1025D00009F47CC08BE590E0E8ECF1E022303105B5
:1025E00009F03DCF2091E800277F2093E80020915B
:1025F0001B0230911C028217930708F49C0140E0F3
:102600002115310509F067C0411165C08091E800CE
:1026100082FDCDCF80914D02811549F2853039F28E
:102620008091E80083FFF2CFC2CF80911902909190
:102630001A0221323105D9F12232310509F00FCFCA
:102640008330910508F00BCFFC01EE0FFF1FE35A1A
:10265000FE4F0190F081E02D865A9E4FDC018C9157
:1026600090E011C0282F30E0813089F02230310510
:10267000B1F0232B09F0F3CEE3E5F2E0E4918E2FE5
:1026800090E0E3E5F2E0009709F4E9CEABCFE5E4B2
:10269000F2E0E4918E2F90E0E5E4F2E0F4CFE5E3A0
:1026A000F2E0E4918E2F90E0E5E3F2E0ECCF8330AE
:1026B000910508F0D4CE880F991FFC01ED59FE4F0B
:1026C0000190F081E02D89E090E08CCF82E190E0F4
:1026D000E3E2F2E087CF80914D02811509F467CFE4
:1026E000853009F464CF8091E80083FD60CF80914C
:1026F000E80082FD8BCF8091E80080FF81CF409180
:10270000F3008091F200942F2115310519F08830E3
:10271000910550F041E0089709F040E08091E80011
:102720008E778093E8006CCF44914093F10031960E
:10273000215031090196E8CF803809F090CE809180
:10274000E800877F8093E800809113028093F10076
:102750007CCE811184CE80911702182F823008F030
:102760007ECE8091E800877F8093E800109313026B
:102770000E94CD071115F9F084E080934D0242E0EC
:1027800061EC81E00E949D0742E261EC84E00E94DE
:102790009D0742E261EC82E00E949D0742E260EC0C
:1027A00083E00E949D0780914D02843051F482E0C5
:1027B0008093530154CE8091E30087FDDDCF81E00B
:1027C000DCCF81E0F5CFFF920F931F93CF93DF9380
:1027D000C62FD42FF22E8115A9F06093D202DDD935
:1027E00080932D0290932E0281E0C1FD84E0C0FD14
:1027F000880FC2FD82950E94340ACDB7DEB7E5E0AE
:102800000C9440248091D202681332C000912D02B2
:1028100010912E02C2D9801B910B883C910540F586
:102820001D2F105ECD17A1F0C77001E0802F01C0F1
:10283000880FCA95EAF70E943D0A183048F48D2F98
:10284000877001C0000F8A95EAF7802F0E94340A32
:1028500060E070E08F2DA7DC81E0D1FD84E0D0FD49
:10286000880FD2FD8295183040F60E943D0AC5CFF0
:1028700081E0C1FD84E0C0FD880FC2FD8295F5CFE7
:10288000A4E0B0E0E6E4F4E10C941C247C01FC013B
:102890008481811509F47BC061E0C70130D88C01C7
:1028A000F7018581811509F4D3C098013757203885
:1028B000310508F06CC4003108F05AC066E772E0D8
:1028C00080E090E06FD8811153C0A12CB12C45015C
:1028D00001111EC089829A82AB82BC828E010F5F79
:1028E0001F4FC8016CD8B02EA12E813008F440C013
:1028F00009F068C0C80163D88130E9F4C8015FD825
:1029000060E570E0893311F060E070E04CDCE9CF05
:1029100087E7881682E09806A104B10449F1B40162
:10292000C50140D89FEF891A990AA90AB90A8111ED
:10293000EFCF0150CDCF823021F4C80140D89CDBCD
:10294000D0CF833021F4C8013AD8FEDBCACF84301F
:1029500069F4C80134D8C12CD12C282F2053330B53
:102960002A303105C0F0C114D10411F58111B9CF5D
:102970008091D902877059F0F7018581811539F06E
:102980008091DB0282FF03C082E00E943F03249615
:10299000EDE00C9438244AE04C9DC0014D9D900D13
:1029A0001124280F391F69018B2D9A2D08D8D5CFF6
:1029B000EFE9FFE03197F1F700C0000091E0C91A9C
:1029C000D108D1CFE82FF0E0E951FC4F9491792E56
:1029D000282F26952695269530E0F901E952FC4FDF
:1029E000C4908770D12C082E02C0D594C7940A9445
:1029F000E2F7F901E953FC4FA490B12C082E02C074
:102A0000B594A7940A94E2F729543C4FF9018490B5
:102A1000912C02C0959487948A95E2F7C0FE02C07B
:102A200081EE2ADBA0FE02C086EE26DB60E070E0CD
:102A3000872DB9DBA0FE02C086EE86DBC0FE02C099
:102A400081EE82DB80FE4DCF60E070E08CE25ECFF5
:102A5000F801E851FC47E730F10508F073C3E35192
:102A6000FB4D0C94612426E241EE61EEACDE80CF9A
:102A700027E245EE65EEFACF26E241EE60EEF6CFB4
:102A800027E245EE64EEF2CF26E241EE62EEEECFB3
:102A900027E245EE66EEEACF28E241E0EBCF8091F7
:102AA000DA0281608093DA026091DA027091DB02CF
:102AB00084E090E00E94A4248CDB5ACF8091DB025A
:102AC00088608093DB02F0CF8091DA028260EACFE7
:102AD0008091DA028460E6CF8091DA028860E2CFEA
:102AE0008091DB028160EDCF8091DB028260E9CFD3
:102AF0008091DA028061D6CF8091DA028062D2CFF3
:102B00008091DA028064CECF64DB8091DA02806843
:102B1000C9CF8091DA028C60C5CF8091DB028360DF
:102B2000D0CF8091DA028E7FBDCF8091DB02877F8C
:102B3000C8CF8091DA028D7FB5CF8091DA028B7F8A
:102B4000B1CF8091DA02877FADCF8091DB028E7F9B
:102B5000B8CF8091DB028D7FB4CF8091DA028F7E77
:102B6000A1CF8091DA028F7D9DCF8091DA028F7B99
:102B700099CF2FDB8091DA028F7794CF8091DA02A0
:102B8000837F90CF8091DB028C7F9BCF9091DA0284
:102B9000892F8B7F92FF8460877F92FF886082CF2E
:102BA0008091DB02982F909590FB80F990FB81F942
:102BB00088CF9091DA02892F8F7B96FF806472CF45
:102BC00008DB9091DA02892F97FB87F980586ACF4A
:102BD00061E08EE090E00E948A2466CF60E0F9CF49
:102BE0009091DA02892F8F7E94FF80615BCF909164
:102BF000DA02892F8E7F90FF816054CF9091DB02A3
:102C0000892F877F93FF88605CCF89E2BBC289E20E
:102C1000A4C207379CE71907F1F008379CE71907AA
:102C200049F19801205E32452032310548F5811185
:102C300039C00F7181E090E002C0880F991F0A959A
:102C4000E2F78C01682F83E090E00E948A24802FB5
:102C50000E9452028DCE811549F081E00E945F02F0
:102C600043E062E081E00E94F80282CE81E00E94AF
:102C70006802F6CF811511F082E0F0CF82E0F7CF45
:102C8000811571F10B359CE7190709F10C359CE7AB
:102C9000190791F00A359CE71907B9F001309CE754
:102CA0001907E9F003309CE7190799F001151C4753
:102CB000B9F48FDA0E942F078091DB02002482FF93
:102CC0000394802D0E94210953CE81E0FBCF80E048
:102CD000F9CF6FEF7FEF80E090E00E94A424A5DAA7
:102CE000F70100811181811509F447C0C8010E94D4
:102CF000510CD82E682FC8010E94C802B8018D2D32
:102D00000E94360C0E947804182FA92EF701D58056
:102D1000B680B2948FE0B8228091D902877001F119
:102D2000CD2CD114F1F0892F807F803461F0812F78
:102D3000805E8830A8F0892F807E803221F41230A6
:102D400078F0B11469F08091DB0282FF09C082E063
:102D50000E943F038091D9028770CC24C3948111D3
:102D6000C12CEA2DE295EF708A2D803C08F067C0F7
:102D7000F0E0EC50FB4D0C946124C8010E94E1028C
:102D8000D82EBCCF0A2D0F70803110F00295007F35
:102D9000D114B9F0011569F0812F805E883010F0F0
:102DA000111109C08091D402802B8093D4020E941B
:102DB000E009812F3EC08091DC02802B8093DC02F1
:102DC000F6CF812FC1D90115D1F1812F805E8830D6
:102DD00010F0111104C0802F0E947C0306C00095E2
:102DE0008091DC0280238093DC020E94E00927C0EE
:102DF0000A2D0F70807F803211F00295007F113014
:102E000040F009F464C0D11409F46FC0B11499F111
:102E1000D0CF8091DB0282FD2AC0D11461F0011570
:102E200039F08091D402802B8093D4020E94E00973
:102E300080E022D904C080E087D90111CCCFC11431
:102E400009F4B1C08091D90280FDADC0F7011582AF
:102E50008695869586950E945F02C70111DD809157
:102E6000D9028695869586950E9468029CC0D114E9
:102E700099F0B11004C0802F0E94340AE0CF8B2D4E
:102E80008130E9F69091D502802F89230817B9F295
:102E9000902B9093D502D3CFB110D1CF802F0E9429
:102EA0003D0A9091D502802F892329F0802F8095AB
:102EB00089238093D5029091D602802F892309F42B
:102EC000BECF802F809589238093D602B8CF8B2DDB
:102ED000D11421F0863008F0B2CFCDCF853008F084
:102EE000AECF802F0E943D0AAACFB114D1F319337F
:102EF00049F48FEF97EE23E0815090402040E1F7B6
:102F000000C00000812F20D99ACF869586958370C6
:102F1000813060F009F093CF812F9A2D9370D110FA
:102F200002C080E090E00E94820689CF812F9A2D16
:102F30009370D11002C080E090E00E945B067FCFCA
:102F40006D2D812F0E947D0F7ACF8370E1F5D11016
:102F500028C0812F829586958770880F880F412F12
:102F60004F70082E01C0440F0A94EAF7212F2071F8
:102F700014FF06C02FE001C0220F8A95EAF72095C2
:102F80008A2D869586958370982F8230A1F08330A4
:102F9000B9F08091D702913059F0242B82230E94FE
:102FA00052020E94480660E0C7010E947F0CEFCCED
:102FB000842B822BF4CF242B8091D7028227EFCF52
:102FC000822F842BECCFD11459F1A0FEEACF812FB0
:102FD000829586958770880F880F412F4F70082E35
:102FE00001C0440F0A94EAF7212F207114FF06C094
:102FF0002FE001C0220F8A95EAF720958A2D869549
:1030000086958370982F823089F08330A1F080916B
:10301000D802913041F0242B82230E945502C1CF67
:103020008230A8F6BECF842B822BF7CF242B809141
:10303000D8028227F2CF822F842BEFCF8F70082FF8
:10304000D11431F00E945F02812F0E94340AA9CF6F
:10305000812F0E943D0A802F0E946802A2CF123F5A
:1030600081F170F4103FC9F0113F91F0D11409F4CF
:1030700056C0B11409F450C0812F0E943C1091CF6A
:10308000133F29F1143F91F79091DB0292FD2CC080
:103090008A2D8F71D11401F317C08B2DD11479F0C3
:1030A000853008F07ECF8A2D8F71282F81E001C0F6
:1030B000880F2A95EAF79091D8028927AECF8630FB
:1030C000F0CF8F71D110C8CF0E945F026ACF80E02D
:1030D000D11409F4A2CF8A2D8F71982F81E001C0FD
:1030E000880F9A95EAF799CFD11459F08F7192FF12
:1030F000EBCF982F990F990F990F93609093D90266
:10310000E3CF81E00E943F038B2D823008F449CF4A
:1031100082E00E943F0345CF8A2D8F71D5CFB11435
:1031200071F0193349F48FEF97EE23E0815090400E
:103130002040E1F700C00000812F06D832CF8A2D51
:103140008F718ACF06319CE7190709F062CD809113
:10315000D302811509F45BCD85E30E94DD0614C01E
:1031600006319CE7190709F054CD8091D4028A7A80
:1031700091E0811101C090E09093D302811509F490
:1031800044CD85E30E94A9060E94E009F1CBF80135
:10319000E851FC47E730F10508F461CC1092D20207
:1031A0009801305723323105D8F684E090E00E9430
:1031B00076248093DA029093DB02F801E150F04725
:1031C000E232F10508F06BCCE050FB4D0C94612429
:1031D00080911D03803170F480911C03811551F0A2
:1031E000E091DE022091DD02309118034091170337
:1031F0002E1301C00895BF0187E0E89FF00111245C
:10320000DF01A152BD4F14968C911497811551F195
:1032100011968C911197831325C08C91841322C031
:1032200015968C91159781111DC012968D919D91C7
:10323000A0911903B0911A038A1B9B0B883C91053E
:1032400088F480911D038F70806180931D03EB5182
:10325000FD4F80818F708061808387E193E010DB78
:103260000C9435036F5F7F4FFB01E770C1CFADE07A
:10327000B0E0EDE3F9E10C941C248C0186E0F80148
:10328000DE01189601900D928A95E1F7F801F5801C
:10329000848197E1892E93E0992E70901B03711021
:1032A00017C0811591F0F11409F40EC1C8010E94F4
:1032B000A70C811509F408C187E0F801A7E1B3E084
:1032C00001900D928A95E1F783DFFF24F39455C0B6
:1032D000D080A280B380C0901C032091190330914C
:1032E0001A03A501421B530BC11409F4BDC0483C8D
:1032F000510508F076C0811541F380911803918043
:10330000E0901D039E2D903108F057C0981214C014
:10331000809117038D1110C0F11049C08E2D8F7050
:10332000806180931D0387E193E0AADA80911D03F9
:10333000F8018683F12C21C0F11039C040E0692DDD
:103340008D2D0E94160340E0692D8D2D0E941603DD
:10335000F82E8111EFCF888599850E949C0C292F2A
:1033600022952F70903470F49F70223098F0911550
:10337000A9F0F8019681903188F48F2D2D96EDE01B
:103380000C9438242A5F2F70223060F0C80178DA5C
:10339000FC2CF3CF911511F0811579F3805E883004
:1033A00060F3F4CF803F48F3815F8330F9CF8091A1
:1033B0001D03816080931D03BDCF981237C080919B
:1033C00017038D1133C0F11031C0E682C80158DAFD
:1033D00087E0F801A7E1B3E001900D928A95E1F74B
:1033E00074CFE0901D039E2D903148F487E193E067
:1033F00047DAF40187E011928A95E9F79BCF8115AE
:1034000009F463CF90911803818198130FC08091C4
:1034100017038D110BC0F11009C0E682C80130DA24
:10342000F40187E011928A95E9F74FCFC8010E9415
:10343000A70C811509F448C0F11409F445C08E2D7C
:10344000803208F439CF8091170390911803898353
:103450009A83AB82BC827D821E8280911D038F8302
:10346000CE0101960DDA28CF483C510508F0C1CFB6
:10347000811509F42ACFF11439F190911803818153
:10348000981318C0809117038D1114C080911D03EB
:1034900080FD9ECF803108F49BCF8683807F803F64
:1034A00009F494CF8681982F907F905F8F70892B3D
:1034B00086838CCFC8010E94A70C8111FDCE80911C
:1034C0001D03816080931D03C801DAD9FECEABE1F4
:1034D000B0E0EDE6FAE10C9425244E8B5F8B688F0B
:1034E000798F8A8F192F9B8F91111092DC021D8A80
:1034F00086E0FE017696DE011F9601900D928A9578
:10350000E1F70A8D011561F00B8B1C8B61E0CE0198
:103510000F960E947F0C61E0CE010F960E947F0CF7
:103520000B8B1C8B87E0FE013F96DE011896019005
:103530000D928A95E1F7CE01089699DE81112EC091
:103540002091DD023091DE0287E0AE01485F5F4FDF
:10355000FA0147505109DA0101900D928A95E1F77D
:103560008C858115D9F0822F90E08395877090E04B
:10357000AC0134171506E1F097E0929FD0011124B9
:10358000A152BD4F9E012F5F3F4FF90101900D9257
:103590009A95E1F74093DD020E9435038091DE02A7
:1035A0009091DD02891311C06B96E4E00C944124E4
:1035B0000E94E9101092DD021092DE02E7E1F3E0D2
:1035C00087E011928A95E9F7E9CF27E0829FC00151
:1035D000112481529D4F4BDE811531F38091DE0223
:1035E0009091DF02019687708093DE02D7CFA6E02C
:1035F000B0E0EDEFFAE10C9425240E94CD0D8C0192
:1036000080918B0290918C028017910771F0198242
:103610001A820E94CD0DBC0149815A8180E090E060
:1036200056DF00938B0210938C022696E4E00C94F4
:103630004124ACE0B0E0EFE1FBE10C94222480E017
:103640009CEFE92E2DEFD22E909167022091660219
:103650002917E1F1E92FF0E0E859FD4FF0800F2D37
:103660000F779F5F937090936702809165028F5FE1
:1036700080936502F7FC06C00F83E8860E94CD0D9B
:1036800013E005C00F83D8860E94CD0D12E0BC0167
:1036900089879A871B8781E08C874F815885812F86
:1036A00091E015DF0983F7FE0FC0DA820E94CD0D8D
:1036B000BC018B839C831D831E8249815A81812F8B
:1036C00090E005DF81E0C0CFEA82F0CF2C96E7E002
:1036D0000C943E24CDB7DEB7A2970FB6F894DEBFA8
:1036E0000FBECDBF85B7806885BF85B7806885BFB1
:1036F00084B7877F84BF0FB6F894A8958091600047
:10370000886180936000109260000FBE80E890E0B6
:103710000FB6F89480936100909361000FBE81E032
:103720008093530184E695E08093E8019093E9014A
:103730000E946C080E941D088091E20084608093C2
:10374000E200789480914D02811599F08091E90012
:103750001091EC008F7010FB112717F9182B1092A5
:10376000E9008091E80083FD0E9421111F701093F1
:10377000E90082E084BD93E095BD9AEF97BD809308
:103780006E001092870210928802109289021092A5
:103790008A020E94FD0C811102C00E94590D88EC22
:1037A00090E02091E30027FD0EC0EFE3FCE93197A4
:1037B000F1F700C000000197A1F70E946C08109279
:1037C0004D0280E001C081E0809385020E94140DCB
:1037D000811102C00E947E0D8EE090E00E946E2456
:1037E00091E0811101C090E09093860290930001D6
:1037F00080918502811107D6E4E6F2E088E011921B
:103800008A95E9F78091860291E0282F2927209355
:10381000440290934702811106C086E3809302011F
:1038200082E38093010160E080E00E94A00561E0F6
:1038300080E00E94A0058FE891E00197F1F700C0B9
:10384000000010E080914702181708F47FC08091B3
:10385000860290E0811120C084E98093470186E6CA
:103860008093480187E98093490186EC80934A015F
:1038700085E0E4E5F1E09E012F5F3F4FD901019023
:103880000D928A95E1F785E0F901ABE4B1E0019092
:103890000D928A95E1F794E090937C0284E0891B75
:1038A0008093700257E4E52E51E0F52E0BE411E011
:1038B000F70181917F018F3F11F00E9466050E157F
:1038C0001F05B1F70BE411E0F80181918F018F3FE3
:1038D00011F00E94660581E000351807A9F7E4E7BA
:1038E000F2E088E011928A95E9F7EDE7F2E088E0EE
:1038F00011928A95E9F70E94140D811102C00E946D
:103900007E0D82E090E0EAD78093390284E090E077
:10391000EDD78093DA029093DB020E94E20D8FEFE5
:1039200096E721E0815090402040E1F700C0000080
:103930000E94E20D8091740280FF1AC06FEF7FEF4A
:1039400080E090E00E94A4240E942F0760E0812F75
:103950000E94C005082F61E0812F0E94C005E12F61
:10396000F0E0EB5BFD4F880F802B80831F5F6ACFF9
:1039700083E090E0B3D70E945202809185028111CA
:1039800002C082E397D683E091E08093AD029093EA
:10399000AE0241E0842E912C7E018FEFE81AF80AE6
:1039A00080914D0200E110E432E1D32E853009F41C
:1039B000CAC00E94E20D2AE3A22E22E0B22E84E7C2
:1039C00092E089A39AA3FC01D5019D91808122E018
:1039D000A234B20709F4C1C031969817B1F3209010
:1039E000850291E3C92E92E0D92E712CE9A1FAA1AA
:1039F0006190E9A3FAA3F50181915F01861509F4AD
:103A000042C08625382E00E010E055245394832DC3
:103A1000852189F1462C45202114F9F0F601808199
:103A200090E09401002E01C0220F0A94EAF782234D
:103A3000892B99F409837A820E94CD0D8B839C8314
:103A400081E08D8391E0411001C090E09E83498127
:103A50005A816B817C818D813ADD41100CC0882DAB
:103A6000002E01C0880F0A94EAF7982F9095F6016E
:103A7000808189238083550C0F5F1F4F053011050E
:103A800031F6F501629273948FEFC81AD80A872D28
:103A9000883009F0ABCF0E94140762C080914D02BC
:103AA000843019F110922F0288E190E00FB6F8945B
:103AB000A895809360000FBE1093600083B7817F4C
:103AC000846083BF83B7816083BF7894889583B710
:103AD0008E7F83BF0FB6F894A895809160008861AF
:103AE00080936000109260000FBE0E94E20DE4E738
:103AF000F2E0A1E3B2E080E021912D9391E0211169
:103B000001C090E0892B2CE732E02E173F07A1F788
:103B10008115C9F0809130028115A9F009BDD9BC89
:103B200009B400FEFDCF8091D8008F7D8093D8002E
:103B30008091E00082608093E0008091E00081FD50
:103B4000FCCF0E94E91080914D02853009F4A6CF88
:103B50000E94E9100E9448062CCF981340CF47DD01
:103B6000D0908502D11411F064DDD82E80915202DC
:103B7000811551F010925202809166028093670283
:103B80008091640280936502C12C38C061E08C2D65
:103B90000E94C005182F60E08C2D0E94C005110FF7
:103BA000812B0C2D10E0D801AB5BBD4FEC919E2F0B
:103BB0009370891711F1EE0FEE0FE82BEC938091C3
:103BC00044028C0DEF70F0E0E759FE4F0E5B1D4F85
:103BD000B080F8019081B90E9B2D60E094301CF408
:103BE0009D3F1CF461E00E9480058B2DBB0C990B5E
:103BF00064E070E053D6F8018083C394809147025B
:103C0000C81620F280918502811511F012DDD82AA4
:103C1000D1100E94140786E0ECECF2E0D70101908D
:103C20000D928A95E1F77090CD02D090CE02C090AF
:103C3000CF02A090D002B090D1021092CE0210928A
:103C4000CF021092D0021092D1028D2D8C2909F44E
:103C500041C000914A0210914B020E94CD0D801B81
:103C6000910B9C019091CA02911509F427C225314C
:103C7000310580F19F3F19F09F5F9093CA02D114E4
:103C800059F00E94030691E01D140CF09FEF899FEC
:103C9000802D11248093CE02C11459F00E94030696
:103CA00091E01C140CF09FEF899F802D11248093CC
:103CB000CF028091CE02811569F01091CF021115CB
:103CC00049F00E94F5058093CE02812F0E94F505F0
:103CD0008093CF028B2D8A2909F441C000914802BC
:103CE000109149020E94CD0D801B910B9C01909177
:103CF000C902911509F4DDC12135310580F19F3FDD
:103D000019F09F5F9093C902A11459F00E942306F5
:103D100091E01A140CF09FEF899F802D112480935D
:103D2000D002B11459F00E94230691E01B140CF04C
:103D30009FEF899F802D11248093D1028091D00222
:103D4000811569F01091D102111549F00E94F50515
:103D50008093D002812F0E94F5058093D10280913B
:103D6000CD02871119C08091CE02811511F08D11FD
:103D700013C02091CF02211511F02C110DC090918C
:103D8000D102911511F09B1107C03091D002311171
:103D900003C0822B892B11F00E94550F86E0F7019A
:103DA000ACECB2E001900D928A95E1F70E944806D2
:103DB00090914C02891721F080934C020E940807D1
:103DC00080914D02843009F0EBCD83E08093E900CF
:103DD0008091E80082FFE4CD8091E80090E085FFCB
:103DE00005C00E94EC07811589F091E08091E80000
:103DF0008B778093E800911509F4D2CDE981E150E9
:103E0000E53168F5F0E0EE5DFA4D5BC580E2C82E65
:103E1000D12C87018091E80085FD0AC08091E800DF
:103E20008B778093E8000E94EC07811599F3DDCF32
:103E30008091F100F801808381E0C81AD108A9F2CD
:103E40000F5F1F4FE7CF1A828CE08B8319C08A81E6
:103E5000833079F138F4813021F1823051F08FEFE5
:103E600089830EC08430D9F71B821C821D821E827A
:103E700007C088E290E032D51B821C821D828E83AF
:103E8000E091AD02F091AE02309709F489CD028441
:103E9000F385E02D309709F483CD60E2C7010995E1
:103EA0007FCD0E94080713D56B837C838D839E830F
:103EB000E7CF8B8190E0FE0134968830910504F7BE
:103EC00011920196FACF8A81823019F08530C1F2C1
:103ED000C6CF6B817C818D819E81F9D488E290E090
:103EE00019D5CECF4C816B818A810E94D80B98273F
:103EF000892798278D839E83C3CF2D813E813227CA
:103F0000232732274C816B818A810E943709B8CFE1
:103F10000E948E09B5CF80E18A83B2CF82E08A8386
:103F200087E793CF4A805B80542445245424612C36
:103F3000712C87018C816701C80ED11CC016D10677
:103F400009F49ECF87E7481682E0580661047104A1
:103F500070F4C20187579E4FC1D4F80184830F5F6C
:103F60001F4F8FEF481A580A680A780AE7CF80E097
:103F7000F4CF3C804A805B80542445245424612C37
:103F8000712C870153016301A314B104C104D1044E
:103F900008F076CF87E7481682E05806610471047E
:103FA00030F4F8016481C20187579E4FB3D48FEF7C
:103FB000A81AB80AC80AD80A8FEF481A580A680A15
:103FC000780A0F5F1F4FE0CF0E941E0D59CF84E08B
:103FD000A3CF3C804A805B80542445245424612C28
:103FE000712C530163018E010B5F1F4FA314B104A9
:103FF000C104D10408F044CF80E4481681E058069B
:104000006104710488F4C201899668D4F80181932F
:104010008F018FEFA81AB80AC80AD80A8FEF481A7A
:10402000580A680A780AE2CF80E0F0CF3C804A80E4
:104030005B80542445245424612C712C8701530146
:104040006301A314B104C104D10408F019CF80E4C2
:10405000481681E058066104710428F4F80164816F
:10406000C201899657D48FEFA81AB80AC80AD80A8D
:104070008FEF481A580A680A780A0F5F1F4FE1CF7E
:1040800041E08C81811101C040E06B818A810E94F6
:10409000020C2DCF2D813E8132272327322741E08C
:1040A0008C81811101C040E06B818A810E945D0991
:1040B000E7CE2B30310508F024CE51CE2B30310520
:1040C00008F0DACD07CE78941F921FB61F92112404
:1040D0008F939F93AF93BF93809125029091260277
:1040E000A0912702B09128020196A11DB11D8093D5
:1040F000250290932602A0932702B0932802BF9135
:10410000AF919F918F911F901FBE1F9018951F9286
:104110000F920FB60F9211242F933F934F935F93FB
:104120006F937F938F939F93AF93BF93EF93FF937F
:104130008091E10082FF09C08091E20082FF05C00A
:104140008091E1008B7F8093E1008091DA0080FF15
:1041500024C08091D80080FF20C08091DA008E7F3B
:104160008093DA008091D90080FFA9C080E189BDE9
:1041700082E189BD09B400FEFDCF81E080934D024C
:1041800080911402811109C00E946C080E941D08D0
:104190008091E20084608093E2008091E10080FFE2
:1041A0001AC08091E20080FF16C08091E2008E7FED
:1041B0008093E2008091E20080618093E200809130
:1041C000D80080628093D80019BC85E080934D02AE
:1041D00083E0809353018091E10084FF2FC08091A0
:1041E000E20084FF2BC080E189BD82E189BD09B472
:1041F00000FEFDCF8091D8008F7D8093D800809104
:10420000E1008F7E8093E1008091E2008F7E8093B9
:10421000E2008091E20081608093E20080911302CD
:10422000811509F452C084E080934D0280914D02C3
:10423000843009F052C082E0809353018091E10004
:1042400083FF2CC08091E20083FF28C08091E100B1
:10425000877F8093E10082E080934D0210921302E9
:104260008091E1008E7F8093E1008091E2008E7F5B
:104270008093E2008091E20080618093E20042E05E
:1042800060E080E00E949D078091F000886080934C
:10429000F00081E08093530180935201FF91EF91F0
:1042A000BF91AF919F918F917F916F915F914F914E
:1042B0003F912F910F900FBE0F901F90189519BC32
:1042C00010924D021092140268CF8091E30087FF94
:1042D00002C083E0A9CF81E0A7CF81E0ADCF1F92DC
:1042E0000F920FB60F9211241F932F933F934F936A
:1042F0005F936F937F938F939F93AF93BF93CF936E
:10430000DF93EF93FF93E9EEF0E080811091EC00F2
:104310008F7010FB112717F9182B1082C0EFD0E017
:104320008881877F888378940E942111E9EEF0E0EC
:1043300010828881886088831F701083FF91EF91BD
:10434000DF91CF91BF91AF919F918F917F916F91AD
:104350005F914F913F912F911F910F900FBE0F9042
:104360001F901895EF92FF921F93CF93DF93182F12
:10437000EB011092BC0084EA8093BC000E94CD0D3A
:104380007C018091BC0087FF26C08091B900887FA6
:10439000883029F08091B900887F803189F51093A9
:1043A000BB0084E88093BC000E94CD0D7C0180910D
:1043B000BC0087FF1EC02091B900287F80E090E0FC
:1043C000283189F081E090E0203409F480E0919573
:1043D0008195910908C0C7010E94D90DC817D90756
:1043E00080F68EEF9FEFDF91CF911F91FF90EF90BE
:1043F0000895C7010E94D90DC817D907C0F6F1CF9B
:104400008FEF9FEFF0CF1092B90088E48093B8004F
:1044100008950F931F93CF93DF93EB018093BB001D
:1044200084E88093BC000E94CD0D8C018091BC007B
:1044300087FF10C02091B900287F81E090E02832EA
:1044400009F480E0919581959109DF91CF911F91B9
:104450000F910895CF3FDC0749F3C8010E94D90DA1
:10446000C817D90718F78EEF9FEFEFCF0F931F9361
:10447000CF93DF93EC0184EC8093BC000E94CD0DC0
:104480008C018091BC0087FF08C08091BB0090E048
:10449000DF91CF911F910F910895CF3FDC0789F3F2
:1044A000C8010E94D90DC817D90758F78EEF9FEFA2
:1044B000EFCF0F931F93CF93DF93EC0184E88093AA
:1044C000BC000E94CD0D8C018091BC0087FF08C00C
:1044D0008091BB0090E0DF91CF911F910F910895E3
:1044E000CF3FDC0789F3C8010E94D90DC817D9074F
:1044F00058F78EEF9FEFEFCFA0E0B0E0E1E8F2E2F7
:104500009AC1982E862E742E652E6901E8010E94AC
:10451000CD0D5C010431110508F10F3F100711F1B9
:10452000C80164E170E06FD1F62EE72E6F2D7E2D6D
:10453000892D18DF8C01892BC1F0CF3FDC07B1F347
:10454000C5010E94D90DC817D90780F784E9809367
:10455000BC00C801CDB7DEB7EEE089C1FF24F394FB
:10456000E12CE4CF85E0F82EFBCFBE01882D51DF92
:104570008C01E72CF62CCE0CDF1CEC14FD0431F37F
:104580000115110519F7BE01F70181917F0141DF86
:104590008C01F3CFA0E0B0E0EFECF2E24CC1982E3A
:1045A000862E7A015901E8010E94CD0D3C010431AB
:1045B000110530F10F3F100739F1C80164E170E0D7
:1045C00022D1D62EC72E6D2D7C2D892DCBDE8C01D0
:1045D000892BE9F0CF3FDC07B1F3C3010E94D90D6D
:1045E000C817D90780F784E98093BC00C80110166A
:1045F000110614F480E090E0CDB7DEB7EEE037C1ED
:10460000DD24D394C12CDFCF95E0D92EFBCFBE01A2
:10461000882DFFDE8C01892B31F781E0982A0E94DA
:10462000CD0D3C01C431D10528F1CF3FDC0731F17C
:10463000CE0164E170E0E7D06B01B601892D92DE16
:104640008C01892BF1F4C12CD12C81E0A81AB1087E
:10465000CA14DB0400F517FDC6CFCE0107DF8C01BD
:1046600097FD04C0F701EC0DFD1D80838FEFC81A84
:10467000D80AEECFCC24C394D12CDFCF85E0C82E4E
:10468000FBCFCF3FDC07C9F2C3010E94D90DC81789
:10469000D90798F6D8CF17FDA6CFCE010ADF8C0137
:1046A00097FD05C0EA0CFB1CF70180839CCF0EEF41
:1046B0001FEF99CF8093BA0085EC8093BC000895DA
:1046C0001F920F920FB60F9211242F933F934F9387
:1046D0005F936F937F938F939F93AF93BF93EF936A
:1046E000FF938091B900982F987F9038F1F038F4BB
:1046F000911509F485C0903699F091E035C0887E17
:10470000883AD9F7E0911F03F0E0EF5DFC4F80811C
:104710008093BB0080911F038F5F80931F03EDCFB9
:1047200010921E0310922003E8CF80911E03811186
:1047300033C08091BB0080931F0380911F0391E0E1
:10474000833118F010921F0390E081E080931E03E4
:1047500040911F032091100130911101421713065F
:1047600009F080E0809320038091BC0090FD80647C
:1047700085688093BC00FF91EF91BF91AF919F91AD
:104780008F917F916F915F914F913F912F910F90FA
:104790000FBE0F901F901895E0911F03F0E08091DD
:1047A000BB00EF5DFC4F808380911F038F5F809380
:1047B0001F0380912003811509F49FCF8091790117
:1047C00090917A01FC01A08128E0A202D00111247D
:1047D000A15FBE4F1696ED91FD911897309709F4A1
:1047E0008CCF14962D913D91280F391F15976D91FF
:1047F0007D91680F791F4C9113978C9109957DCF0E
:104800001092BC007ACFAA1BBB1B51E107C0AA1FA4
:10481000BB1FA617B70710F0A61BB70B881F991F61
:104820005A95A9F780959095BC01CD0108952F92D6
:104830003F924F925F926F927F928F929F92AF9230
:10484000BF92CF92DF92EF92FF920F931F93CF937D
:10485000DF93CDB7DEB7CA1BDB0B0FB6F894DEBF14
:104860000FBECDBF09942A88398848885F846E843A
:104870007D848C849B84AA84B984C884DF80EE8084
:10488000FD800C811B81AA81B981CE0FD11D0FB68D
:10489000F894DEBF0FBECDBFED01089597FB072E44
:1048A00016F4009406D077FD08D0ADDF07FC05D0E4
:1048B0003EF4909581959F4F0895709561957F4F37
:1048C0000895EE0FFF1F0590F491E02D09946927DC
:1048D000962769277827872778270895F999FECFA3
:1048E00092BD81BDF89A992780B50895A8E1B0E0FE
:1048F00042E050E02FC0DC01A40FB51F41505040F2
:1049000040F0CB01840F951F2E9105D041505040AF
:10491000D8F70895262FF999FECF92BD81BDF89A58
:10492000019700B4021639F01FBA20BD0FB6F894F3
:10493000FA9AF99A0FBE08950396272FECDFEADF63
:10494000252FE9DF242FE7CF0196272FE4DFE2CFE1
:10495000DC01CB01FC01F999FECF06C0F2BDE1BD3F
:10496000F89A319600B40D9241505040B8F708952E
:10497000FB01DC0104C08D910190801921F44150AC
:104980005040C8F7881B990B0895FB01DC0102C059
:1049900001900D9241505040D8F70895F894FFCF00
:1049A000890F8F0F920F980FAD0FAD0FAD0FAD0F99
:1049B000AD0FAD0FAD0FAD0F9B0FA00FA40FAA0F42
:1049C000BA0FC00FC40F031229122F1229122F126F
:1049D0007E12A1122F129C13A9133C1540153315FA
:1049E0003815441548154C15C216C216F816F81697
:1049F0008517A0171F171F17A5171E182F182F1878
:104A00009115F7159915641568159D156C15A11567
:104A1000AD157815F0157C15B1158015B515D9159E
:104A20008415B915E0158915BE15C6157015A5159F
:104A30007415A9158D15C215D015E815EE155E155E
:104A40009515FE15231F271F631F721F7D1F881FCB
:104A50002F1F2F1F2F1F2F1F2F1F8B1F8E1F921FC8
:0E4A6000B91FE41FE71FE91F162040204A205F
:104A6E000132360507FF08120917091C09F708015C
:104A7E000000000000000000000001010000000026
:104A8E00000004020000000000000106000000000B
:104A9E00000008070000000000000000007C050474
:104AAE000F000000000000946697C6F6F731F4F58B
:104ABE0000000100F6F731F4F5004422B6840162DD
:104ACE0001AC00DA01F301130200FF010001000046
:104ADE00FFFF0000010001FF002103E200E900EAF0
:104AEE0000B500B600B700CD008301CC008A01925C
:104AFE000194012102230224022502260227022A02
:104B0E0002B300B4006F0070009F01CB019F02A0A2
:104B1E0002E200E900EA00B500B600B700CD00835E
:104B2E0001CC008A01920194012102230224022564
:104B3E0002260227022A02B300B4006F0070009F03
:084B4E0001CB019F02A002004F
:00000001FF
