:100000000C9414010C9431010C9431010C943101C5
:100010000C9431010C9431010C9431010C94310198
:100020000C9431010C9431010C94F41B0C94C71CFA
:100030000C9430170C9431010C9431010C94310163
:100040000C9431010C9431010C9431010C94310168
:100050000C9431010C94A8170C9431010C943101CB
:100060000C9431010C9431010C9431010C94310148
:100070000C9431010C9431010C9431010C94310138
:100080000C9431010C9431010C9431010C94310128
:100090000C9431010C9431010C9431010C94310118
:1000A0000C9431010C9431010C94310104000900CD
:1000B0000A000B0008000000050006000700000011
:1000C0000C037300680036007200320000000C035D
:1000D00066006C00620075006D00000004030904F6
:1000E00009023B00020100A0FA090400000103011B
:1000F00001000921110100012244000705810308C4
:1001000000010904010001030000000921110100A0
:100110000122B6000705820320000112010002003F
:10012000000008EDFE0000000101020001050109C8
:1001300002A10185020901A100050919012908157B
:100140000025019508750181020501093009311565
:1001500081257F95027508810609381581257F95CF
:100160000175088106050C0A38021581257F950165
:1001700075088106C0C005010980A1018503190128
:100180002AB700150126B700950175108100C0053A
:100190000C0901A101850419012AA002150126A05C
:1001A00002950175108100C005010906A1018506AF
:1001B000050719E029E71500250195087501810259
:1001C0000507190029EF1500250195F07501810239
:1001D0000508190129059505750191029501750319
:1001E0009101C005010906A101050719E029E715DC
:1001F00000250195087501810295017508810105A9
:1002000007190029FF150026FF00950675088100D3
:1002100005081901290515002501950575019102AB
:10022000950175039101C00011241FBECFEFDAE0E4
:10023000DEBFCDBF11E0A0E0B1E0ECE2FFE302C021
:1002400005900D92AE38B107D9F722E0AEE8B1E0E3
:1002500001C01D92AF37B207E1F70E9491100C94D4
:10026000421F0C940000811114C0623090F445309C
:1002700080F4E62FF0E0F195E195F109E570FF27B4
:10028000E40FF11DEE0FFF1FE455FF4F8591949190
:10029000089581E090E008950E943301089581E07F
:1002A000089581E008950E944F01089581E0089526
:1002B00081E0089581E008950E945A01089508950B
:1002C00008950E945F01089508950895A6E0B0E0A2
:1002D000ECE6F1E00C949E1E49835A839E83309194
:1002E000950189819A8131111AC03E81311599F0A9
:1002F000211589F00E945307182F682F89819A8150
:100300000E942A0769817A81812F0E944C0E2696CD
:10031000E3E00C94BA1E0E943E07182FF3CF0E9410
:10032000530769817A81F1CFFC01262F40815181E9
:1003300062817381848195810E9466010895CF93C3
:10034000DF93D82FC92F61E00E9494016D2F7C2F7D
:100350000E945101811549F061E08D2F9C2F0E9470
:1003600094016D2F7C2F0E945301DF91CF9108954E
:100370000F931F93CF93DF93D82FC92F60E00E9474
:1003800094018C016D2F7C2F0E9460016D2F7C2FBA
:10039000C8010E946101DF91CF911F910F910895D3
:1003A00021E030E0A90102C0440F551F8A95E2F711
:1003B000CA010E944C060895CF93C82F81E090E0B7
:1003C0000C2E02C0880F991F0A94E2F70E94B00B0E
:1003D0008C2F0E94D001CF91089581E0089581E093
:1003E00008950E94ED010895CF93C82F0E94F6054D
:1003F0008C2F0E94EF018C2F0E94F1012FEF84E3DC
:100400009CE0215080409040E1F700C00000CF9177
:10041000089581E00E94F4010E94CC17089580E0C5
:100420000E94F4010E94DD1708950F931F93CF934C
:10043000DF938C0161E00E949401EC01B8010E94FD
:100440005801811509F442C0B801CE010E945C0137
:100450008115E1F1B801CE010E94A2148115B1F11C
:10046000B801CE010E94F710811581F1B801CE01CB
:100470000E94CC10811551F1B801CE010E944F0F9E
:10048000811521F1F8018581811581F0CA35FCE7DC
:10049000DF0739F178F4C130ECE7DE07F9F0C3305B
:1004A000FCE7DF07C9F0C115DC4771F0C8010E9405
:1004B00056010DC0CB35ECE7DE07B1F0CC35DC479B
:1004C000A9F70E94820BF2CF0E94090280E0DF911F
:1004D000CF911F910F9108950E94930B0E940F02DC
:1004E000F5CF0E948B0BE2CF0E948F0BDFCF0E94D3
:1004F00064010E9401170E949B0208950E949F02BE
:100500000E9465010E940617089581E008950895EC
:10051000CF93DF93D82F0E948502C82F811519F041
:100520008D2F0E9487028C2FDF91CF91089508951F
:100530000E948802089580E00E94980208950E9417
:10054000E9140E9498020895CF930E94E914C82FDD
:10055000809190018C1779F0C09390010E949C17B4
:100560006093910170939201809393019093940111
:100570008C2F0E949802CF910895ADE0B0E0E3EC9B
:10058000F2E00C949F1E488759876A877B878C8787
:100590009D8791110E948E0A1F8286E0FE01389687
:1005A000DE01119601900D928A95E1F78D818111FE
:1005B0000DC029813A814B815C816D817E818F8163
:1005C0000E94D8092D96E2E00C94BB1ECE01019644
:1005D0000E949F018111EDCFF5CFFC018481813014
:1005E00021F4808191810E9485070895611529F089
:1005F0000E945D120E941E1308950E94A612FACF57
:10060000CF93C82F811599F08CEF8C0F813A88F425
:100610008C2F0E948D15811529F08C2F0E94361683
:100620000E94240B8C2F0E941C160E94240BCF9139
:10063000089580E28C0F883048F4C77081E001C0D3
:10064000880FCA95EAF70E946F0AEFCF8BE58C0FEF
:10065000833038F42C2F2452330BC9010E941F150C
:10066000E6CFE8E5EC0FEB3150F4F0E0EE0FFF1FC2
:10067000E65EFE4F808191810E944515D8CF83E3CD
:100680008C0F8331A0F661E08C2F0E94F602CFCF51
:10069000811581F19CEF980F913A28F40E9436164B
:1006A0000E94240B089590E2980F983050F48770C0
:1006B00091E001C0990F8A95EAF7892F0E94750A87
:1006C000EFCF9BE5980F933028F480E090E00E94F4
:1006D0001F15089598E5980F9B3128F480E090E06D
:1006E0000E944515089593E3980F933118F460E044
:1006F0000E94F60208950F931F93CF93C82F8B018A
:100700000E9400030115110539F48C2F0E94480343
:10071000CF911F910F9108958FE99FE00197F1F715
:1007200000C0000001501109EDCF60E570E0893391
:1007300011F060E070E00E947B030895811521F0C4
:100740000E946F0A0E94240B0895811521F00E94D7
:10075000750A0E94240B0895A0E0B0E0E2EBF3E0FC
:100760000C94991E6C01D62FC72FFC0115810681B0
:1007700002950F700E94640AE82E8115F9F0E12EAF
:100780001115E1F08C2F807F803461F080E28D0FB5
:100790008830F0F08C2F807E803221F4D230C0F08F
:1007A0000115B1F08091690282FF12C082E00E94BF
:1007B000550B0E94640A91E0E82EE926EC2FE295A1
:1007C000EF70C03CB0F5F0E0EC5BF04E0C94891E8D
:1007D000E12CF4CF0C2F0F70C03110F00295007F88
:1007E000111599F0011559F080E28D0F883010F045
:1007F000D11107C0802F0E946F0A0E94240B8D2FF9
:100800004EC0802F0E94800AF8CF8D2F0E9448038F
:10081000011579F080E28D0F883010F0D11104C0FD
:10082000802F0E94750A03C0802F0E94860A0E94B2
:10083000240BE11409F4CBC00E94600A80FDC7C0FC
:10084000F60115820E945A0A0E948806C6010E947B
:10085000BD050E945A0A0E949806B9C0FC2FFF707D
:10086000FF2EC07FC03219F0F29480EFF822D1152C
:1008700041F0D130C9F1111509F443C00115E9F077
:10088000BECF8091690282FD14C0111559F0F11498
:1008900029F08F2D0E946F0A0E94240B80E00E9495
:1008A0000003C7CF80E00E944803F11411F28F2D9E
:1008B000B8CF111569F0011104C08F2D0E949E035D
:1008C000B8CF013009F0B5CF8F2D0E94A60AB1CF65
:1008D0000111AFCF8F2D0E94A5038F2D0E94B20A68
:1008E0008F2D0E94950AA5CF111521F0063008F032
:1008F000A0CFE3CF053008F09CCF8F2D0E94A50339
:1009000098CF0115D1F3D93349F42FEF87EE93E057
:10091000215080409040E1F700C000008D2F0E94E0
:10092000480387CF8C2F869586958370811569F053
:10093000813009F07ECF8D2F9C2F9370111102C052
:1009400080E090E00E94451574CF8D2F9C2F93700E
:10095000111102C080E090E00E941F156ACF612F44
:100960008D2F0E94F60265CF8C2F837081113DC0C0
:10097000111129C04D2F429546954770440F440FE1
:100980002D2F2F7030E0042E02C0220F331F0A9447
:10099000E2F780E090E0D4FF09C08FE090E002C071
:1009A000880F991F4A95E2F780959095C695C69550
:1009B000C370822B932BC23091F0C33099F0C130B9
:1009C00059F00E9458060E94E9140E949802CDB77F
:1009D000DEB7E8E00C94B51E0E944F06F4CF0E94EB
:1009E0006106F1CF0E944C06EECF111561F1C0FFF8
:1009F000EACF4D2F429546954770440F440F2D2F57
:100A00002F7030E0042E02C0220F331F0A94E2F749
:100A100080E090E0D4FF09C08FE090E002C0880F32
:100A2000991F4A95E2F780959095C695C695C37033
:100A3000822B932BC23071F0C33079F0C13039F082
:100A40000E94C306C0CF823008F4BDCFD2CF0E942F
:100A5000BA06B9CF0E94CC06B6CF0E947006B3CFBB
:100A6000CF70111539F08C2F0E9488068D2F0E94AF
:100A70009E03A9CF8D2F0E94A5038C2F0E9498065C
:100A8000A2CFD23F41F170F4D03FC9F0D13F91F0F5
:100A9000111509F446C0011509F440C08D2F0E94BC
:100AA000000391CFD33FF1F0D43F91F780916902D9
:100AB00082FD22C08C2F8F71111501F310C011150A
:100AC00041F0053008F07FCF8C2F8F710E94AA066D
:100AD0007ACF0630F7CF8C2F8F711111CFCF0E94B4
:100AE000880671CF111529F08C2F8F710E947C061A
:100AF0006ACF0E94770667CF111531F063E08C2F23
:100B00008F710E94360B5FCF81E00E94550B02303F
:100B100008F459CF82E00E94550B55CF8C2F8F716E
:100B2000DECF011579F0D93349F4EFEFF7EE23E08A
:100B3000E150F0402040E1F700C000008D2F0E94FE
:100B4000480341CF8C2F8F7199CF0F931F93CF9371
:100B5000DF93EC01688179818D810E9492078C017D
:100B60000E94D5060E944B06B801CE010E94AC033C
:100B7000DF91CF911F910F910895CF93DF93EC01F7
:100B80008C81811599F0CE010E941502811111C04E
:100B90000E94640A811551F08D81811539F0809190
:100BA000690282FF03C082E00E94550BDF91CF9162
:100BB0000895CE010E94A505CE010E94B801F6CF8E
:100BC00080E090E00E941F1580E090E00E944515B3
:100BD0000E948E0A0E94240B0E943B130E941E1347
:100BE00008950E9450160E94E00508950E947D0A13
:100BF0000E94F1050895282F92959F70963099F0E4
:100C000060F4925F9F70923030F4203FB1F038F47E
:100C100081E0283E38F080E008959A5FF3CF81E0CC
:100C2000243FC9F7089591E0813F09F090E081E009
:100C3000283E08F080E0892B089581E00895FC01AA
:100C40008481811539F0808191810E9485070E94FD
:100C5000FB05089580E00895A6E0B0E0E2E3F6E049
:100C60000C949F1E2696E2E00C94BB1EA7E0B0E019
:100C7000ECE3F6E00C949F1E2796E2E00C94BB1E7A
:100C800008950E94400608950E9441069093A10194
:100C90008093A001089508950E944406089520912C
:100CA000A0013091A101822B932B0E94440608954C
:100CB0002091A0013091A101822393230E94440638
:100CC00008952091A0013091A101822793270E94CD
:100CD000440608950E94400608950E946A060895F9
:100CE0000E946D0690939F0180939E01089580E07D
:100CF00090E00E947006089521E030E0A90102C052
:100D0000440F551F8A95E2F7CA010E9470060895A4
:100D100021E030E002C0220F331F8A95E2F7809174
:100D20009E0190919F01822B932B0E947006089543
:100D300021E030E002C0220F331F8A95E2F72095B0
:100D4000309580919E0190919F01822393230E9470
:100D50007006089521E030E002C0220F331F8A950B
:100D6000E2F780919E0190919F01822793270E9434
:100D70007006089520919E0130919F01822B932B44
:100D80000E947006089520919E0130919F01822358
:100D900093230E947006089520919E0130919F0137
:100DA000822793270E947006089508959B0167701B
:100DB00091E001C0990F6A95EAF763E036952795AF
:100DC0006A95E1F7220F331F220F331FFA01E20F5A
:100DD000F31F40E050E0682F70E08191DF019B013C
:100DE000042E02C0369527950A94E2F721702195CA
:100DF0002827292328272E934F5F5F4F4430510522
:100E000061F708959C01982F977083E03695279598
:100E10008A95E1F7220F331F220F331FFB01E20FE8
:100E2000F31F40E050E080E0219130E0092E02C045
:100E3000369527950A94E2F721703327042E01C0D6
:100E4000220F0A94EAF7822B4F5F5F4F443051051F
:100E500059F70895282F862F923078F4253068F4BA
:100E6000692F70E071956195710965707727620F40
:100E7000711D46E951E00E94D6060895482F923030
:100E800080F4853070F4892F90E0919581959109D7
:100E90008570992766E971E0840F911D0E94020711
:100EA000089580E00895A0E0B0E0E9E5F7E00C9453
:100EB000981E8C01E0909E01F0909F018091A0010E
:100EC0009091A101E82AF92ACFE0D0E0CC24C39484
:100ED000D12CC6010C2E02C0880F991F0A94E2F78C
:100EE0008E219F21892B49F4219798F7B12C8B2DC6
:100EF000CDB7DEB7E9E00C94B41EBC2EB8018C2F40
:100F00000E94580E019781F3F2CFCF93DF93D82F31
:100F1000C92F0E9453076D2F7C2F0E94580EDF911E
:100F2000CF9108951F93CF93DF93162FD72F9091D2
:100F30009501911541F0862F972F0E948507DF912B
:100F4000CF911F910895811581F0862F972F0E94D0
:100F50005307C82F682F812F9D2F0E942A07612FCA
:100F60007D2F8C2F0E94580EEACF862F972F0E943C
:100F70003E07C82FF4CF0F931F93CF93E091A201A8
:100F8000C7E08091A3018E1304C0CF911F910F91F0
:100F900008950E2F10E0CE9FF0011124EC55FE4F66
:100FA00020813181428153816481758186810E94D3
:100FB0003606F8013196E770E4CF2091DC013091DC
:100FC000DD014091DE015091DF016091E0017091FF
:100FD000E1018091E2010E94360608958091E201CC
:100FE000803178F48091E101811559F0E091A201FE
:100FF0002091A3013091DD014091DC0157E02E13D7
:1010000001C008956E2F70E05E9FF0011124DF0192
:10101000AC55BE4F14968C911497811561F11196C1
:101020008C911197831327C08C91841324C015963B
:101030008C91159781111FC012968D919C91A09152
:10104000DE01B091DF018A1B9B0B883C910598F46F
:101050008091E2018F7080618093E201E655FE4F3E
:1010600080818F70806180838CED91E00E94BD054E
:101070000E94BB070895FB013196E770C0CFE09155
:10108000A2019091A30127E0E91302C080E0089536
:10109000AE2FB0E02E9FF0011124EC55FE4F3181B0
:1010A000361306C03081381303C03581341304C0B1
:1010B000FD013196E770E8CF81E008958F929F920D
:1010C000AF92BF92DF92EF92FF920F931F93CF9355
:1010D000DF93CDB7DEB72D970FB6F894DEBF0FBE06
:1010E000CDBF8C0186E0F801DE01189601900D92CB
:1010F0008A95E1F7F801F58084819CED892E91E0D5
:10110000992E9091E00191111BC0811509F4FFC047
:10111000F11409F440C1C8010E941F06811509F4A9
:101120003AC187E0F801D40101900D928A95E1F768
:10113000C4010E94ED020E94EE070E94DD07E7C095
:10114000E080A280B380D090E1012091DE01309157
:10115000DF01A501421B530BD11409F4DBC0483C4D
:10116000510508F0A6C0811509F4D1C09091DD01A8
:1011700091808091E201803108F06BC0991228C003
:101180009091DC019E1124C0F1105DC08F708061D0
:101190008093E2010E94DD078CED91E00E94BD0585
:1011A0008091E201F8018683F12C8F2D2D960FB6E8
:1011B000F894DEBF0FBECDBFDF91CF911F910F918D
:1011C000FF90EF90DF90BF90AF909F908F90089529
:1011D000F11039C040E0692D8E2D0E943F0840E09B
:1011E000692D8E2D0E943F08F82E8111DDCF888554
:1011F00099850E948507292F22952F70903450F4ED
:101200009F70223080F0911599F0F801968190310D
:1012100078F4CBCF2A5F2F70223078F0C8010E947B
:10122000BD05FD2CC2CF911519F0811509F4BDCF74
:10123000805E883008F4B9CFF1CF803F08F4B5CF95
:10124000815F8330F7CF8091E20181608093E2017A
:10125000ABCF991207C09091DC019E1103C0F1142D
:1012600009F479C0C8010E941F06811509F493C0D2
:10127000F11409F490C08091E201803288F020914D
:10128000DC013091DD013A832983BC82AB829091ED
:10129000E0019D831E828F83CE0101960E94BD05D1
:1012A00087E0F801ACEDB1E001900D928A95E1F78D
:1012B00042CF9091E2019031A0F4488559856A852A
:1012C0007B858C859D850E942C068CED91E00E948B
:1012D000BD0587E0F40111928A95E9F70E94DD07C8
:1012E00063CF8115A1F02091DD0181812813BACF50
:1012F0008091DC018E11B6CFF110B4CF9683C80176
:101300000E94BD0587E0F40111928A95E9F7FF2458
:10131000F3944BCF483C510508F041C08115B9F317
:10132000F114C9F19091DD01818198132AC0809157
:10133000DC018E1126C08091E20180FD19C0803150
:10134000B8F08683807F803F39F08681982F907F28
:10135000905F8F70892B8683C8010E94BD0587E04E
:10136000F801ACEDB1E001900D928A95E1F7E5CE80
:1013700087E0F801ACEDB1E001900D928A95E1F7BC
:10138000C6CFC8010E941F0681118ACF8091E20159
:1013900081608093E201C8010E94BD05B8CF4885F5
:1013A00059856A857B858C859D850E942C0691CF09
:1013B000AEE0B0E0EEEDF9E00C949E1E2887398790
:1013C0004A875B876C877D878E87CE0108960E944F
:1013D0005E086C858115A9F0611541F02885398575
:1013E0004A855B857D858E850E94360617E0809153
:1013F000A2019091A30189133AC02E96E3E00C94C8
:10140000BA1E87E0FE013896DE01119601900D921A
:101410008A95E1F7611551F3A091A3018A2F90E01D
:101420000196877099272091A2012817190689F043
:1014300097E09A9FD0011124AC55BE4FFE01319622
:1014400001900D929A95E1F78093A3010E94BB074A
:10145000CDCF0E94F6051092A3011092A20187E061
:10146000ECEDF1E0DF011D928A95E9F7BFCF189FFF
:10147000C00111248C559E4F0E945E08811509F40D
:10148000BCCFE091A2011E9FF0011124EC55FE4F4C
:1014900020813181428153816481758186810E94DE
:1014A00036068091A20190E001968770992780937B
:1014B000A2019DCF80910B02869586958695089511
:1014C00080910B028770089590910B02977081E0D4
:1014D000911101C080E008958091370208959091A4
:1014E0003702982B909337020895982F909580910A
:1014F00037028923809337020895109237020895A6
:1015000090913602982B909336020895982F9095DB
:101510008091360289238093360208951092360214
:10152000089508950E94910A089590910C02292F20
:101530002823211531F08095892380930C020E9485
:10154000920A089508950E94A20A089590910D02AA
:10155000292F2823281729F0982B90930D020E94F9
:10156000A30A089590910D02292F2823211531F007
:101570008095892380930D020E94A30A089580918B
:101580000D02811529F010920D0280E00E94A30A3D
:101590000895CF93C091370280913602C82B809175
:1015A0000D02811531F0C82B0E946B1581110E942C
:1015B000BF0A8C2FCF910895CF93DF93C091020182
:1015C000D09103010E94C90A8883C0910201D09181
:1015D000030148E050E063E072E0CE010E94DA1EB1
:1015E000892B59F088E0FE01A3E0B2E001900D9252
:1015F0008A95E1F7CE010E94F614DF91CF9108950C
:10160000CF93DF93C0910001D09101010E94C90ADC
:101610008983C0910001D091010140E250E063EE66
:1016200071E0CE010E94DA1E892B59F080E2FE01A2
:10163000A3EEB1E001900D928A95E1F7CE010E94F0
:101640000115DF91CF9108950E94DC16813039F4A5
:101650008091680287FF03C00E94000B08950E94DA
:10166000DC0A089508950E94320B0895962F209168
:10167000690222FF11C0682F660F660F660F692B83
:1016800060930B020E94880680910B0286958695D6
:1016900086950E94330B08950E9488060895109243
:1016A0000B0280E00E94330B089590910B0280950D
:1016B000892380930B02282F277021110DC08917D1
:1016C00059F09091690292FF07C08695869586959C
:1016D0000E9498060E944F0B08959091690292FB18
:1016E000222720F9281769F080FB92F9909369026C
:1016F00080916802909169020E94BB0B82E00E9477
:10170000550B089580916902002482FF0394802D77
:101710000E946D0B089581E00E946D0B089580E09A
:101720000E946D0B08956FEF7FEF80E090E00E94C4
:101730002C1F089580E090E00E94F81E9C0181E03B
:10174000253E3E4F09F080E0089582E090E00E943F
:10175000F01E089583E090E00E94F01E90E008954E
:10176000682F83E090E00E940E1F089584E090E0CF
:101770000E94F81E0895BC0184E090E00E942C1F96
:101780000895AB01BC018FE090E00E94201F0895F6
:10179000AB01BC0183E190E00E94201F089560E04E
:1017A00070E0CB010E94C80B089560E070E0CB01AF
:1017B0000E94C10B0E94CF0B0895A8E0B0E0E3EEB9
:1017C000FBE00C949F1E65EE7EEF80E090E00E94AF
:1017D0002C1F60E082E090E00E940E1F81E090E00C
:1017E0009093A1018093A0010E94B00B60E074E18E
:1017F00084E090E00E942C1F60E086E090E00E9470
:101800000E1F60E087E090E00E940E1F40E050E075
:10181000BA0188E090E00E94201F60E083E290E03F
:101820000E940E1F60E08CE090E00E940E1F60E0BE
:101830008DE090E00E940E1F19821A821B821C828A
:101840001D821E821F82188648E050E067E170E02A
:10185000CE0101960E94FE1E40E050E0BA018FE1E9
:1018600090E00E94201F0E94D50B2896E2E00C9485
:10187000BB1E0E94DD0B0895682F8EE090E00E9451
:101880000E1F0895A6E0B0E0E8E4FCE00C949D1E75
:101890000E9490178C018091380290913902801734
:1018A000910779F019821A820E949017BC01498130
:1018B0005A8180E090E00E94BD02109339020093AB
:1018C00038022696E4E00C94B91E0E949C1760939F
:1018D00040027093410280934202909343026093CE
:1018E0003C0270933D0280933E0290933F02089524
:1018F000089508950E94780C089508950E947D0C23
:101900000E947A0C089508950E94830C089508950A
:101910000E94870C0E94840C08958DE49FE00E9431
:10192000A6100E94790C0E947E0C089581E0089513
:1019300081E008950E94960C0895089508950895F1
:101940000E949D0C0E949E0C0E949F0C08950E9474
:101950009A0B811102C00E94390C0E94A50B809342
:1019600044020E94B60B90936902809368020E9421
:10197000C9100E94AA0B0E944C0680919E01909172
:101980009F010E946D0608950E9487170E9409100A
:101990000E94A70C0E9497020E94880C0895A6E05E
:1019A000B0E0E5EDFCE00C94971E0E94980C8111CC
:1019B0000AC00E94420C0E945C130E94A402269658
:1019C000EAE00C94B31E0E94191010913A0280E0D4
:1019D0000E94690F181307C010913B0281E00E941A
:1019E000690F181731F38091440281FD0E946F0F37
:1019F0000E949A0CC82E8AE3A82E82E0B82E00E03E
:101A0000802F0E94690F182FF50191915F018917AE
:101A100039F1D82ED926F12CEE24E3948D2D8E2188
:101A20008115B9F0C114A9F0F9820A830E949017B8
:101A30009C838B8381E08D8391E0812F8E218111A6
:101A400001C090E049815A816B817C818D810E9427
:101A5000BD02F394EE0CF5E0FF12E0CFF501129316
:101A600081E0800F01E0823059F60E94650CA3CF1F
:101A70001F93CF93DF930E945D0EEC01811522E549
:101A8000920708F05DC0811540E5940708F0DBC0BF
:101A9000803E910528F58D3C910508F0ACC0883A50
:101AA000910578F4853A910508F0A2C0813091053E
:101AB00009F441C00497813A9105E8F1C0E0D0E013
:101AC0003AC0885A91094B97C8F7C85AD0E0CC0F52
:101AD000DD1FC05BDE4F0990D881C02DD4642BC0C0
:101AE000811550E49507F8F4C11580E2D80708F095
:101AF000C0C0C83ED105F8F0CE019A9581159F412E
:101B0000E8F68D2F0E94FE0E182FCE0199270E9415
:101B10005D0E212F30E0322F2227E901CC27DF7123
:101B2000C82BD92B08C099270E945D0ECC27DF70E7
:101B3000C82BD92BD06ACE01DF91CF911F91089588
:101B4000803842E59407C8F5803652E5950708F0DD
:101B50005BC0C03482E5D807D0F4C03292E5D90723
:101B600008F04BC08C2F8695869520E2829FC0019D
:101B70001124C37021E030E0A90102C0440F551FB9
:101B8000CA95E2F7EA01C82BD92BDD68D4CF8C2F98
:101B900086958695877050E2859FC0011124C37099
:101BA00021E030E0A90102C0440F551FCA95E2F7B9
:101BB000EA01C82BD92BDC68BECF803C52E59507E3
:101BC00058F48F71C03AD245A0F590E0982F88273D
:101BD000EC01C46FD06AAFCF805C9245809708F06B
:101BE0006DCFDC2FCC27CC27DF71C06FD06AA3CF9D
:101BF000A497D064A0CFD0659ECFCF71D0E0DC2F6A
:101C0000CC27C16FD06A97CF86958695877020E2E2
:101C1000829FC0011124C37021E030E0A90102C0FD
:101C2000440F551FCA95E2F7EA01C82BD92BDA6891
:101C300082CF0E94FE0EC82FD0E0DC2FCC27CC270D
:101C4000DF71D06278CF8F710E94FE0E53E0CC0F0F
:101C5000DD1F5A95E1F7CC27DF70282F30E084FF95
:101C600004C050E1859F90011124C22BD32BD06971
:101C700062CF8D2F8F710E94FE0E182FCE019927F3
:101C80000E945D0E212F30E0322F222722273F7144
:101C9000282B392BE901D5CF462F672F723028F436
:101CA000453018F40E944C01089580E090E00895BA
:101CB0000E944C0E0E94380D08959C01803E9105B3
:101CC00009F448C0D8F48133910509F47DC048F483
:101CD0008932910509F46DC08A9709F47CC0C90165
:101CE00008958933910551F18238910539F1C597ED
:101CF000B1F78091680285FFF2CF29C0843E91053B
:101D000009F447C048F4823E910599F1833E91055C
:101D1000A9F121EE30E0E3CF863E910509F444C0FD
:101D2000873E9105E1F68091680283FD61C0909144
:101D3000690291FF2BC024EE30E0D1CF8091680280
:101D40008370811152C08091690283FFC8CF29E25C
:101D500030E0C5CF8091680280FD33C09091690268
:101D600090FFBDCF23EE30E084FFB9CF20E030E01C
:101D7000B6CF8091680282FDF5CFB1CF8091680225
:101D800082FD30C09091690290FD2FC084FFA7CFE3
:101D9000EDCF8091690281FFA2CF8091680227EE8A
:101DA00030E084FDE3CF9BCF8091680283FDF7CFC5
:101DB00096CF8091680285FD1EC08091690283FFE5
:101DC0008ECF29E330E08BCF8091680286FF87CFEA
:101DD0002AE230E084CF8091680286FF80CF21E341
:101DE00030E07DCF22EE30E07ACF20EE30E077CFCA
:101DF00026EE30E074CF25E330E071CF9091680299
:101E000092FF10C041E0282F2471243009F040E0F7
:101E100031E0282F2871283009F030E0431711F005
:101E20002CE0822793FF10C041E0282F2471243139
:101E300009F040E031E0282F2871283109F030E026
:101E4000431711F02CE082273091690230FF10C057
:101E500051E0282F2171213009F050E041E0282F76
:101E60002871283009F040E0541711F029E082274A
:101E700031FF10C041E0282F2171213109F040E0ED
:101E800031E0282F2871283109F030E0431711F094
:101E900029E0822794FD877E089580E00895CF93FE
:101EA0009C01FB01805E9245C1E0809738F4C581BA
:101EB000C11104C0822F8F710E94DC018C2FCF9141
:101EC000089508950E94610F089508950E94650F76
:101ED0000895E82FF0E0E459FD4F808108950895BA
:101EE00080EA8A95F1F7089500C008950E94700F66
:101EF0000895F894E82FE295EF70F0E041A18F701B
:101F000021E030E0B90102C0660F771F8A95E2F741
:101F1000CB01962F9095942391A392A1892B82A314
:101F2000789408950F931F93CF93DF9384E30E94D7
:101F3000790F85E30E94790FC6E8D1E00BE811E044
:101F400089918F3F11F00E94790F0C171D07C1F77F
:101F5000DF91CF911F910F910895A0E0B0E0E3EBE6
:101F6000FFE00C94991EEC01D62E062F10E0C8015C
:101F700085579E4F7C01FC0180818F3F09F444C04E
:101F8000F894E82FE295EF70F0E091A18F7021E0D6
:101F900030E001C0220F8A95EAF7892F822B81A3B6
:101FA00082A12095282322A378940E94740FA6E88A
:101FB000B1E091E0C12C8D918F3F79F0E82FE2954F
:101FC000EF70E05EF0E0208130E08F7002C0359568
:101FD00027958A95E2F7892F20FD80E0C82A990F7E
:101FE000F1E0AB38BF0739F7F70180818F3F11F07F
:101FF0000E94790F61E0C11001C060E08D2D0E9448
:10200000760FC00FD11FC882CDB7DEB7E8E00C94C1
:10201000B51E0E94920F10926D0210926C021092E7
:102020006B0210926A0282E00E944E100E94620FC0
:102030000895A2E0B0E0EFE1F0E10C949E1E1A8258
:10204000198260E0CE0101960E94AD0F61E0CE01E1
:1020500001960E94AD0F42E050E0BE016F5F7F4FDE
:102060008AE692E00E94DA1E21E0892B81F420E0CA
:1020700042E06CE672E08AE692E00E944F10182F70
:102080000E94660F812F2296E3E00C94BA1E89818C
:102090009A8190936B0280936A02EACF0895A0E040
:1020A000B0E0E5E5F0E10C94991ED82EE92EF62E6D
:1020B000D72F042FC22F211579F081E0809347029A
:1020C0000E949017909346028093450280E0CDB71E
:1020D000DEB7E8E00C94B51EC0904702C114B1F31E
:1020E00080914502909146020E941F17059770F358
:1020F00010E0A8016D2D7E2D8F2D9D2F0E94DA1EE0
:10210000892B41F0A8016D2D7E2D8F2D9D2F0E94D2
:10211000E71ECC2D109247028C2FD9CF0E94CF0CF6
:1021200008950E9429170E9432190E948D0C0E9466
:102130004C190E94C40C0E9459190E945E190E94F9
:102140008E100E9478190E94A00CF7CF90938F01F7
:1021500080938E0108950E94930B089580E00E9461
:10216000690F817008950E9419102FEF86E791E0A2
:10217000215080409040E1F700C000000E941910FB
:102180000E94AE10811521F00E94AB100E94CC1766
:1021900008950E94B3100895CF93DF93EB01863129
:1021A0009C4719F50E946C0A9D819115A1F08A7ACD
:1021B00091E0811101C090E090934802811549F0AF
:1021C00085E30E941C160E94240B80E0DF91CF91D2
:1021D000089589E2F6CF80914802811521F085E3C8
:1021E0000E943616F0CF89E2FBCF81E0EFCFCF938C
:1021F000DF93EC01FB018581811509F4CFC09E01BD
:1022000030572332310508F0AFC00E94B60B9093CF
:10221000690280936802FE01E150F047E232F10565
:1022200020F4E05BF04E0C94891E8091680281607E
:102230008093680290C080916902886080936902EF
:102240008AC0809168028260F3CF809168028460C6
:10225000EFCF809168028860EBCF80916902816046
:10226000EDCF809169028260E9CF80916802806140
:10227000DFCF809168028062DBCF8091680280644A
:10228000D7CF0E94F605809168028068D1CF8091F7
:1022900068028C60CDCF809169028360CFCF80913E
:1022A00068028E7FC5CF80916902877FC7CF8091FA
:1022B00068028D7FBDCF809168028B7FB9CF8091FE
:1022C0006802877FB5CF809169028E7FB7CF8091FA
:1022D00069028D7FB3CF809168028F7EA9CF8091F4
:1022E00068028F7DA5CF809168028F7BA1CF0E946D
:1022F000F605809168028F779BCF80916802837F7B
:1023000097CF809169028C7F99CF8091680299273D
:1023100082FF939590FB82F990FB83F989CF80919E
:102320006902982F909590FB80F990FB81F986CFF8
:1023300090916802892F8F7B96FF806479CF0E94ED
:10234000F60590916802892F97FB87F9805870CF26
:1023500081E00E943C0C80916802909169020E9489
:10236000BB0B0E94F60580E0DF91CF91089580E0DD
:10237000F0CF90916802892F8F7E94FF806158CFB3
:1023800090916802892F8E7F90FF816051CF90914C
:102390006902892F877F93FF886050CF81E0E4CF67
:1023A000282F35EB2303C001112497FF04C0805868
:1023B0009109892F089580589F4FFBCF80914F023C
:1023C00080FF0DC06091090170E0660F771F6038D3
:1023D0007105B0F561157105A9F1862F089581FF8A
:1023E00007C06091090184E0689FB0011124EFCF1C
:1023F00082FF04C06091090188E0F6CF90914E02FF
:102400009115D9F02091080180910901682F70E0A1
:10241000921730F043E0660F771F4A95E1F7D7CF68
:10242000899FC001112433E0880F991F3A95E1F785
:10243000622F70E00E94751ECACF68E070E0CDCFB9
:102440008FE7089581E0089580914F0280FF0CC0CE
:102450006091050170E075956795759567956115B3
:10246000710549F1862F089581FF06C0609105012D
:1024700070E075956795F3CF6091050182FD0BC003
:1024800090914D029115A1F0609104018091050198
:10249000961738F0682F70E06038710500F38FE709
:1024A0000895899FC001112470E00E94751EF4CF29
:1024B00061E070E0D7CF81E00895E3E3E80FE33116
:1024C000E0F5F0E0EE58F04E0C94891E0E94DE110B
:1024D00081958093530208950E94DE11FACF0E94E5
:1024E000DE1181958093520208950E94DE11FACF89
:1024F0000E9424128093540208950E942412819510
:10250000F9CF0E94241281958093550208950E946C
:102510002412FACF815D990B21E030E001C0220F37
:102520008A95EAF780915102822B80935102089597
:1025300080914F02816080934F02089580914F02F5
:102540008260F9CF80914F028460F5CF40915202B2
:102550008D3C59F48091530287FF0DC010925302B5
:10256000411559F410924E0208C08E3C81F48091BE
:10257000530218169CF3411581F0809154029091FA
:102580005502892B811159C010924D0208958F3C3C
:1025900041F447FFF0CF109252028091530281150F
:1025A000E0CF803D19F41416B4F3E5CF90915402B6
:1025B000893D29F41916FCF610925402DCCF8A3DAD
:1025C00019F497FFD8CFF8CF909155028B3D29F49D
:1025D00097FFD1CF10925502CECF8C3D19F419162A
:1025E000CCF3C9CF9FE2980F983090F4815D990B9E
:1025F00021E030E0B90102C0660F771F8A95E2F74B
:10260000CB01809590915102892380935102B3CFE1
:102610008D3D31F480914F028E7F80934F02ABCF7E
:102620008E3D21F480914F028D7FF7CF8F3D09F0D1
:10263000A2CF80914F028B7FF0CF08950E94901718
:102640002091520230915302232B211521F08093C7
:102650004B0290934C022091540230915502232B4F
:10266000211521F08093490290934A0280E592E07F
:102670000E941015089586E0E0E5F2E0DF011D926A
:102680008A95E9F710924E0210924D0210924F0275
:102690000895FC01828181110DC0838181110AC0DE
:1026A0008481811107C081E09581911101C080E092
:1026B0008170089581E0FCCFA6E0B0E0E2E6F3E1AE
:1026C0000C94991E86E0E0E5F2E09E012F5F3F4FFB
:1026D000D90101900D928A95E1F710925202109261
:1026E000530210925402109255028B819C81892BC7
:1026F0007901811589F080914B0290914C020E94E2
:102700001F176C0180914E028115B9F190910A0159
:102710009C151D0408F43EC08D819E81892B811576
:1027200091F08091490290914A020E941F178C01FA
:1027300080914D02811509F45FC0909106019017B8
:10274000110608F467C0B70180E592E00E946A169E
:10275000811105C080E592E00E94491381110E9419
:102760001E1386E0F701A0E5B2E001900D928A9574
:10277000E1F72696E8E00C94B51E20910B019AE053
:10278000299F900111242C153D0530F68F5F809311
:102790004E0202C08F3FD1F7DB80D11459F00E9466
:1027A000DE1191E01D140CF09FEF899F802D112404
:1027B00080935202DC80D11459F00E94DE1191E026
:1027C0001D140CF09FEF899F802D112480935302DC
:1027D00080915202811509F49FCFD0905302D114F9
:1027E00009F49ACF0E94D011809352028D2D0E943D
:1027F000D0118093530290CF209107019AE0299F36
:10280000900111242017310708F09DCF8F5F80932E
:102810004D0202C08F3FD1F71D81111559F00E9462
:10282000241291E011160CF09FEF899F802D112446
:10283000809354021E81111559F00E94241291E0D8
:1028400011160CF09FEF899F802D11248093550263
:1028500080915402811509F476CF1091550211151B
:1028600009F471CF0E94D01180935402812F0E94ED
:10287000D0118093550267CF0F931F93CF93DF93AF
:10288000C42FD22FFC0185818115C9F040935802D5
:102890000E949017909357028093560280E28C0F0B
:1028A000883040F4C77081E001C0880FCA95EAF70C
:1028B0000E949E03DF91CF911F910F910895109177
:1028C0005802141333C080915602909157020E940F
:1028D0001F17883C910550F5C0E2CD0F1D17C1F0C0
:1028E00080E2810F883040F4177081E001C0880FCA
:1028F0001A95EAF70E94A503C83050F491E08D2F95
:10290000877001C0990F8A95EAF7892F0E949E036C
:10291000802F0E949503C83068F6D77081E001C00F
:10292000880FDA95EAF70E94A503C4CF80E28C0FE6
:10293000883008F0BFCFC77081E001C0880FCA950A
:10294000EAF7F1CF0F93DB01FC01E851FC47E730D8
:10295000F10598F5EB57F04E0C94891E06E221EE36
:1029600041EE6AE17CE7CD010E943C1480E00F91CA
:10297000089507E225EE45EE6BE17CE7F4CF06E231
:1029800021EE40EE68E17CE7EECF07E225EE44EE73
:1029900069E17CE7E8CF06E221EE42EE6CE17CE7FC
:1029A000E2CF07E225EE46EE6DE17CE7DCCF08E200
:1029B00021E045EE6EE17CE7D6CF15968C91811132
:1029C0001092580281E0D3CF90935E0280935D0213
:1029D0000895E0915D02F0915E02309729F0019038
:1029E000F081E02D0995089580E00895E0915D0261
:1029F000F0915E02309721F00280F381E02D09957D
:102A00000895DC01E0915D02F0915E02309739F0AB
:102A100086E08C930480F581E02DCD010995089521
:102A2000DC01E0915D02F0915E02309739F082E0C6
:102A30008C930680F781E02DCD0109950895A3E0E0
:102A4000B0E0E5E2F5E10C949F1E9C0180915B02F1
:102A500090915C0282179307A1F030935C0220935F
:102A60005B02E0915D02F0915E02309751F083E0ED
:102A700089833B832A830084F185E02DCE01019672
:102A800009952396E2E00C94BB1EA3E0B0E0EBE4D2
:102A9000F5E10C949F1E9C018091590290915A027D
:102AA00082179307A1F030935A0220935902E091C4
:102AB0005D02F0915E02309751F084E089833B83A0
:102AC0002A830084F185E02DCE0101960995239695
:102AD000E2E00C94BB1ECF93DF93C0910201D09132
:102AE000030122960E94DC16813081F480916802F5
:102AF00087FF0CC0C0910001D091010122969EE198
:102B000080E0915028F4DF91CF91089596E0F8CFBE
:102B100029912115B1F38F5FF4CFCF93C82F811185
:102B200002C080E031C00E94DC16813021F4809127
:102B3000680287FD0EC08091020190910301FC01A3
:102B40003296089621912C1709F1E817F907D1F769
:102B5000E8CF8C2F869586958695C03F10F7E0913B
:102B60000001F0910101E80FF11D228130E0C770F2
:102B700081E090E002C0880F991FCA95E2F72823F0
:102B8000392381E0232B69F2CF91089581E0FCCFB6
:102B90009C01FC0132968FEF90E04191461751F075
:102BA0008F3F19F4411101C0892F9F5F9630A9F71B
:102BB0008F3F09F40895280F311D87FD3A95F901DB
:102BC000628308959C01FC013296285F3F4F8191FA
:102BD000861302C0DF011E92E217F307C1F70895C2
:102BE000FC01862F869586958695603F60F4E80FF8
:102BF000F11D677021E030E001C0220F6A95EAF70D
:102C00008281822B82830895FC01862F869586958A
:102C10008695603F80F4E80FF11D677081E090E0D9
:102C20009C0102C0220F331F6A95E2F7B90160953B
:102C30008281682362830895CF93C82F0E94DC1697
:102C40006C2F813061F48091680287FF08C0809109
:102C50000001909101010E94F015CF91089580919B
:102C60000201909103010E94C815F7CFCF93C82F9E
:102C70000E94DC166C2F813061F48091680287FF1E
:102C800008C080910001909101010E940416CF912B
:102C9000089580910201909103010E94E215F7CFFF
:102CA0000E94DC16813079F48091680287FF0BC0A6
:102CB000E0910001F091010132968EE1DF011D9259
:102CC0008A95E9F70895E0910201F09103013296A7
:102CD00086E0F4CFDC01FB0111969C911197818174
:102CE000981322C012968C911297811519F0928137
:102CF00089131AC013968C911397811519F093813B
:102D0000891312C015968C911597811519F095812C
:102D100089130AC014969C91911521F081E02481B9
:102D2000291303C080E001C081E0817008950895F7
:102D30000E94971608958F5F80930F0160910C0198
:102D400070910D0180910E0190910F010E949816D3
:102D5000089583E080930F0160910C0170910D0143
:102D600080910E0190910F010E94981608950E9483
:102D70009B16089581E080930F0160910C01709182
:102D80000D0180910E0190910F010E9498160895F7
:102D90000E94BA16089591E0811101C090E09093CD
:102DA0000E0160910C0170910D0180910E019091C6
:102DB0000F010E949816089580910E010895809346
:102DC0000D0160910C0170910D0180910E019091A7
:102DD0000F010E949816089580910D010895809327
:102DE0000C0160910C0170910D0180910E01909188
:102DF0000F010E949816089580910C01089508957E
:102E000008950E9400170895089508950E94FF16DE
:102E100008950E9404170E9419100E94051780E06F
:102E20000E94690F811109C081E00E94690F982FEB
:102E300081E0911103C080E0089581E00895CF936F
:102E4000DF93EC010E9490178C1B9D0BDF91CF91BB
:102E5000089585B7806885BF85B7806885BF089568
:102E60001F921FB61F9211248F939F93AF93BF930E
:102E700080915F02811113C080916E0290916F0268
:102E8000A0917002B09171024196A11DB11D809375
:102E90006E0290936F02A0937002B0937102BF9183
:102EA000AF919F918F911F901FBE1F901895809199
:102EB0007602843031F10E94770210925F0288E13D
:102EC00090E020E40FB6F894A895809360000FBEC0
:102ED0002093600083B7817F846083BF83B7816064
:102EE00083BF7894889583B78E7F83BF0FB6F8949D
:102EF000A8958091600088618093600010926000C6
:102F00000FBE08950E94F6050E947E02089582E099
:102F100084BD93E095BD9AEF97BD80936E000895B0
:102F20002FB7F89480916E0290916F02A091700279
:102F3000B09171022FBF08952FB7F89460916E027F
:102F400070916F0280917002909171022FBF08956D
:102F500078941F921FB61F9211248F939F93AF9363
:102F6000BF9380916E0290916F02A0917002B09118
:102F700071020196A11DB11D80936E0290936F02A4
:102F8000A0937002B0937102BF91AF919F918F9106
:102F90001F901FBE1F90189587E797E79093010831
:102FA0008093000888E19AE00FB6F894A895809382
:102FB00060000FBE90936000FFCF88E19AE00FB6EB
:102FC000F894A895809360000FBE90936000FFCFA7
:102FD000282FCB01BA01309176023430D9F42F700A
:102FE0002093E9002FEF3091E80035FD06C035ED64
:102FF0003A95F1F700002A95B1F72091E80025FFF6
:1030000009C040E050E00E94EF198091E8008E77FF
:103010008093E8000895BC0143E050E082E00E9404
:10302000E8170895BC0146E050E082E00E94E817EE
:103030000895BC0140E250E082E00E94E817089544
:10304000CF93DF93D82FC92F0E94DC1648E050E0C1
:103050006D2F7C2F81E00E94E81788E0ED2FFC2F78
:10306000A0E6B2E001900D928A95E1F7DF91CF9151
:10307000089580917502811109C00E94781B0E94F9
:10308000D51B8091E20084608093E2000895109245
:10309000750208950E94BA1681E00E94CB16089529
:1030A0006091720281E0611101C080E00E94A91666
:1030B00008959091760281E0943009F080E060916B
:1030C00072020E94B716089542E061EC81E00E940E
:1030D000F41A42E261EC82E00E94F41A90917602C6
:1030E00081E0943009F080E0609172020E949B16AA
:1030F000089580917802893089F148F4823009F48A
:10310000A0C0833009F45AC0813041F008958A305C
:1031100009F487C08B3009F46CC008958091770260
:10312000813A09F04AC08091E800877F8093E800E7
:1031300080917B0290917C02892B61F060E080E0BD
:1031400090E070E00E943F1A8091E8008B778093B6
:10315000E800089568E080E692E0F3CF809177027E
:10316000813259F580917B0290917C02029728F57B
:103170008091E800877F8093E8008091E80082FFDB
:1031800018C09091F3008091F200029731F4809181
:10319000F100813011F0863021F48091F1000E941D
:1031A000DF168091E8008B778093E8000E94281B4F
:1031B0000895809176028111E0CF08958091770281
:1031C000813AD9F780917B0290917C02892BA9F7F3
:1031D0008091E800877F8093E8008091E80080FF7D
:1031E000FCCF0E94DC168093F1008091E8008E777E
:1031F000DBCF80917702813201F780917B02909141
:103200007C02892BD1F68091E800877F8093E800CB
:103210000E94281B809179020E94CB160E94F6051D
:10322000089580917702813241F68091E800877F8E
:103230008093E8000E94281B80917A020E94EF167A
:10324000089580917702813A09F0B7CF8091E80024
:10325000877F8093E8008091E80080FFFCCF0E9488
:10326000FC16C1CF84B7877F84BF0FB6F894A895AA
:1032700080916000886180936000109260000FBEB2
:1032800080E890E00FB6F89480936100909361001D
:103290000FBE0E94C81608950E94781B0E94D51B7D
:1032A000E2EEF0E080818460808378940E945B1E6F
:1032B000089580E191E00E94E414089580917602DF
:1032C000853031F480917602853019F00E948217A2
:1032D00008950E9457170E940917811599F380914C
:1032E0007402811579F30E94D9190E94F605EACF7C
:1032F00008959A0140917D0250917E020E948119A9
:103300000895FC01D9018F2F992783309105C1F0D1
:1033100068F48130910509F447C0029761F48BE3AA
:1033200090E020EE30E02D933C930895813291059A
:10333000E1F0829749F180E090E020E030E0F3CFC7
:10334000CF019927E13059F08230910559F0ECED29
:10335000F0E0892B81F7849190E09F01E4CFEEECBF
:10336000F0E0F9CFE0ECF0E0F6CF89E090E022EF7A
:1033700030E061157105B9F289E090E02BE031E0B1
:103380006130710581F2D7CF84E490E023EE31E023
:103390006115710541F286EB90E02DE231E061307C
:1033A000710509F4C0CFC7CF82E190E02BE131E095
:1033B000BACF80E189BD82E189BD09B400FEFDCFAD
:1033C0008091D8008F7D8093D8008091E00082604A
:1033D0008093E0008091E00081FDFCCF0895AF92E2
:1033E000BF92CF92DF92EF92FF920F931F93CF93F2
:1033F0006C018B017A010E94471BC82F811123C0E9
:10340000E114F10439F0F70180819181081B190B57
:10341000C80ED91EA12CB12C01151105A1F0809167
:10342000E80085FD21C08091E8008E778093E80058
:10343000E114F10499F0F701808191818A0D9B1DBF
:1034400091838083C5E08C2FCF911F910F91FF90C6
:10345000EF90DF90CF90BF90AF9008950E94471BF0
:103460008115E9F2C82FEFCFF60181916F018093AA
:10347000F10001501109FFEFAF1ABF0ACDCFFC01D7
:103480009B0180917D0290917E028617970718F02C
:10349000672B61F0C90140E0009771F441110CC045
:1034A0008091E80082FF35C080E008958091E800B7
:1034B0008E778093E800EECF209176022115A9F156
:1034C0002530A9F12091E80023FD2DC02091E800CE
:1034D00022FDE6CF2091E80020FFDECF3091F300FF
:1034E0002091F200009719F02830310558F041E0A2
:1034F0002830310509F040E02091E8002E77209334
:10350000E800CACF41914093F10001972F5F3F4FF0
:10351000E9CF80917602811541F0853041F08091AC
:10352000E80083FFBDCF81E0089582E0089583E045
:103530000895FC019B0180917D0290917E02861787
:10354000970718F0672B61F0C90140E0009771F40C
:1035500041110CC08091E80082FF36C080E00895E0
:103560008091E8008E778093E800EECF209176027C
:103570002115B1F12530B1F12091E80023FD2EC0D5
:103580002091E80022FDE6CF2091E80020FFDECF69
:103590003091F3002091F200009719F028303105A6
:1035A00058F041E02830310509F040E02091E80072
:1035B0002E772093E800CACF44914093F1003196D2
:1035C00001972F5F3F4FE8CF80917602811541F040
:1035D000853041F08091E80083FFBCCF81E0089501
:1035E00082E0089583E00895982F973028F08F7037
:1035F0008093E90081E008959093E900242F762FCD
:1036000050E0981731F07091EC002091ED0050914E
:10361000F00021FD02C09F5FE8CF3091EB003E7FBC
:103620003093EB003091ED003D7F3093ED00309111
:10363000EB0031603093EB007093EC002093ED00D1
:103640005093F0002091EE0027FDE5CF80E0089533
:103650008091770287FF13C08091E80082FF06C047
:103660008091E8008B778093E8000895809176023E
:103670008111F2CF0895809176028115D9F380915E
:10368000E80080FFF8CF8091E8008E77ECCF2091A2
:10369000E4003091E50095E6A9012091EC00822F2D
:1036A000817020FF06C08091E80080FF06C080E0A6
:1036B00008952091E80022FD1AC0809176028115BC
:1036C00089F0853089F08091EB0085FD0FC0209155
:1036D000E4003091E50042175307F9F29A95E1F6BC
:1036E00084E0089582E0089583E0089581E00895DC
:1036F0000E94E71B0E94EF1BE0EEF0E080818160FA
:103700008083E8EDF0E080818F77808319BCA7ED9E
:10371000B0E08C918E7F8C9380818F7E808310921D
:10372000750208950F931F93CF93DF930E94E71BB9
:103730000E94EF1BC8EDD0E088818F778883888155
:103740008068888388818F7D888319BC1092760277
:1037500010927202109274021092730200EE10E046
:10376000F80180818B7F808388818160888342E03B
:1037700060E080E00E94F41AE1EEF0E080818E7F4C
:103780008083E2EEF0E080818160808380818860C8
:103790008083F80180818E7F808388818061888327
:1037A000DF91CF911F910F910895E8EDF0E08081B6
:1037B0008F7E8083E7EDF0E080818160808384E00C
:1037C00082BF81E0809375020E94921B0895E8ED0C
:1037D000F0E080818E7F80831092E2000895109245
:1037E000DA001092E10008951F920F920FB60F9227
:1037F00011242F933F934F935F936F937F938F93F6
:103800009F93AF93BF93EF93FF938091E10082FF6B
:103810000BC08091E20082FF07C08091E1008B7FA6
:103820008093E1000E945A1E8091DA0080FF19C047
:103830008091D80080FF15C08091DA008E7F809340
:10384000DA008091D90080FF94C080E189BD82E1D7
:1038500089BD09B400FEFDCF81E0809376020E940D
:1038600039188091E10080FF19C08091E20080FF4B
:1038700015C08091E2008E7F8093E2008091E2008B
:1038800080618093E2008091D80080628093D800AC
:1038900019BC85E0809376020E9450188091E10067
:1038A00084FF29C08091E20084FF25C080E189BDAA
:1038B00082E189BD09B400FEFDCF8091D8008F7DE3
:1038C0008093D8008091E1008F7E8093E100809109
:1038D000E2008F7E8093E2008091E200816080931D
:1038E000E20080917202811509F449C084E080935E
:1038F00076020E9459188091E10083FF29C08091CF
:10390000E20083FF25C08091E100877F8093E10082
:1039100082E080937602109272028091E1008E7FA5
:103920008093E1008091E2008E7F8093E20080919D
:10393000E20080618093E20042E060E080E00E946B
:10394000F41A8091F00088608093F0000E944A1879
:10395000FF91EF91BF91AF919F918F917F916F9167
:103960005F914F913F912F910F900FBE0F901F903D
:10397000189519BC109276020E94471872CF809158
:10398000E30087FF02C083E0B2CF81E0B0CF1F9297
:103990000F920FB60F921124EF92FF920F931F9385
:1039A0002F933F934F935F936F937F938F939F9347
:1039B000AF93BF93CF93EF93FF9309EE10E0F8011D
:1039C0008081C091EC008F70C795CC27C795C82B1C
:1039D000108280EFE82EF12CF7018081877F8083B1
:1039E00078940E94121DF8011082F701808188608E
:1039F0008083CF70F801C083FF91EF91CF91BF9189
:103A0000AF919F918F917F916F915F914F913F9176
:103A10002F911F910F91FF90EF900F900FBE0F907D
:103A20001F901895AAE2B0E0E8E1FDE10C949D1E1C
:103A300087E792E0FC0101962091F100208322E0CB
:103A40008F379207B9F70E9479188091E80083FFB9
:103A500038C080917702909178029A3090F5E92FE2
:103A6000F0E0E457F04E0C94891E803889F08238DB
:103A700041F580917B028F70873018F58093E900C3
:103A80008091EB0085FB882780F91092E90006C041
:103A900080917402880F90917302892B9091E800B5
:103AA000977F9093E8008093F1001092F10080914D
:103AB000E8008E7723C0811116C080917902813091
:103AC00011F18091E80083FF0AC08091E800877FB0
:103AD0008093E8008091EB0080628093EB00AA96CF
:103AE000E4E00C94B91E823061F78091790281156F
:103AF00089F01092E9008091E800877F8093E800C8
:103B00000E94281BDECF81E0933009F080E0809393
:103B10007402EFCF80917B028F702FEF280F263039
:103B200080F68093E9002091EB0020FFE2CF9330F4
:103B300031F48091EB0080628093EB00DACF9091BA
:103B4000EB0090619093EB0021E030E0A90102C00E
:103B5000440F551F8A95E2F74093EA001092EA005D
:103B60008091EB008860E8CF8111ABCF1091790292
:103B70001F778091E3008078812B8093E300809110
:103B8000E800877F8093E8000E94281B8091E8006E
:103B900080FFFCCF8091E30080688093E30083E0A6
:103BA000111101C082E0809376028BCF8058823061
:103BB00008F087CF8091790290917A028C3D53E092
:103BC000950799F583E08A838AE289834FB7F89451
:103BD000DE01139620E03EE051E2E32FF0E0509347
:103BE0005700849120FF03C082958F703F5F8F70D4
:103BF0008A30C8F0895C90E08D939D932F5F2431CB
:103C000061F74FBF8091E800877F8093E8006AE208
:103C100070E0CE0101960E943F1A8091E8008B77F8
:103C20008093E8004ECF805DE6CF60917B0270917B
:103C30007C02AE014F5F5F4F0E9479198C01892B86
:103C400009F43FCF8091E800877F8093E800B801B6
:103C500089819A810E94991AE0CF803809F031CF8A
:103C60008091E800877F8093E800809172028093C2
:103C7000F1001DCF811125CF90917902923008F08B
:103C800020CF8091E800877F8093E80090937202B4
:103C90000E94281B80917202811531F084E080938C
:103CA00076020E9464180DCF8091E30087FDF6CF65
:103CB00081E0F5CF0895CF9380917602811599F038
:103CC0008091E900C091EC008F70C795CC27C79513
:103CD000C82B1092E9008091E80083FD0E94121D1C
:103CE000CF70C093E900CF91089597FB072E16F48B
:103CF000009407D077FD09D00E94C61E07FC05D0AE
:103D00003EF4909581959F4F0895709561957F4FF2
:103D10000895EE0FFF1F0590F491E02D09942F9266
:103D20003F924F925F926F927F928F929F92AF924B
:103D3000BF92CF92DF92EF92FF920F931F93CF9398
:103D4000DF93CDB7DEB7CA1BDB0B0FB6F894DEBF2F
:103D50000FBECDBF09942A88398848885F846E8455
:103D60007D848C849B84AA84B984C884DF80EE809F
:103D7000FD800C811B81AA81B981CE0FD11D0FB6A8
:103D8000F894DEBF0FBECDBFED010895AA1BBB1B8B
:103D900051E107C0AA1FBB1FA617B70710F0A61B4B
:103DA000B70B881F991F5A95A9F780959095BC016C
:103DB000CD010895FB01DC0104C08D9101908019B3
:103DC00021F441505040C8F7881B990B0895FB011E
:103DD000DC0102C001900D9241505040D8F7089587
:103DE000F999FECF92BD81BDF89A992780B50895C3
:103DF000A8E1B0E042E050E00C94341FDC01A40FD5
:103E0000B51F4150504048F0CB01840F951F2E91B3
:103E10000E940F1F41505040D0F70895262FF99966
:103E2000FECF92BD81BDF89A019700B4021639F019
:103E30001FBA20BD0FB6F894FA9AF99A0FBE0895EA
:103E40000396272F0E940F1F0E940E1F252F0E94EE
:103E50000F1F242F0C940F1F0196272F0E940F1F56
:103E60000C940E1FDC01CB01FC01F999FECF06C0BA
:103E7000F2BDE1BDF89A319600B40D924150504028
:103E8000B8F70895F894FFCFEA03EA032E042E044E
:103E90009204AF0419041904B40430054105410526
:103EA0004F11C0115711211125115B1129115F11FB
:103EB0006B113511B91139116F113D117311981131
:103EC000411177119F1147117D1185112D1163113A
:103ED000311167114B1181118F11A811B7111B11ED
:103EE0005311C71166126C126F1275128A128A1260
:103EF0008A128A128A128A128A128A1278127D1201
:103F00008112871298129E12A212BF14C514AE1409
:103F1000B914CB14D114D714351D5B1D611D5B1D65
:0C3F2000611DB41DD61D611D2D1E3A1E32
:103F2C000E022E02280850011E0A14010000010086
:103F3C00EC162018191812180B18E200E900EA0008
:103F4C00B500B600B700CD008301CC008A01920108
:103F5C0094012102230224022502260227022A02AE
:103F6C00B300B4006F0070009F01CB019F02A00250
:103F7C00E200E900EA00B500B600B700CD0083010D
:103F8C00CC008A0192019401210223022402250211
:103F9C00260227022A02B300B4006F0070009F01B2
:0E3FAC00CB019F02A0029190946697343500DD
:00000001FF
